:020000040800F2
:10300000E0190020817B0008517B0008537B0008F9
:10301000557B0008577B0008597B00080000000022
:103020000000000000000000000000005B7B0008C2
:103030005D7B0008000000005F7B00081144000871
:10304000A17B0008A57B0008A97B0008AD7B0008D8
:10305000B17B0008B57B0008B97B0008BD7B000888
:10306000C17B0008C57B0008C97B0008CD7B000838
:10307000D17B0008D57B0008D97B0008DD7B0008E8
:10308000E17B0008E57B0008E97B0008ED7B000898
:10309000617B0008F17B0008F57B0008F97B0008E4
:1030A000FD7B0008017C0008057C0008097C000805
:1030B0000D7C000899400008117C0008157C000870
:1030C000197C00081D7C0008217C0008257C000874
:1030D000297C00082D7C0008317C0008357C000824
:1030E000657B0008397C00083D7C0008417C0008B5
:1030F000457C000800B581B000F096FC00A800F007
:1031000025FD9DF800100FF2FC5000F017FF052080
:1031100000F033FD022000F070FD002000F040FEC2
:10312000072000F0FDFD402000F07AFE012000F0B5
:1031300095FE102000F0E0FE052000F0EBFE95204B
:1031400000F0BDFE00F070FF00F0A6FE01B000BD73
:1031500030B585B04FF440514FF0006001F0BDF83C
:1031600001F0D0F800F0FCFE00F00FFF002001F0AD
:1031700030F9012001F03EF9012001F030F9002082
:1031800001F02AF94FF4C06001F074F801F045F93C
:103190004FF4FA7001F057F9DFF84C0501F05CF9D3
:1031A00064249EA5284600F0C9FE282001F04BF9B2
:1031B000641EF7D101F060F9002001F0C9FC43F270
:1031C000F22188421BD00FF2585000F0B7FE01F0F8
:1031D000E7FCDFF81815DFF8180509684160DFF82B
:1031E0001415096881600021016001F0DDFA18B949
:1031F0000FF2585000F0A2FE01F048FD26E05B20DF
:1032000001F046FE10B10FF2845005E05A2001F0A3
:103210003FFE18B10FF2985000F090FE0FF2B4503C
:1032200000F08CFE01214FF0805001F028FE0120BB
:1032300001F0CCF801F0F1FA4FF4807001F095FC48
:103240004FF4003001F075FE01F0D2FC012001F0D6
:1032500039FF01F0FCFF03208DF8100004AA0121C2
:103260002D2002F05BFA18B10FF28C5000F066FED0
:103270000FF2A0510CC900A806210CC000AA002022
:1032800002F04CFA18B10FF2945000F057FE02F021
:103290007CF918B10FF2A05000F050FE00AB0DF118
:1032A000020201A9032002F08CF918B10FF29C5020
:1032B00000F044FE012003900723DFF83C04029055
:1032C000002200200190002110200090012002F037
:1032D00078FA0FF28C5000F031FEFFF70BFF0FF27F
:1032E000985000F02BFE01F06AF801460FF2A4504E
:1032F00000F024FE0421012002F040FA01F042F91E
:1033000000F08EF8FAE730B5044681B02078AA289C
:103310000CD1DFF8E80301804169491C4161C168B3
:1033200041F00101C160012181610BE0CC2809D18C
:10333000DFF8C80341804169491C4161016941F0DE
:10334000010101610FF2A85000F0F8FD0FF2B8552D
:103350006179284600F0F2FD2179284600F0EEFD63
:10336000E178284600F0EAFDA178284600F0E6FD65
:103370006178284600F0E2FD2278DFF88003416999
:103380000FF28C5001B0BDE8304000F0D7BD10B551
:10339000DFF868436069401E60610020A061E0685A
:1033A00020F00100E060206920F0010020610FF2B0
:1033B000845000F0C3FDE06840F00200E060206946
:1033C00040F002002061E06820F00400E060206925
:1033D00020F004002061E06820F48070E060E06884
:1033E00020F40070E060E06820F48060E060E06855
:1033F00020F40060E060206920F480702061206982
:1034000020F400702061206920F480602061206930
:1034100020F40060206110BD000000002E000000BC
:1034200070B5B64C8AB0E068800726D50FF294419B
:103430000CC907A84FF480410CC04FF47A50069095
:1034400007AB0020059000224FF47A700490002012
:10345000039010200290019000200090084602F096
:10346000E9F930B10FF2644000F068FD642000F02B
:10347000EAFFE06820F00200E060E068C00717D5CE
:10348000E068800514D4E068C0052CD40FF2B44184
:103490006CC901A801216CC001A8009002232088FA
:1034A0004FF6FF7202F008FAE06840F4807019E00D
:1034B000E068C00717D5E068000514D4E06840054F
:1034C00011D40FF290416CC901A801216CC001A870
:1034D0000090022320884FF6FF7202F0EDF9E068B9
:1034E00040F48060E060E068C00728D5E0688005AF
:1034F00025D5E068000522D5E06840071FD40FF20B
:1035000064400088ADF800007D48006800EB800151
:10351000490001A802F00EFAA088811C208800ABA7
:10352000022289B202F0BDF8462804D101A802F0B7
:1035300008FA0028F0D0E06840F00400E0600AB02B
:1035400070BD0000411C0078042800D07047F0B521
:1035500081B00878052805D03E2807D0FF2812D072
:1035600001B0F0BD01B0BDE8F04010E7881C017863
:10357000012940F0B580401CB0F8011001B0BDE851
:10358000F040401DBFE6881C4FF4006201885B4C90
:10359000891A34D040F20142891A07D00E390ED070
:1035A000491E75D0891E37D001B0F0BD801C421D68
:1035B0000179408801B0BDE8F04002F0E5B9801C17
:1035C00000F205058178B0F803708E1E01F010FB43
:1035D000A088401C87421EBF2089401C874240F0C3
:1035E0007F80F6B2002E7BD00FF2F80415F8011B95
:1035F000204600F0A3FC761EF8D101B0F0BDB0F873
:103600000900002814BF0FF260300FF2803001B0C3
:10361000BDE8F04000F092BC851CE068C00508D50C
:10362000E068800505D4B5F803100FF28430A1805E
:103630000AE0E068400509D5E068000506D4B5F861
:1036400003100FF28430E18000F078FCB5F803102D
:103650000FF28C3000F072FC2069C00508D520699B
:10366000800505D4B5F803100FF28C3021810AE0F3
:103670002069400534D52069000531D4B5F8031020
:103680000FF28C30618101B0BDE8F04000F056BC13
:10369000E068C00506D5E068800503D4E06840F422
:1036A000007008E0E068400506D5E068000503D436
:1036B000E06840F40060E0602069C00506D520693C
:1036C000800503D4206940F4007008E020694005BB
:1036D00006D52069000503D4206940F4006020610C
:1036E00001B0F0BD25630000CD6E0008B40D0020D0
:1036F000940D0020B80D002040E2010008010020D8
:103700009C7B00084C49535F57484F5F414D5F49D0
:103710005F414444523A20253032580A00000000EC
:103720004E6F206261636B75702072656769737498
:10373000657220666F756E642C2072652D636F6EE6
:1037400066696720525443210A0000000A0D2020B8
:103750002020202020202F215C2A2A2A2A2A2052B9
:103760005443205072657363616C657220436F6EC1
:10377000666967206661696C6564202A2A2A2A2A9C
:103780002A2A2A2F215C200A0D0000000D0A205051
:103790006F776572204F6E205265736574206F637A
:1037A0006375727265642E2E2E2E0A0D00000000C5
:1037B0000D0A2045787465726E616C2052657365E0
:1037C00074206F636375727265642E2E2E2E0A0D3F
:1037D000000000000A0D204E6F206E6565642074A5
:1037E0006F20636F6E666967757265205254432E51
:1037F0002E2E2E0A0D00000053657474696E67202A
:103800004D6F64652033206661696C656421200A10
:1038100000000000BB0000E18002000053657474EA
:10382000696E672042445F41444452206661696C7E
:1038300065642E0A00000000474154545F496E69D8
:1038400074206661696C65642E0A00004741505F10
:10385000496E6974206661696C65642E0A00000017
:10386000424C4520537461636B20496E69746961F1
:103870006C697A65642E0A00416363656C65726FDA
:103880006D6574657220496E697469616C697A65E9
:10389000642E0A00434C49454E543A20424C452080
:1038A000537461636B20496E697469616C697A65F0
:1038B00064202028706C6174666F726D3A202564F4
:1038C000290A0000AA0000E1800200004572726F20
:1038D00072207768696C65207374617274696E67B1
:1038E00020636F6E6E656374696F6E2E0A00000050
:1038F000436F6E6E656374656420746F20646576D3
:103900006963653A00000000253032582D00000040
:103910000A746F746F616C20636F6E6E6563746997
:103920006F6E2025642C20616464723A2025303249
:10393000580A0000446973636F6E6E656374656452
:103940000A000000669A0C200008969EE2119EB1C3
:10395000E1F273D9669A0C200008969EE2119EB19E
:10396000E2F273D9010000003E20436F6E6E656382
:1039700074696F6E20706172616D65746572732019
:1039800072656A65637465642E0A00003E20436FA9
:103990006E6E656374696F6E20706172616D6574BF
:1039A0006572732061636365707465642E0A00003C
:1039B000545820436861722048616E646C6520250C
:1039C0003034580A000000005258204368617220C9
:1039D00048616E646C6520253034580A0000000090
:1039E0005265636569766520737468206973202564
:1039F0003034580A00000000545832204368617285
:103A0000322048616E646C653220253034580A00DB
:103A10005258322043686172322048616E646C658E
:103A20003220253034580A0030B587B001210120FA
:103A300001F013FA01214FF4805001F017FADFF87A
:103A4000144405221146204602F012F805220621F0
:103A5000204602F00DF805220721204602F008F862
:103A6000E020009000A902208DF804000020ADF8AD
:103A7000060003208DF80500204601F0B9FF002064
:103A8000ADF808004FF48270ADF80A0000200390F2
:103A9000ADF810004FF40070ADF812000820ADF83A
:103AA00014000020ADF816000720ADF8180002A998
:103AB000DFF8A453284601F0EFFF0121284602F069
:103AC00007F81020009000A901208DF804000020C4
:103AD000ADF8060003208DF80500204601F088FFB0
:103AE0001021204601F0BBFF07B030BD30B581B0DA
:103AF0000446DFF864530221284601F0F7FF00284E
:103B0000F9D02146284601F0EFFF0121284601F0B7
:103B1000EDFF0028F9D0284601F0E4FFC0B201B063
:103B200030BD70B504460D46DFF8286310213046DD
:103B300001F097FF2046FFF7D9FF2846FFF7D6FF91
:103B40001021304601F08BFF012070BD30B50446D6
:103B5000DFF8005381B01021284601F082FF8F204A
:103B6000FFF7C4FF0020FFF7C1FF20701021284697
:103B700001F075FF012001B030BD70B50446DFF8DB
:103B8000D4521021284601F06CFFDFF8CC620221EC
:103B9000304601F0ABFF0028F9D0A021304601F0FB
:103BA000A3FF0121304601F0A1FF0028F9D03046E3
:103BB00001F098FF0221304601F098FF0028F9D06B
:103BC0000021304601F090FF0121304601F08EFFC8
:103BD0000028F9D0304601F085FF0646102128461E
:103BE00001F03DFF06F00F0040EA0411C9B22020A9
:103BF000FFF797FF00B1012070BDF0B50446DFF874
:103C0000547281B01021384601F02BFFDFF8486272
:103C10000221304601F06AFF0028F9D0A021304689
:103C200001F062FF0121304601F060FF0028F9D069
:103C3000304601F057FF0221304601F057FF0028BF
:103C4000F9D00021304601F04FFF0121304601F04C
:103C50004DFF0028F9D0304601F044FF0546102101
:103C6000384601F0FCFE1021384601F0FAFE022130
:103C7000304601F03BFF0028F9D0A321304601F087
:103C800033FF0121304601F031FF0028F9D03046E2
:103C900001F028FF0221304601F028FF0028F9D06A
:103CA0000021304601F020FF0121304601F01EFFC7
:103CB0000028F9D0304601F015FF0646102138469D
:103CC00001F0CDFEF020054205D1DFF86802007852
:103CD00000F0F00005432CB1022C0FD013D30020CC
:103CE00001B0F0BDDFF84C02057005F00F05E9B238
:103CF0002020FFF716FF58B901B0F0BD05F0F70519
:103D000046F00806F3E745F0080506F0F706EEE78B
:103D1000F1B22320FFF705FF00B1012001B0F0BD93
:103D200070B50446DFF82C511021284601F099FEA9
:103D3000DFF8FC610221304601F0D8FE0028F9D0FE
:103D4000A021304601F0D0FE0121304601F0CEFE28
:103D50000028F9D0304601F0C5FE0221304601F0BE
:103D6000C5FE0028F9D00021304601F0BDFE01213A
:103D7000304601F0BBFE0028F9D0304601F0B2FE1B
:103D800006461021284601F06AFE06F0F80004F00D
:103D9000070101432020FFF7C4FE00B1012070BDE0
:103DA00070B50446DFF8AC501021284601F059FEEA
:103DB000DFF87C610221304601F098FE0028F9D03E
:103DC000A321304601F090FE0121304601F08EFE25
:103DD0000028F9D0304601F085FE0221304601F07E
:103DE00085FE0028F9D00021304601F07DFE01213A
:103DF000304601F07BFE0028F9D0304601F072FE1B
:103E000006461021284601F02AFE06F0CF0040EABF
:103E10000411C9B22320FFF784FE00B1012070BD58
:103E200030B504460B4D81B01021284601F019FE33
:103E3000A520FFF75BFE0020FFF758FE1021284663
:103E400001F00DFE21462520FFF76BFE00B1012099
:103E500001B030BD000002400030014070B50446A2
:103E6000DFF8D4501021284601F0FBFDA420FFF715
:103E70003DFE0020FFF73AFE06461021284601F0DD
:103E8000EEFD06F0F70040EAC401C9B22420FFF7B6
:103E900048FE00B1012070BD10B5DFF89C40102134
:103EA000204601F0DEFDB120FFF720FE0020FFF7E5
:103EB0001DFE1021204601F0D2FD012010BD70B57D
:103EC0000446DFF874501021284601F0CAFDB020E6
:103ED000FFF70CFE0020FFF709FE064610212846DA
:103EE00001F0BDFD06F0400044EA00013020FFF77C
:103EF00018FE00B1012070BD00B581B08028A8BFB8
:103F0000002005DA01463220FFF70BFE00B1012048
:103F100001B000BD00B581B08028A8BF002005DA3F
:103F200001463320FFF7FDFD00B1012001B000BDC7
:103F300000300140D90D0020000002400EB400B551
:103F400082B003A90091024600AB012103487844E6
:103F50000A3001F0E3FD06BC5DF810FB0D3C0000EB
:103F600000B581B001213F2000F077FF0121012041
:103F700000F07CFFDFF8C40203210160DFF8C0120B
:103F800081600021416001B000BD70B582B00320A6
:103F90008DF804004FF6FF7400208DF807000094A0
:103FA0004FF0FF30DFF89C62DFF89C52C6F8000447
:103FB000C5F80004C5F8000800A940F2FF700090A1
:103FC000DFF8880201F014FD4FF6E770009000A9B9
:103FD000DFF87C0201F00CFD009400A9304601F0EE
:103FE00007FD009400A9284601F002FD02B070BD53
:103FF00001214FF4000000F042BF00B581B04FF442
:10400000C06000F037F914208DF8000001208DF811
:10401000010000208DF8020001208DF8030000A8A7
:1040200000F02DF901B000BD10B586B000208DF86C
:1040300010008DF813004FF40064039403A9DFF817
:10404000100201F0D5FC0B21012001F0C1FF00207E
:104050008DF80800019408208DF8090001208DF8E2
:104060000A0001A800F02EFF204600F05FFF282084
:104070008DF8000001208DF8010000208DF802006D
:1040800001208DF8030000A800F0F9F806B010BD7B
:1040900000B1012001F092BF00B581B001216D484F
:1040A00001F0ACFF6C480121017001B000BD6B480C
:1040B0000178012900D1704710B5D0F8D817B1F5B3
:1040C000FA6F04BF0021C0F8D817D0F8D417D0F881
:1040D000D8278A4202D10021017010BDD0F8D8271C
:1040E000914239BFD0F8D817C1F5FA61D0F8D82776
:1040F000891AD0F8D837412907D3D0F8D8274032C9
:104100004024C0F8D827403906E0D0F8D8270C461C
:104110008918C0F8D8170021C0F8DC179BB201211C
:1041200001701818A2B2C021001D01F06BFFA1B2EE
:10413000012002F096F8BDE81040012002F011B80D
:104140004748416802684069821800D1704730B41E
:1041500044480023841C150F0A2D34BF30353735F1
:1041600025701201002565705B1C150F0A2D34BFE8
:1041700030353735A57012010025E5705B1C241D14
:10418000082BE8DB0A0F0A2A34BF30323732827438
:1041900009010A0FC5740A2A34BF3032373202755A
:1041A00009010A0F45750A2A34BF30323732090136
:1041B000090F8275C5750A2934BF3031373145760C
:1041C000017630BC7047000030B42449D1F8D437B0
:1041D0004FF6FF72D1F8D847641EA34206D0B3F55C
:1041E000FA6F04BFD1F8D847002C03D11446621EE1
:1041F000012CEFDA9AB90FF270020DE0D1F8D43742
:104200005D185B1C2C71C1F8D437B3F5FA6F04BF8D
:104210000023C1F8D437521C1478002CEED1D1F809
:10422000D4275318521C1871C1F8D427B2F5FA6F6D
:1042300004BF0022C1F8D42730BC704728380240A0
:104240000100001000080240000C02400000024083
:104250000004024000040040D80D00209801002016
:104260005000F81F240100200A4F564552464C4F7B
:10427000570A00001C4908431C490860704770B485
:104280000378C4781A460121F4B1184B1B684478AE
:1042900003F4E063C3F5E0631B0AC3F10405AC401B
:1042A00085780F2626FA03F32B402343104C1B017D
:1042B000135500780F4B420900F01F0001FA00F07F
:1042C00043F8220070BC704750090B4A03F01F03EB
:1042D000994042F8201070BC7047084A11400843CA
:1042E00007490860704700000000FA050CED00E087
:1042F00000E400E000E100E080E100E080FFFF1F5B
:1043000008ED00E010B584B00121082000F0A5FD03
:1043100001208DF8080000208DF80B0003208DF897
:10432000090000208DF80A000420019001A9254C05
:10433000204601F05DFBA08A40F00400A0825FF0FF
:1043400000008DF800009DF8000008BB9DF80000FB
:10435000401C8DF800009DF80000C8B99DF80000D1
:10436000401C8DF800009DF8000088B99DF8000001
:10437000401C8DF800009DF80000002808D19DF831
:104380000000401C8DF800009DF800000028DDD0E2
:10439000208A0D490006800E00F0010080F0010027
:1043A000087001A900208DF80800204601F020FBCC
:1043B000A08A4FF6FB710840A08204B010BD0248ED
:1043C00000787047000C0240DA0D002005490860B3
:1043D0007047054908607047044908607047044900
:1043E0000860704720000E4210000E4228000E4266
:1043F00024000E42DFF814100028086814BF40F0B3
:10440000080020F00800086070470000003C0240EF
:1044100010480168491C0160704700B581B072B650
:10442000042001F061FF47F6FF4001F067FF012023
:1044300001F07AFF012001F064FF62B601B000BD17
:1044400004480068704703490A680B689B1A834256
:10445000FBD37047BC0D002010B50446FFF7C8FD24
:10446000FFF7CBFD01F06EFF0248046010BD014A6A
:1044700012681047C00D002010B5C84C04F11000A0
:1044800001F070FF04F1180001F06CFF04F120014D
:1044900004F1100001F077FF04F1700104F1100045
:1044A00001F071FF04F1C00104F1100001F06BFF95
:1044B00004F5887104F1100001F065FF04F5B07196
:1044C00004F11000BDE8104001F05DBF70B5B34CC1
:1044D00000F10803A360002163782BB9A38003E0F7
:1044E000042B4ED103236370A388472B49DAA3889A
:1044F0005D1CA580A56866785B5D002EF0D0032E5C
:1045000008BF0623EFD0042E08BF0523EBD0052EED
:1045100008BF0723E7D0072E08BF0823E3D0082EE3
:1045200004D1B5F8032000210923DCE7062E03D1CE
:104530001A4600210923D6E7092ED5D1491C89B294
:1045400092B29142D0D30021617000F108014A1C5F
:104550000978042908D111780E2918BF0F2903D032
:10456000014604F1180002E0014604F1100001F0D8
:104570000AFFE06828B1A188A068E268BDE8704041
:10458000104770BD10B594B00020009000F085FE7B
:10459000824C04F1180001F0E8FEB8B900A904F15A
:1045A000180001F0F7FE00F085FE00980830FEF7D5
:1045B000C9FF00F072FE009904F1100001F0E3FE63
:1045C00004F1180001F0D1FE0028E7D0207848B9A6
:1045D0000DE0472101A800F07FFEC0B210B101A894
:1045E000FEF7B0FF00F04AFE0028F2D1207000F084
:1045F00061FE14B010BD10B582B00020009000F034
:1046000066FE664C06E0009904F1100001F0B4FE6D
:1046100000F05DFE00F04DFDC8B104F1100001F0A6
:10462000A4FE80B900A904F1100001F0B3FE0098C7
:104630004721083000F050FEC0B20028E3D00098B7
:10464000FFF744FFE4E70120207000F040FE02B0D5
:1046500010BD00B581B000F020FE504801218170EE
:1046600001B000BD2DE9F043044685B06088218883
:104670004A4F8005800D40EA8128494800680A2198
:10468000B0FBF1F60020B87003224648F86060885D
:104690002188A568D4F80C908DF806908005800DCF
:1046A00040EA8120ADF8040001A901208DF8000046
:1046B0000DF1010001F07DFE5FFA89F30422294625
:1046C00000A801F087FE0A256D1E0EB9012601E043
:1046D000012E0ADB314602A801F02CF902A801F0F4
:1046E00030F920BBB8780028F8D0B86802461178B5
:1046F000042916D1C11CB8885278C01E0E2A26D0B3
:104700000F2A04D0102A12D03E2A2FD009E04A885E
:104710001FFA88F8424504D162680F2A10D0087841
:1047200028B90020B87000F0C5FD002DCCD10020C4
:10473000F86000F0BFFD4FF0FF3005B0BDE8F0833A
:1047400062699042C8BF1046606102461AE01FFAD3
:1047500088F8B1F801204245E3D16269C91CC01E46
:104760009042C8BF1046606102460BE00A78636859
:104770009A42D6D16269401E9042C8BF104660611D
:104780000246491C206901F014FE0020F86000F088
:1047900091FD002005B0BDE8F08300007C0B0020F7
:1047A0009C7B000853460008DFF8DC2382B0CA2354
:1047B000D36100215323D361009153685B0613D466
:1047C0004FF0FF3353605368DDF800C00CF1010C6B
:1047D000CDF800C0DDF800C0BCF5005F01D05B067D
:1047E000F1D553685B0613D5116821F040011160C3
:1047F000116803681943116081689160916840688D
:1048000041EA004090600121506820F08000506033
:10481000FF20D06102B00846704781B000200090B0
:10482000CA21DFF86803816153218161016821F0A9
:10483000A00101600168009A521C0092009AB2F532
:10484000004F01D08906F5D5FF2201688261480931
:1048500000F0010001B07047F0B402460020DFF81C
:10486000243381B0002A9A686FD1520658BFC870AD
:104870000A78002514460A2A05DB0A2592FBF5F57D
:10488000F62202FB054444EA05124C780026254630
:104890000A2C05DB0A2694FBF6F6F62404FB0655E3
:1048A00045EA06148D7800272E460A2D05DB0A27D7
:1048B00095FBF7F7F62505FB07662406D2B2240C14
:1048C00044EA024246EA0714E4B2C978224342EAC3
:1048D0000141CA225A6253225A620090DA68520693
:1048E0000FD44FF0FF32DA60DA68009C641C009449
:1048F000009CB4F5005F01D05206F5D5DA68520687
:104900002ED5DFF88C2211401960D96821F0800182
:10491000D9609968890622D40090CA21596253212E
:104920005962D96821F0A001D960D968009A521C57
:104930000092009AB2F5004F01D08906F5D5FF220A
:10494000D9685A6289060BD509E0520658BFC8706B
:104950004C780A78240244EA02428C78B5E70120B8
:10496000FF21596201B0F0BC7047DFF81822DFF870
:10497000203212681A40130C03F03F0C81F800C07B
:104980004FEA122C81F801C08A7003F04002CA700D
:10499000D0B90878020902EB820300F00F0000EBA7
:1049A000430008704878020902EB820300F00F0010
:1049B00000EB430048708878020902EB820300F0A4
:1049C0000F0000EB43008870704770B481B002465E
:1049D00000204B78002A74D1DA0603D503F0EF02E9
:1049E0000A324A700024CA7813460A2A05DB0A24D0
:1049F00092FBF4F4F62202FB043343EA04124B78F0
:104A000000251C460A2B05DB0A2593FBF5F5F6234A
:104A100003FB054444EA05138C78002625460A2C3E
:104A200005DB0A2694FBF6F6F62404FB06551B0666
:104A3000D2B21B0C43EA024245EA0613DBB2097804
:104A40001A4342EA4132DFF84C11CA230B62532366
:104A50000B6200908B685B060FD44FF0FF338B60C6
:104A60008B68009C641C0094009CB4F5005F01D02E
:104A70005B06F5D58B685B062AD5DFF81C311A403A
:104A80000A608A6822F080028A604A6892061ED410
:104A90000090CA220A6253220A628A6822F0A002A7
:104AA0008A608A68009B5B1C0093009BB3F5004FF3
:104AB00001D09206F5D5FF238A680B62920607D5CE
:104AC00005E0CA781B0243EA02428B78B7E701206F
:104AD000FF220A6201B070BC7047DFF8B820DFF82F
:104AE000B83012681A40130CCB70130A03F01F037E
:104AF0004B708A70520B02F007020A70D0B9C87866
:104B0000020902EB820300F00F0000EB4300C870C3
:104B10004878020902EB820300F00F0000EB43002B
:104B200048708878020902EB820300F00F0000EB66
:104B300043008870704781B000220092174A0092AB
:104B4000009A02EB800000900098016001B070476D
:104B500081B00021009111490091009901EB800082
:104B600000900098006801B0704708490A68C003C7
:104B7000C00B40F0800002F0800262EA0000086092
:104B80007047000000280040082800400C28004022
:104B90007F7F7F00042800403FFFFF005028004037
:104BA00000B581B001214FF0805000F068F901207C
:104BB000FFF70CFC0FF25010FFF7C0F9012000F0D6
:104BC0002FF9412000F064F90028FAD04FF40030AA
:104BD00000F029F94A4840F2271141607C21016028
:104BE000012000F037F901B05DF804EBFFF715BEC6
:104BF00010B5444C211D0020FFF7B7FEA379627960
:104C000021790FF21C10FFF799F921460020FFF7D8
:104C100064FFA3786278E1780FF23410BDE81040A9
:104C2000FFF78CB900B5374BD870597081B09A70C6
:104C300019460020FFF7C9FE30B901B05DF804EB5A
:104C40000FF23C10FFF77AB90FF25C10FFF776F91C
:104C500001B05DF804EBCBE700B52A4B1871597130
:104C600081B09A71191D0020FFF7F6FD30B901B02F
:104C70005DF804EB0FF25810FFF760B90FF27810EF
:104C8000FFF75CF901B05DF804EBB1E730B51D4CFE
:104C9000FF2581B025716571A571211D0020FFF7E9
:104CA000DBFD30B901B0BDE830400FF22410FFF752
:104CB00045B90FF24410FFF741F9E5706570A57032
:104CC000214643F2F2250020FFF77FFE20B90FF2C4
:104CD000B000FFF733F909E00FF2CC00FFF72EF92F
:104CE000FFF786FF29460020FFF725FFFFF780FF2B
:104CF000294601B0BDE830400020FFF71CBF00008E
:104D0000B40D0020AC0D00204C5349204F534320DC
:104D100069732073656C6563746564210A00000023
:104D20000A0D20205468652063757272656E7420C8
:104D300074696D65206973203A202025302E326415
:104D40003A25302E32643A25302E3264200A0D0086
:104D50000A0D20205468652063757272656E742098
:104D600064617465206973203A202025302E3264F6
:104D70003A25302E32643A25302E3264200A0D0056
:104D80000A0D3E3E202121205254432053657420B9
:104D900044617465206661696C65642E2021212060
:104DA0003C3C0A0D000000000A0D3E3E202121205F
:104DB00052544320536574204461746520737563B5
:104DC000636573732E202121203C3C0A0D000000F6
:104DD0000A0D3E3E20212120525443205365742069
:104DE00054696D65206661696C65642E20212120FF
:104DF0003C3C0A0D000000000A0D3E3E202121200F
:104E0000525443205365742054696D652073756353
:104E1000636573732E202121203C3C0A0D000000A5
:104E200023490860704700F440322049B2F5403F02
:104E300006D10A6822F0C04200F0C0431A430A605B
:104E400000F440304A6B22F440324A634A6B10430C
:104E500048637047174908607047174A002911686E
:104E600014BF084321EA000010607047134A00296C
:104E7000116814BF084321EA000010607047104A0F
:104E80000029116814BF084321EA00001060704730
:104E900042090649012A0CBF0968496B00F01F004E
:104EA00021FA00F000F001007047000000380240D5
:104EB00080064742D80647421C380240203802404C
:104EC0002438024030B401688279CB431B4932B3A5
:104ED0000A4614682340136053680468A343536070
:104EE0000379CC18236805682B4323609368046812
:104EF000A3439360D3680468A343D36043790568F0
:104F0000102B08D1916829439160D168006808434B
:104F1000D06030BC7047CC182068284303E000798B
:104F20000C1820681840206030BC704704490860A5
:104F3000704703490860704700000000000401400A
:104F40001404014010B5FFF73AFADFF8D04504EB3E
:104F500080004069A065FFF732FA04EB8000C06969
:104F6000E065FFF72CFA0FF2D85151F820002066C7
:104F7000FFF725FA04EB8000406A6066FFF71FFA2E
:104F80000FF2C45151F82000A066FFF718FA04EBA5
:104F90008000C06AE066FFF712FA0FF2B45151F8D0
:104FA00020002067FFF70BFA04EB4000808EA08101
:104FB000FFF705FA001980792070FFF700FA04EB7B
:104FC0008000806B6067FFF7FAF90FF28C5151F89F
:104FD0002000A067FFF7F3F904EB4000B0F84000B1
:104FE000E081FFF7ECF90019007A6070FFF7E7F94C
:104FF00004EB8000406CE067FFF7E1F90FF26051CD
:1050000051F82000C4F88000FFF7D9F904EB400004
:10501000B0F84C002082FFF7D2F90019807AA07016
:10502000FFF7CDF90FF2485151F82000C4F8840081
:10503000FFF7C5F904EB8000006DC4F88800FFF7A6
:10504000BEF90FF2245151F82000C4F88C00FFF78C
:10505000B6F90FF2245151F82000C4F89000FFF780
:10506000AEF90FF21C51405CE070FFF7A8F90FF2A7
:105070001451405C2071FFF7A2F90FF20C51405C13
:105080006071FFF79CF918B1FFF799F901280DD16C
:1050900001214FF48040FFF7F2FED4F88400012193
:1050A00040F00600FFF7D9FE002010BD4FF0FF30A2
:1050B00010BDDFF86804D0F88C10D0F8880089B2F1
:1050C00000F0C6BC30B58BB00446FFF73BFF10F1D3
:1050D000010F00F0BA80DFF844542A78A989E86EFD
:1050E00000F0C6FC6A78E989686F00F0C1FCAA7814
:1050F000298AE86F00F0BCFCA96E686E012289B2B3
:1051000000F0B1FCA86E009000A901208DF8040009
:1051100000208DF80500ADF80600686E00F068FC10
:10512000A96E686E002289B200F09DFCD5F880005F
:10513000009000A902208DF8040003208DF80500DE
:1051400000208DF8060001208DF80700E86F00F0C0
:105150004FFC02208DF8070000A9A86F0090686F2F
:1051600000F046FC01208DF8070000A9286F009090
:10517000E86E00F03DFC296E009101208DF80400DE
:1051800001220020ADF8060089B203208DF8050049
:10519000E86D00F068FCE86D00A900F029FCD5F886
:1051A0008C00009000A900208DF8040002208DF8EA
:1051B0000700D5F8880000F01BFC0020ADF81400B3
:1051C00005A94FF48270ADF8160000200690ADF8E6
:1051D0001C004FF40070ADF81E000820ADF8200050
:1051E0000020ADF822000720ADF82400A86D00F0E3
:1051F00053FCA86D012100F06BFC012C24D129790E
:10520000E87800F0E5FED5F89000039000208DF8D6
:10521000100008208DF8110001208DF8120003A85D
:10522000FFF750FED5F89000FFF780FE68798DF803
:10523000080000208DF809008DF80A0001208DF883
:105240000B0002A8FFF71BF800200BB030BD10B513
:10525000DFF8C842A16E606E002289B200F003FC44
:105260000520FFF7F0F8A16E606E012289B200F010
:10527000FAFBBDE810400520FFF7E5B800B5A748E8
:10528000D0F88C10D0F8880081B089B200F0E0FB33
:10529000012818BF002001B000BDA048A04A90F925
:1052A00005004109012300F01F0003FA00F042F855
:1052B0002100704799489B4A90F905004109012354
:1052C00000F01F0003FA00F042F8210070479348F5
:1052D000D0F89000FFF72ABE2DE9F0478A4684B047
:1052E0000FF2442180460CC902A88C4F0CC0396EC5
:1052F000F86D0026002289B200F0B5FB02AC0DF17A
:10530000000905252178B86D00F0EEFBB86D02218B
:1053100000F0ECFB0028F9D0B86D012100F0E6FBAD
:105320000028F9D0B86D00F0DDFB09F8010B641C12
:105330006D1EE7D19DF80000022824D19DF80400DD
:105340009DF8031051EA00241DD0A245B8BF544671
:10535000012C18DBB86DFF2100F0C6FBB86D0221EF
:1053600000F0C4FB0028F9D0B86D012100F0BEFBAD
:105370000028F9D0B86D00F0B5FB06F80800761CDF
:10538000F6B2A642E6DB396EF86D012289B200F072
:105390006AFB304604B0BDE8F0872DE9F34F87B0D3
:1053A00014461D460FF288115C4F0CC905A80FF278
:1053B00088110CC00CC903A84FF001080CC097F964
:1053C0000500574A410900F01F0008FA00F042F8B2
:1053D00021004FF00009D7F88C0000908DF8048070
:1053E00003208DF805008DF8069002208DF8070047
:1053F00000A9D7F8880000F0FBFAD7F88C10D7F88E
:105400008800012289B200F02EFBCDF8089003E05D
:1054100000BF0298401C02900298B0F5D27FF7DBE3
:10542000396EF86D002289B200F01DFB05AE0DF15A
:105430000C0A4FF0050B3178B86D00F055FBB86DD4
:10544000022100F053FB0028F9D0B86D012100F0D3
:105450004DFB0028F9D0B86D00F044FB0AF8010BB1
:10546000761CBBF1010BE6D1D7F888008DF80490CB
:1054700000A900F0BDFA9DF80C00022838D19DF873
:105480000D002919884230DBB4B1079E3178B86D20
:1054900000F02AFBB86D022100F028FB0028F9D0AB
:1054A000B86D012100F022FB0028F9D0B86D00F0A2
:1054B00019FB761C641EE9D1E5B1089C2178B86D12
:1054C00000F012FBB86D022100F010FB0028F9D0AB
:1054D000B86D012100F00AFB0028F9D0B86D00F08A
:1054E00001FB641C6D1E05D0E8E76FF0010901E0C7
:1054F0004FF0FF39396EF86D012289B200F0B3FA2E
:1055000097F90500074A410900F01F0008FA00F06A
:1055100042F8210009B04846BDE8F08F00000020A5
:1055200080E100E000E100E00B000000000000006E
:105530000A00000000000000AA00000000000000B7
:1055400000100000001000000020000000200000FB
:1055500000800000008000000040000000400000CB
:1055600000200000002000000004000000040000F3
:10557000040000000200000000040000000400001D
:10558000020100000A0A0000282800B587B018228E
:10559000002101A800F013FF3F20ADF8040040F205
:1055A0000110ADF8060000A805900120069001A8A2
:1055B000FFF758F800284CBFFF209DF8000007B007
:1055C00000BD70B58AB00C468DF8080015461E4621
:1055D0000722002100A800F0F2FE1822002103A8F3
:1055E00000F0EDFE3F20ADF80C008A20ADF80E0073
:1055F00002A805900120069000A8079007200890B7
:1056000003A8FFF72FF8002848BFFF200CD49DF80F
:10561000000048B9BDF801002080BDF803002880D3
:10562000BDF80500308000200AB070BD33B51446C7
:10563000601DA7B01D468128A8BF42202FDA022294
:1056400027A907A800F0B5FE022228A90DF11E0027
:1056500000F0AFFE8DF82040224629460DF12100D2
:1056600000F0A7FE1822002101A800F0A8FE3F20AC
:10567000ADF8040040F22310ADF8060007A803902F
:10568000601DC0B2049000A805900120069001A8FA
:10569000FEF7E8FF00284CBFFF209DF8000029B06E
:1056A00030BD33B51446601DA7B01D468128A8BF84
:1056B000422031DA022227A907A800F07AFE02224E
:1056C00028A90DF11E0000F074FE8DF8204022463E
:1056D00029460DF1210000F06CFE1822002101A8DE
:1056E00000F06DFE3F20ADF8040040F22110ADF84F
:1056F000060007A80390601DC0B204900F2002901E
:1057000000A805900120069001A8FEF7ABFF002835
:105710004CBFFF209DF8000029B030BD10B50C46ED
:105720001146A21CA8B0812AA8BF422024DA8DF815
:105730001C008DF81D4022460DF11E0000F039FEC0
:105740001822002101A800F03AFE3F20ADF8040025
:105750000C20ADF8060007A80390A01CC0B204906E
:1057600000A805900120069001A8FEF77BFF002805
:105770004CBFFF209DF8000028B010BD00B589B0D7
:105780008DF804008DF805101822002102A800F001
:1057900016FE3F20ADF808000F20ADF80A0001A862
:1057A00004900220059000A806900120079002A80E
:1057B000FEF758FF00284CBFFF209DF8000009B0FD
:1057C00000BD30B58FB08DF81C008DF81D1014464B
:1057D0001D46102221460DF11E0000F0EAFD129830
:1057E0008DF82F008DF82E50182213988DF8300068
:1057F00000211498CDF8310015988DF8350001A8D6
:1058000000F0DDFD3F20ADF804008620ADF8060075
:1058100007A803901A20049000A805900120069084
:1058200001A8FEF71FFF00284CBFFF209DF80000D5
:105830000FB030BD00B58DB0ADF80400ADF8061066
:105840008DF80820194606220DF1090000F0B1FD7F
:105850000E988DF80F0018220F98ADF81000002157
:105860001098ADF812001198ADF814001298ADF828
:1058700016001398ADF818001498ADF81A0007A890
:1058800000F09DFD3F20ADF81C009C20ADF81E00EF
:1058900001A8099018200A900F20089000A80B90EA
:1058A00001200C9007A8FEF7DDFE00284CBFFF206A
:1058B0009DF800000DB000BD17B58DB01C4602224A
:1058C0000DA907A800F075FD02220EA90DF11E001A
:1058D00000F06FFD02220FA908A800F06AFD8DF804
:1058E0002240012C0CBF02241024129922460DF1F3
:1058F000230000F05EFD1822002101A800F05FFDEA
:105900003F20ADF804004FF48B70ADF8060007A8F7
:105910000390E01DC0B2049000A8059001200690FD
:1059200001A8FEF79FFE00284CBFFF209DF8000055
:1059300010B010BD10B504466160FEF781FD206017
:1059400010BD10B50446FEF77BFD2168401A616862
:10595000401C81428041C00F10BD10B450F8041BA0
:1059600081B102681218001D50F8043BDC0744BFE7
:10597000A9F10104E31852F8044B43F8044B091F42
:10598000F9D1EBE710BC704770B50D4615491446C8
:105990008A88521C90421EBF0A89521C904209D12B
:1059A000EDB10FA614F8011B3046FEF7C7FA6D1EC5
:1059B000F8D170BD4A88921C904204D12078012809
:1059C0000DD1094807E0C988891C884204BF2078A6
:1059D000012804D10548016841F00401016070BD4F
:1059E00025630000A00D00201401002018010020F4
:1059F000F0B40022002301240D6894402540A54204
:105A000020D106680F7903259D40ED432E409F402D
:105A10003E4306600E79012E18BF022E0CD1866817
:105A20004F792E409F403E438660868826EA0404D4
:105A30008E79964034438480C4682C40CD799D4053
:105A40002C43C460521C9B1C102AD4D3F0BC70475A
:105A5000008A0022084218BF0122104670470183C5
:105A60007047418370470AB1018370474183704793
:105A7000CB0800EB830001F007018900036A4FF0B7
:105A80000F0C0CFA01FC23EA0C03036202FA01F189
:105A9000036A19430162704702880B8802F441527D
:105AA0001A434B881A438B881A43CB881A430B89B5
:105AB0001A434B891A438B891A43CB891A430280B4
:105AC0004FF2FF73828B1A408283098A01827047EA
:105AD0000029018812BF41F040014FF6BF7211400A
:105AE000018070478089704781817047008900225A
:105AF000084218BF01221046704750F8041B61B1DC
:105B000050F8042BD30744BFA9F101039A180023CE
:105B100042F8043B091FFAD1EFE770472DE9F04F37
:105B200093B0804602AE002014461D460291B0613B
:105B30000DF1300A0AE014F8011B0298C0470290E8
:105B4000002800F0B481B069401CB061207808B929
:105B5000B069AEE12528EED10020F06030617061BF
:105B600001E040F0010014F8011F2029F9D0232999
:105B70000DD02B2904D02D2906D030290AD00CE0D5
:105B800040F0020080B2EEE740F00400FAE740F097
:105B90000800F7E740F01000F4E72A290DD1296842
:105BA0000A1D2A6009683162002904D5494240F083
:105BB0000400316280B2641C13E0002131620BE00A
:105BC000316A6FF00043994205D001EB810302EB8B
:105BD000430130393162641C2278A2F130010A2974
:105BE000EED321782E2903D04FF0FF31F1611EE072
:105BF00014F8011F2A2906D129680A1D2A60641C8D
:105C00000968F16113E00021F1610BE0F1696FF0C7
:105C10000043994205D001EB810302EB4301303987
:105C2000F161641C2278A2F130010A29EED3B0841C
:105C30000FF28030217800F0EDFB08B114F8010B71
:105C40008DF82E009DF82E00682804BF2078682863
:105C500003D162208DF82E00641C0CA8B06022785D
:105C6000252A13D0582A34D0632A00F0A580642A4C
:105C700018BF692A68D06F2A2BD0702A20D0732AC7
:105C800009D0752A18BF782A23D09FE0F068411CFC
:105C9000F160252197E02868011D29600068F269FC
:105CA0007060002A02D500F0C1FB07E0002100F07F
:105CB000D9FB00281ABF7168401AF069306191E081
:105CC0002868011D29607821006801900CA8706087
:105CD0006EE09DF82E306C2B08BF286811D0712B18
:105CE00008BF286802D028686A2B0AD1C01D20F09E
:105CF00007002860014601F108002860D1E9000191
:105D000002E0011D296000680190682B02D101A802
:105D1000008803E0622B02D101A80078019096F878
:105D2000240000073FD5019800283CD042F0200015
:105D3000782838D1F068302100F80A10401C411C46
:105D4000F16000F80A202EE09DF82E00622802D0B3
:105D5000682806D00BE02868011D296090F9000032
:105D600009E02868011D2960B0F9000003E02868F7
:105D7000011D296000680190002804D5F068411CCD
:105D8000F1602D210DE0B08C810704D5F068411C35
:105D9000F1602B2105E0C00705D5F068411CF160DA
:105DA000202100F80A10F0680CA940187060114614
:105DB00001A800F081F815E0F068411CF160296845
:105DC0000A1D2A60096800F80A100BE0F068411CFF
:105DD000F160252100F80A1022B1F068411CF16041
:105DE00000F80A20306AF168401A7169401A316976
:105DF000A0EB010996F82400641C40070FD4202072
:105E00008DF80000002708E0012300AA01A9404600
:105E100000F0B9F800284AD17F1C4F45F4DBF76841
:105E20000DF1300B0AE01BF8011B0298C0470290ED
:105E300000283CD0B069401CB0617F1E002FF2D119
:105E400030208DF800004FF0000B776908E0012347
:105E500000AA01A9404600F096F840BB0BF1010BE7
:105E6000BB45F4DB3769D6F804B009E01BF8011B29
:105E70000298C0470290D0B1B069401CB0617F1E4B
:105E8000002FF3D196F8240040077FF55FAE202065
:105E90008DF8000000E07F1C4F45BFF657AE012390
:105EA00000AA01A9404600F06EF80028F3D04FF098
:105EB000FF3013B0BDE8F08FF0B4C2686F2908BF9F
:105EC000082405D041F02003782B14BF0A241024A5
:105ED000066818233746642918BF692902D1002EA5
:105EE00048BF7F425FB9056A4DB9082C27D190F8A9
:105EF0002810090723D530211723D1751FE0B7FBE0
:105F0000F4F604FB167730375D1EFFB22B463A2FAE
:105F1000A4BFA1F1510C6744AF54370003D085688A
:105F20009E18B542EBD3082C09D190F82810090728
:105F300005D5995C302902D05B1E30219954C3F1FC
:105F4000180141619A188260026A914208DA511A76
:105F500081614FF6EF72018D11400185F0BC7047F1
:105F6000002A0ED590F8282002F01402102A08D139
:105F7000426A0369D21A8369D21A531A012BA8BF45
:105F80008361F0BC7047F8B504460D4616461F46BF
:105F9000002004E0E869401CE8617F1E002047B152
:105FA00016F8011B6868A04768600028F2D14FF01E
:105FB000FF30F2BD686C747A4C0000000D49002877
:105FC000086812BF40F001004008400008607047B8
:105FD00030B401F0030221F00301074B9200CC58CA
:105FE0000F259540AC43CC509040CC582043C8502E
:105FF00030BC70470400014008000140C9430182E1
:1060000070470000490001F18043511C03F5C04373
:10601000491000D1704730B411F0030200F00B803A
:1060200010F8014B10F8015B44EA052423F8024BF9
:106030009B1C521EF4D1890800F0268010F8012B19
:1060400010F8014B42EA042223F8022B9A1C10F8A4
:10605000013B10F8014B43EA042322F8023B921C57
:1060600010F8013B10F8014B43EA042322F8023BED
:10607000921C10F8013B10F8014B43EA042322F86C
:10608000023B931C491ED9D130BC7047490001F135
:106090008041521C01F5C04152101DD012F0030383
:1060A00005D05B1E51F804CB20F802CBF9D1920841
:1060B00000F0128051F8043B20F8023B521E51F8C8
:1060C000043B20F8023B51F8043B20F8023B51F816
:1060D000043B20F8023BEDD1704700004FF6F87109
:1060E0000840DFF8E01108607047DFF8DC2152F863
:1060F000203048F68F1C0CEA0303194342F82010A5
:106100007047DFF8C42152F8203048F6BF7C0CEA13
:1061100003035FEAC16C48BF83F01003890648BFE0
:1061200083F0200343F4004141F0800142F8201045
:106130007047DFF8942152F820304BF68F7C0CEA40
:1061400003035FEAC14C48BF83F48053890448BF0E
:1061500083F4005343F4004141F0800142F82010E1
:106160007047DFF8641151F8202048F6BF731A40D9
:1061700082F0300242F4004242F0800241F82020D6
:106180007047DFF8441151F820204BF68F731A4006
:1061900082F4405242F4004242F0800241F8202052
:1061A0007047DFF8241151F8202048F68F631A4019
:1061B00042F4004242F0800241F820207047DFF8AC
:1061C000081151F8202052040AD551F8202048F631
:1061D0008F731A4042F4404242F0800241F820207E
:1061E0007047DFF8E41051F8202052060AD551F824
:1061F000202048F68F731A4042F4004242F0C00259
:1062000041F820207047DFF8BC20126892B202EB00
:10621000C000DFF8B8204908490042F81010704764
:10622000DFF8A020126892B202EBC000DFF8A020D5
:106230004908490042F8101070472249096889B29C
:1062400001EBC000214951F8100080B270471D4990
:10625000096889B201EBC0001D4951F8100080B2F5
:106260007047184A126892B202EBC000194A42F80D
:1062700010107047134A126892B202EBC000164A1F
:1062800002EB40003F290ADB4A091F23194208BFDD
:10629000521E1204910941F40041016070474A08FE
:1062A000C90748BF521C1204910901607047054993
:1062B000096889B201EBC000074951F81000800558
:1062C000800D7047505C0040005C00400060004062
:1062D00008600040046000400C6000400106090CAA
:1062E00041EA1020704700001449042808680CBFD8
:1062F00040F0040020F00400086070471049086076
:1063000070470E49012804D1086840F00100086078
:10631000704710F1020F04D108684008400008607F
:10632000704700208860704704490028086814BF3F
:1063300040F0020020F002000860704710E000E02A
:1063400014E000E00448054AC06102210172426283
:1063500003490162086800476C0D0020C40000205A
:10636000940000200060406070470168814201D1C4
:10637000012070470020704702680A604860016091
:10638000086841607047086042684A604160486838
:106390000160704702680A60006842680368136021
:1063A0000268406850600022086802600868426025
:1063B000704710B5044600F081F8204610BD10B5B6
:1063C000044610460A460146204600F0B3F820462F
:1063D00010BD0000F0B504460D4800680D460A21C6
:1063E00083B0B0FBF1F116461F4600A8FFF7A2FAF2
:1063F000FBB2F2B229462046FEF7CFFF20B100A83B
:10640000FFF79FFA0028F3D003B0F0BD00000000B2
:106410009C7B00080278C9B28A421AB11CBF10F8EE
:10642000012FF9E718BF00207047000000F10103B9
:10643000810704D010F8011B89B18107FAD10268E5
:10644000B2F10131914311F0803F04BF50F8042FA5
:10645000F6E710F8011B11B110F8011BFBE7C01A99
:1064600070470000C9B2830706D0521E22D310F82D
:10647000013B9942F7D11FE0083A13D302F104021D
:1064800041EA012141EA014150F8043B121F21BFBA
:106490004B40A3F1013C2CEA030C1CF0803FF3D0ED
:1064A000C9B2001F083210F8013B521E28BF91EA02
:1064B000030FF8D818BF0120401E704762B38B0746
:1064C00008D0521E11F8013B00F8013B00F0248077
:1064D0008B07F6D1830740F0208000BF103A07D326
:1064E00030B4B1E83810103AA0E83810F9D230BC16
:1064F000530724BFB1E80810A0E8081044BF51F8C2
:10650000043B40F8043BD20724BF31F8022B20F8AB
:10651000022B44BF0B7803707047083A07D3B1E8E9
:106520000810083A40F8043B40F804CBF7D2530770
:10653000E4E7000062F30F2262F31F42401810F0FC
:10654000030308D0C91A1FD3DB0748BF00F8012D89
:1065500028BF20F8022D130030B414461546103918
:1065600028BF20E93C00FAD8490728BF20E90C00E1
:1065700048BF40F8042D890028BF20F8022D48BFED
:1065800000F8012D30BC7047C91818BF00F8012D64
:10659000CB0728BF00F8012D7047000010B5DFF8C9
:1065A0007C4820B9206801210182002010BDDFF85D
:1065B000700800680068804720680A3010BD10B578
:1065C000DFF8584820B9206801210182002010BD61
:1065D000DFF84C0800688068804720680C3010BDE8
:1065E00010B5DFF83848DFF8402820681268C17815
:1065F00040799269904721688A7A9AB1002804BF4D
:10660000087900280ED1887860B9DFF8140800688E
:10661000C068804720684179C1722068C1780173E1
:10662000002010BD022010BD10B5DFF8F01709687A
:1066300018B902200882002010BD0020DFF8EC47C6
:1066400020807F220878104215D1487A00218206E6
:1066500048BF41F0020121704006217854BF01F08B
:10666000FE0041F001002070DFF8B4070068006907
:106670008047204610BD00F07F02012AF9D000F0CB
:106680007F000228D7D14879DFF8A42700F00F0156
:10669000000652F8210007D500F030001028E3D1A1
:1066A000002040F00100DEE700F44050B0F5805FCC
:1066B000DAD1002040F00100D5E7F0B5DFF85C0743
:1066C000006881B0017811F07F0106D1417A01F0B4
:1066D000DF014172002001B0F0BD022901BF4188F5
:1066E00000290179002951D14179DFF8444721F08F
:1066F00080050A0654F825204CBF02F0300202F44F
:106700004052DFF820371B789D423FD2002A1CBF41
:10671000807A00283AD0080654F825000BD500F0FE
:10672000300010282AD12846FFF75BFD302128468B
:10673000FFF7E7FC22E000F44050B0F5805F1DD188
:1067400048F280064BF68F776DB9DFF8E80690F8CF
:106750002C100020FFF78EFD2068384080F4405058
:10676000304320600AE02846FFF729FD54F8250051
:10677000384080F44050304344F82500DFF8A0064C
:10678000006840698047002001B0F0BD022001B0E0
:10679000F0BD30B5DFF88406DFF89416026881B0EA
:1067A000537923F080001C0651F820404CBF04F0C0
:1067B000300404F44054DFF86C562D78A84206D219
:1067C000558825B9002C1CBF927A002A02D10220DC
:1067D00001B030BD1B0651F8203048F2800205D5CB
:1067E00048F6BF74234083F0100304E04BF68F7427
:1067F000234083F480531A4341F82020DFF8200619
:10680000006880698047002001B030BDDFF80C26A9
:106810001268538A20B98888C01A108200207047F5
:106820000868181870472DE9F041DFF8F045206836
:1068300000F110063188002904BF007A04281BD11A
:10684000DFF8F415DFF8F4050A78012A11D1DFF832
:10685000F025DFF8F035126892B2002543F81250A7
:106860003022028000200870042520680572BDE8EF
:10687000F0810725102127E0B7888F4205D3042532
:10688000B94288BF39460F4600E00225B168384654
:10689000884780460020FFF7D0FC01463A46404634
:1068A000FFF7B0FB39460020FFF7DBFC3088C01B48
:1068B00030803021708838187080DFF880050180C2
:1068C0004FF44051DFF88005018020680572BDE873
:1068D000F08130B5DFF84445206881B00178457813
:1068E0007F22114250D1092D23D1DFF83825C178FC
:1068F00052788A425ED38278002A04BF8288002AB6
:1069000058D18172DFF81805006840688047DFF8C9
:106910003015DFF83025096889B2002342F81130BC
:106920000620DFF8181530220A802168087201B0AD
:1069300030BD052D0BD1C178802947DA8178002937
:1069400001BF81880029807A00283FD1DFE7032D2D
:106950000FD1C178012904BF818800292AD1417A49
:1069600041F020014172DFF8B8040068C069804737
:10697000CDE7012D04BFC17801291BD18188C9B998
:10698000407A80060DD415E001F07F00012804D183
:106990000B2D0FD1FFF724FE0AE002280AD1012DAA
:1069A00002D1FFF78AFE03E0032D03D1FFF7F1FECA
:1069B0000028ACD0DFF87014096849692846884778
:1069C000032808BF0920B0D00028A0D021680820E3
:1069D000087201B030BD10B5DFF84044206882B0C5
:1069E0004178062919D101787F22114235D180786A
:1069F000012804D1DFF830040068C16980E0022872
:106A000004D1DFF824040068016A79E0032824D166
:106A1000DFF814040068416A72E000294AD1418815
:106A2000002904BFC188022917D10179A9B90178C9
:106A30007F22114204BF8288002A38D001F07F02F1
:106A4000012A18D1DFF8E023407912689269002109
:106A5000904710B92068807A48BBDFF8CC132068D3
:106A60000968407809698847032852D120680921BC
:106A7000017202B010BD01F07F010229EDD1407911
:106A8000DFF8AC3300F00F0100F07002000653F89D
:106A900021004CBF00F0300000F44050DFF8843398
:106AA0001B789942D9D2002AD7D10028D5D0DFF857
:106AB0009C1325E0082906D100787F210842CCD11B
:106AC000DFF88C131CE00A2902BF017801F07F0176
:106AD0000129C2D1817A0029BFD04188002901BF94
:106AE00001790029C1880129B7D1DFF83C23407919
:106AF00012689269002190470028AED1DFF8541344
:106B00000800AAD0206800224282816100208847C4
:106B1000002021680B8A1A464FF6FF74A24208BF74
:106B2000092004D0022818BF002B03D108200872C6
:106B300002B010BD0878000623D5C8880090009CDC
:106B40009C4202D20098088212E0834210D2B648DA
:106B5000006890F82C00834202D2B748002206E079
:106B600092FBF0F300FB132010B9B348012202702E
:106B7000AD48006890F82C00888202B0BDE8104053
:106B800051E6032008724FF44051AF48018002B033
:106B900010BD30B5AA48B049A04C81B0006880B2A1
:106BA00031F8100021680A7A400000F1804000F5B9
:106BB000C040092A14D010F8012B0A70216810F87F
:106BC000012B4A70851C35F8040BFFF787FB216801
:106BD00048802888FFF782FB21688880A888C880C1
:106BE0000121206801722068C08810B9FFF771FE8A
:106BF00001E0FFF7F0FE8F4890F82C100020FFF71F
:106C000039FB2068017A082906D18F494FF4805258
:106C10000A80102289490A80007A09280CBF0120C5
:106C2000002001B030BD10B57C4C2068017A0229EB
:106C300018BF042904D1FFF7F6FD2068007A14E09C
:106C4000062911D14178052902BF01787F2211421E
:106C500006D1C07800F097F871480068006A804754
:106C60007148006880688047082021680872714870
:106C700090F82C100020FFF7FDFA2068017A08290F
:106C800006D171494FF480520A8010226B490A8064
:106C9000007A092801D1012010BD002010BDF0B5F7
:106CA0005E4C206881B0017A022918BF04294FD0B8
:106CB000032918BF052945D100F11005A9682E88C0
:106CC000080018BF002E14D0A888864288BF064648
:106CD0003046884707462888801B288068883018F7
:106CE00068800020FFF7B3FA014632463846FFF7C6
:106CF000CDF9288850B154484FF44051018000200C
:106D00000021FFF7AEFA4D48302101802888AA887B
:106D10002168904228BF032001D220B105200872CB
:106D20002068007A15E00620087200224448454990
:106D3000006880B241F8102030214048018020686E
:106D4000007A06E0072903D137480068C068804709
:106D5000082021680872374890F82C100020FFF7AF
:106D600089FA2068017A082906D137494FF4805200
:106D70000A80102231490A80007A09280CBF0120BC
:106D8000002001B0F0BDF0B426490D780024002D9C
:106D90003DD015F0030648F2800148F68F72244B6F
:106DA0000DD0E7B253F827C002EA0C0C47EA0C0CEE
:106DB00041EA0C0C43F827C0641C761EF1D1AD08E3
:106DC00025D0E6B253F82670174037430F4343F8F7
:106DD0002670641CE6B253F82670174037430F4301
:106DE00043F82670641CE6B253F826701740374308
:106DF0000F4343F82670641CE6B253F82670174020
:106E000037430F4343F82670641C6D1ED9D11349D4
:106E100040F080000860F0BC70470000880D002042
:106E2000900D0020900100208C0D0020C40D00204A
:106E3000005C004094000020DB0D0020CE0D0020FF
:106E4000505C004004600040CC0D00202966000822
:106E50009D650008BF650008086000404C5C00406C
:106E60007047000030B404780D780023AC421BD189
:106E700010F8014F11F8015F5B1CAC4201BF5B1CB5
:106E800010F8014F11F8015FAC420DD110F8014F1D
:106E900011F8015F5B1CAC4201BF5B1C10F8014F95
:106EA00011F8015FAC42E3D0934205D0007820286E
:106EB00002DB09787F2902DB30BC00207047884262
:106EC00034BF4FF0FF30012030BC70472DE9F04F48
:106ED0000C468DB00FF240214CC9054609A80FF2AF
:106EE00044214CC00CC907A80FF240210CC00CC9AA
:106EF00005A80CC009A8FFF799FAC2B209A928464B
:106F0000FFF7B0FF28B90FF22C20FDF717F8FDF7B7
:106F10006FFE07A8FFF78AFAC2B207A92846FFF753
:106F2000A1FF78BB0FF22020FDF708F80FF2E41064
:106F30000088ADF8040000AA0020009001A92846AE
:106F400000F060F90026E8B114E0012E03D100F052
:106F500078F907460EE0022E03D100F072F9804660
:106F600008E0032E06D100F06CF90246414638468F
:106F7000FDF772FE00AA01A9002000F043F9761C7B
:106F80000028E2D105A8FFF751FAC2B205A92846A8
:106F9000FFF768FF78BB0FF2C410FCF7CFFF0FF2CA
:106FA00074100088ADF8040000AA0020009001A928
:106FB000284600F027F90026E8B114E0012E03D19D
:106FC00000F03FF907460EE0022E03D100F039F938
:106FD000804608E0032E06D100F033F90246414610
:106FE0003846FDF71FFE00AA01A9002000F00AF9AB
:106FF000761C0028E2D1002C00F07C803F48404EF7
:107000000068009500EB8001480004903D4D3E4F24
:10701000DFF8F880DFF8F890B9F80000B0F5FF7FEE
:10702000C4BF0020A9F80000009AB9F80000127847
:1070300000EB0901401C0A71A9F8000080B200EBC6
:107040000901CA780A2A50D101281EBF4FF0000A50
:1070500081F804A0002845D0B9F80000A0EB0A0B85
:10706000BBF1150FA8BF4FF0140B049902A8FEF74F
:1070700061FC00BF09F104000AEB00033888411CE1
:10708000B8F800005FFA8BF289B2FEF7CFFA462813
:1070900008D102A8FEF755FC0028EBD00FF2D00073
:1070A000FCF74CFF0FF2FC00FCF748FF09F104006D
:1070B0000AEB00032888411C30885FFA8BF289B202
:1070C000FEF7B4FA462808D102A8FEF73AFC0028D9
:1070D000ECD00FF2FC00FCF731FFB9F80000DA4405
:1070E0008245B9DB0020A9F800000098401C009000
:1070F000641E91D10DB0BDE8F08F00009C7B0008AC
:107100000A010020120100200E01002008010020C9
:10711000780900202000000073686F7774696D653E
:107120000000000073657474696D650073657464B4
:10713000617465006C657427732073686F772074C1
:10714000696D6521210A00006C65742773207365E1
:10715000742074696D6521210A0000006C65742734
:107160007320736574206461746521210A00000036
:1071700074696D65206F757420666F722077616920
:107180007469746E672066726F6D20636C69656EDA
:107190007420666F72207365727665722031200AE2
:1071A0000000000072756E6E696E67206F6E20437E
:1071B0004C454E542C2077616974696E6720666F68
:1071C00072205345525645525F32210A000000009A
:1071D00074696D65206F757420666F7220776169C0
:1071E0007469746E672066726F6D20636C69656E7A
:1071F0007420666F72207365727665722032200A81
:107200000000000070B505000E46144608BF256852
:10721000284600F01AF84519287820B90FF2200006
:107220002060002070BD3146284600F01FF840194C
:10723000017811B1002100F8011B2060284670BDC3
:1072400000000A22002100F0B2B830B4024604E087
:1072500014F8015BAB4203D1521C13781BB10C46EE
:107260002578002DF4D130BC101A704730B4024696
:1072700000E0521C13783BB10C462578002DF8D065
:1072800014F8015BAB42F8D130BC101A7047000013
:107290002DE9F04F85B080460D4616461F001CBFF5
:1072A00000203860444600E0641C2078A0F1090109
:1072B0000529F9D32028F7D02D2816BF2B2814F83C
:1072C000019B4FF02B09002E46D4012E44D0252ED1
:1072D00042DA012E0ADB102E04BF2078302802BFCC
:1072E000607840F0200078280ED10AE0207830281D
:1072F00018BF0A2608D1607840F02000782802D113
:107300001026A41C00E00826039400E0641C2078EA
:107310003028FBD002940FF29C004FF0000A8DF849
:10732000040009E09DF80410CDF800A0401A5FFAAF
:1073300080FB06FB0ABA641C2178A1F141001A28DF
:1073400038BF203132460FF26C00FFF78BF800286F
:10735000E8D10398A04204D10DB1C5F80080002007
:1073600022E00FF278010298715C201A401A13D4BF
:10737000012807DABAEB0B0004D30099B0FBF6F052
:10738000884209D000F03EF8222101600FB10120AF
:1073900038604FF0FF3A04E0B9F12D0F08BFCAF191
:1073A000000A05B12C60504605B0BDE8F08F0023FF
:1073B0006EE70000303132333435363738396162A8
:1073C000636465666768696A6B6C6D6E6F70717215
:1073D000737475767778797A0000000000002115C3
:1073E000110E0D0C0B0B0A0A0909090909080808F6
:1073F0000808080807070707070707070707070719
:1074000007000000014800F003B8000094010020CC
:107410007047000000B581B0FCF792FE7948006823
:107420000021817200F002F900F018F9002176487D
:10743000016001B000BD00B57248016881B0002252
:107440008A72724A0168D2794A7200210068C17258
:107450000020FEF743FE4FF400710020FEF745FECA
:1074600010210020FEF74DFE40210020FEF7D8FE3F
:1074700080210020FEF7C7FE0020FEF792FE644840
:1074800090F82C100020FEF7F5FE0020FEF779FEA4
:1074900000210120FEF729FEC0210120FEF7B3FEE6
:1074A00020210120FEF72DFE00210120FEF741FEE4
:1074B0004FF4C0610220FEF718FE4FF480710220E5
:1074C000FEF7A1FE00210220FEF733FE202102205C
:1074D000FEF717FE00210320FEF707FE4FF4887128
:1074E0000320FEF79DFE40210320FEF7C3FE4FF46C
:1074F00040510320FEF71DFE00210320FEF701FE90
:107500000020FFF740FC40480121016001B000BDB0
:107510004048807A10B13C480521016070473A48E4
:107520000421016070477047704700B581B0212881
:1075300009D134480068007800F07F00212817D175
:107540000FF2990112E0202812D12E493248096821
:10755000097801F07F01212904D020210170022047
:1075600001B000BD20220FF289010270080002D193
:10757000022001B000BD23480068816100224282E0
:1075800000208847002001B000BD1E490968097825
:1075900001F07F01212905D1022818BF222801D13D
:1075A00000207047022070471C49FFF72FB91C4983
:1075B000FFF72CB913490968C978052901DB0020B8
:1075C0007047184A02EBC101FFF720B909B9022838
:1075D00001DB0220704700207047000028B90948ED
:1075E000006808210182002070470F4870470000A2
:1075F00028B90448006808210182002070470A4821
:1076000070470000880D0020D40D00200879000884
:10761000940000206C0D0020DD0D00208001002072
:1076200088010020E80000207801002000B581B02A
:107630000120FCF72DFD0748074A012101600021C8
:10764000016041604FF4E05111800160002001B001
:1076500000BD0000405C0040AA0D00200448054A1F
:10766000002141604FF40641118001600020704705
:10767000405C0040AA0D002070B500F07F050C466C
:107680002846FEF714FE06462846FEF7E0FD0146B2
:1076900032462046FEF7FAFC304670BD2DE9F04F29
:1076A00081B00020ADF8000048F28004474DDFF8BB
:1076B0002081484EDFF82091DFF820A140F68F7B33
:1076C0004BF6BF7726E000BF56F82010ADF800104B
:1076D000BDF8001009040AD556F820100BEA010184
:1076E00046F8201008EB800050F8040C8047BDF8E5
:1076F000000000060ED599F8000056F8201048F654
:107700000F72114046F82010354901EB800050F807
:10771000040C8047706CAAF80000000453D5BAF836
:10772000000010F00F0089F80000CDD130682880EB
:10773000288800F030006880288800F440502880B5
:107740003068384080F4005080F0200020433060E2
:10775000BAF80000C006306806D448F60F71084039
:107760003060FFF760FA16E0ADF80000BDF80000E9
:10777000000506D530680BEA00003060FFF709FA13
:1077800009E0BDF800000004C4D530680BEA000031
:107790003060FFF784FA306829883840C90448BF50
:1077A00080F480502988890448BF80F4005069889B
:1077B000C90648BF80F010006988890648BF80F07C
:1077C00020002043306001B0BDE8F08FCC0D0020D8
:1077D0005C010020005C0040DC0D0020D20D002088
:1077E000400100203E483F4A83B0016841F4807167
:1077F00001608168114081603B4A0168114001606D
:10780000016821F480210160816821F47D0181609B
:107810000021C160019100910291016841F00101D4
:107820000160016801F002010091009919B9019904
:10783000B1F5A04FF5D10168490801F001010091AF
:107840000099012907D1816821F47D018160816857
:1078500041F4880181604FF40062D0F8001441F0D7
:107860000401C0F80014D0F8001441F00201C0F87F
:107870000014D0F8001441F00101C0F80014416A6E
:1078800041F08051416219490A604A68D206FCD42D
:10789000816881608168816081688160816821F48C
:1078A0007D018160816841F408018160016841F0D7
:1078B0008071016001688901FCD5816889088900AF
:1078C0008160816841F003018160816801F00C01F1
:1078D0000C29FAD14FF000610548016003B07047F0
:1078E000003802400CC0FF88FEFFFEEE0070004032
:1078F00008ED00E01201000202000040830440573E
:10790000000201020301000009024300020100C05D
:1079100032090400000102020100052400100105E3
:107920002401000104240202052406000107058247
:10793000030800FF09040100020A00000007050314
:107940000240000007058102400000000403090412
:107950002603530054004D006900630072006F005D
:1079600065006C0065006300740072006F006E00BB
:1079700069006300730000003203530054004D009F
:107980003300320020005600690072007400750058
:1079900061006C00200043004F004D0020005000AB
:1079A0006F007200740020002000000030B52548F0
:1079B000017881B0012925D123490A681AB900212B
:1079C0000170002414E021480368412A1D4603D3B6
:1079D00040244033403A02E01446D31800220360AA
:1079E0000A60ADB21A48A2B2C0212818FEF70AFBFD
:1079F000A1B20120FEF735FC01B0BDE83040012006
:107A0000FEF7AFBB01B030BD10B5124C21460320CC
:107A1000FFF732FE81B22046FCF729FDBDE8104099
:107A20000320FEF7AEBB0C480068052809D10B48BF
:107A300001684A1C0260012903D100210160FCF7A2
:107A400036BB70479801002074090020700900209F
:107A50009C0100202C0D0020D40D0020C80D00201A
:107A600070B5134D134C2868134E608060883188C0
:107A70000840800507D54FF6FF5028602078401C4D
:107A80002070FFF7D0FF608831880840000448BFAD
:107A9000FFF704FE608831880840400507D54FF69F
:107AA000FF302860BDE8704004484068004770BD62
:107AB000445C0040D00D0020AA0D0020940000205E
:107AC00010B5074979441831064C7C44163404E05B
:107AD0000A68081D511888470146A142F8D110BD17
:107AE000080000002800000013E0FFFF480C000021
:107AF000980100200000000063DEFFFF98010000F5
:107B000048010000000000200000000000F00BF819
:107B1000002801D0FFF7D4FF0020C046C046FBF785
:107B200017FB00F002F80120704700F001B80000D8
:107B30000746384600F002F8FBE7000080B5C04673
:107B4000C046024A11001820ABBEFBE72600020027
:107B50007047FEE7FEE7FEE7FEE7704770477047B5
:107B6000FFF77EBFFCF747BD38B504460D462846F3
:107B7000FCF72AFBA84218BF0024204632BD0000B3
:107B80000148804701480047E5770008917B0008DD
:107B9000C046C046C046C046FFF7B8FFE803000035
:107BA000FFF7FEBFFFF7FEBFFFF7FEBFFFF7FEBF09
:107BB000FFF7FEBFFFF7FEBFFFF7FEBFFFF7FEBFF9
:107BC000FFF7FEBFFFF7FEBFFFF7FEBFFFF7FEBFE9
:107BD000FFF7FEBFFFF7FEBFFFF7FEBFFFF7FEBFD9
:107BE000FFF7FEBFFFF7FEBFFFF7FEBFFFF7FEBFC9
:107BF000FFF7FEBFFFF7FEBFFFF7FEBFFFF7FEBFB9
:107C0000FFF7FEBFFFF7FEBFFFF7FEBFFFF7FEBFA8
:107C1000FFF7FEBFFFF7FEBFFFF7FEBFFFF7FEBF98
:107C2000FFF7FEBFFFF7FEBFFFF7FEBFFFF7FEBF88
:107C3000FFF7FEBFFFF7FEBFFFF7FEBFFFF7FEBF78
:107C4000FFF7FEBFFFF7FEBF0000000000000505C4
:107C50000505050500000000000000000038004098
:107C600000380040000402400004024000080240C6
:107C70000008024000040240000402400F000F0010
:107C800000040240000402400E000E000004024006
:107C9000000402400D000D000008024000040240F4
:107CA00000000000000000000000000000000000D4
:107CB00000000000000000000000000000000000C4
:107CC00000000000000000000000000000000000B4
:107CD0000000000000000000000000001574000813
:107CE0003774000827750008297500082B750008EF
:107CF0008B750008CD750008A9750008AF750008E0
:107D0000B57500080000000040000000616E00082A
:107D100011750008616E0008616E0008616E000850
:107D2000616E0008616E0008616E00081F75000832
:107D30004C7900080400000050790008260000007B
:107D40007879000832000000240100201A000000A9
:107D50000000000000000000000000000200000021
:107D60000200000000000000000000001A035300A1
:107D700054004D003300320031003000000000009C
:107D80000000000000000000AD790008616E0008EE
:107D9000616E0008616E0008616E0008616E000887
:107DA000616E0008616E0008616E0008097A0008C3
:107DB000616E0008616E0008616E0008616E000867
:107DC00000C2010000000800F47800081200000062
:107DD00008790008430000000401000000000000D2
:0400000508007B91E3
:00000001FF
