:020000040800F2
:10300000D8190020397C0008097C00080B7C0008D6
:103010000D7C00080F7C0008117C000800000000F7
:10302000000000000000000000000000137C000809
:10303000157C000800000000177C0008214F0008E4
:10304000597C00085D7C0008617C0008657C0008F4
:10305000697C00086D7C0008717C0008757C0008A4
:10306000797C00087D7C0008817C0008857C000854
:10307000897C00088D7C0008917C0008957C000804
:10308000997C00089D7C0008A17C0008A57C0008B4
:10309000197C0008A97C0008AD7C0008B17C000800
:1030A000B57C0008B97C0008BD7C0008C17C000824
:1030B000C57C0008A94B0008C97C0008CD7C00082D
:1030C000D17C0008D57C0008D97C0008DD7C000894
:1030D000E17C0008E57C0008E97C0008ED7C000844
:1030E0001D7C0008F17C0008F57C0008F97C0008D4
:1030F000FD7C000810B5DFF87C4820B9206801216C
:103100000182002010BDDFF8700800680068804769
:1031100020680A3010BD10B5DFF8584820B9206883
:1031200001210182002010BDDFF84C080068806892
:10313000804720680C3010BD10B5DFF83848DFF844
:10314000402820681268C1784079926990472168C8
:103150008A7A9AB1002804BF087900280ED18878AD
:1031600060B9DFF814080068C068804720684179BA
:10317000C1722068C1780173002010BD022010BD0B
:1031800010B5DFF8F017096818B90220088200208E
:1031900010BD0020DFF8EC4720807F220878104225
:1031A00015D1487A0021820648BF41F00201217002
:1031B0004006217854BF01F0FE0041F0010020706C
:1031C000DFF8B407006800698047204610BD00F0B2
:1031D0007F02012AF9D000F07F000228D7D1487978
:1031E000DFF8A42700F00F01000652F8210007D5F0
:1031F00000F030001028E3D1002040F00100DEE7AD
:1032000000F44050B0F5805FDAD1002040F00100BA
:10321000D5E7F0B5DFF85C07006881B0017811F000
:103220007F0106D1417A01F0DF014172002001B037
:10323000F0BD022901BF418800290179002951D13F
:103240004179DFF8444721F080050A0654F825202B
:103250004CBF02F0300202F44052DFF820371B78F6
:103260009D423FD2002A1CBF807A00283AD008062F
:1032700054F825000BD500F0300010282AD128463C
:1032800000F035FC3021284600F0C1FB22E000F4BC
:103290004050B0F5805F1DD148F280064BF68F7725
:1032A0006DB9DFF8E80690F82C10002000F068FCFB
:1032B0002068384080F44050304320600AE02846BF
:1032C00000F003FC54F82500384080F440503043AF
:1032D00044F82500DFF8A006006840698047002018
:1032E00001B0F0BD022001B0F0BD30B5DFF88406BA
:1032F000DFF89416026881B0537923F080001C0631
:1033000051F820404CBF04F0300404F44054DFF87E
:103310006C562D78A84206D2558825B9002C1CBFC2
:10332000927A002A02D1022001B030BD1B0651F86A
:10333000203048F2800205D548F6BF74234083F060
:10334000100304E04BF68F74234083F480531A4338
:1033500041F82020DFF820060068806980470020BF
:1033600001B030BDDFF80C261268538A20B9888876
:10337000C01A1082002070470868181870472DE99D
:10338000F041DFF8F045206800F11006318800298F
:1033900004BF007A04281BD1DFF8F415DFF8F40528
:1033A0000A78012A11D1DFF8F025DFF8F03512682C
:1033B00092B2002543F8125030220280002008709B
:1033C000042520680572BDE8F0810725102127E05B
:1033D000B7888F4205D30425B94288BF39460F46C6
:1033E00000E00225B168384688478046002000F09A
:1033F000AAFB01463A46404600F00CFC3946002044
:1034000000F0B5FB3088C01B308030217088381840
:103410007080DFF8800501804FF44051DFF88005AF
:10342000018020680572BDE8F08130B5DFF84445C1
:10343000206881B0017845787F22114250D1092D52
:1034400023D1DFF83825C17852788A425ED382785A
:10345000002A04BF8288002A58D18172DFF818053B
:10346000006840688047DFF83015DFF830250968CC
:1034700089B2002342F811300620DFF818153022F7
:103480000A802168087201B030BD052D0BD1C178CA
:10349000802947DA8178002901BF81880029807A54
:1034A00000283FD1DFE7032D0FD1C178012904BFE8
:1034B000818800292AD1417A41F020014172DFF848
:1034C000B8040068C0698047CDE7012D04BFC1780A
:1034D00001291BD18188C9B9407A80060DD415E035
:1034E00001F07F00012804D10B2D0FD1FFF724FE3E
:1034F0000AE002280AD1012D02D1FFF78AFE03E07B
:10350000032D03D1FFF7F1FE0028ACD0DFF87014D3
:103510000968496928468847032808BF0920B0D0B0
:103520000028A0D021680820087201B030BD10B575
:10353000DFF84044206882B04178062919D101782B
:103540007F22114235D18078012804D1DFF8300480
:103550000068C16980E0022804D1DFF82404006813
:10356000016A79E0032824D1DFF814040068416A75
:1035700072E000294AD14188002904BFC18802298C
:1035800017D10179A9B901787F22114204BF82883D
:10359000002A38D001F07F02012A18D1DFF8E02399
:1035A0004079126892690021904710B92068807AAA
:1035B00048BBDFF8CC132068096840780969884760
:1035C000032852D120680921017202B010BD01F018
:1035D0007F010229EDD14079DFF8AC3300F00F0113
:1035E00000F07002000653F821004CBF00F03000DC
:1035F00000F44050DFF884331B789942D9D2002A76
:10360000D7D10028D5D0DFF89C1325E0082906D1B2
:1036100000787F210842CCD1DFF88C131CE00A2906
:1036200002BF017801F07F010129C2D1817A00290E
:10363000BFD04188002901BF01790029C188012933
:10364000B7D1DFF83C234079126892690021904796
:103650000028AED1DFF854130800AAD02068002259
:103660004282816100208847002021680B8A1A4627
:103670004FF6FF74A24208BF092004D0022818BFE9
:10368000002B03D10820087202B010BD0878000694
:1036900023D5C8880090009C9C4202D200980882E2
:1036A00012E0834210D2B648006890F82C008342A2
:1036B00002D2B748002206E092FBF0F300FB132091
:1036C00010B9B34801220270AD48006890F82C0090
:1036D000888202B0BDE8104051E6032008724FF422
:1036E0004051AF48018002B010BD30B5AA48B04982
:1036F000A04C81B0006880B231F8100021680A7ACD
:10370000400000F1804000F5C040092A14D010F8B4
:10371000012B0A70216810F8012B4A70851C35F8BE
:10372000040B00F061FA21684880288800F05CFAF8
:1037300021688880A888C8800121206801722068DB
:10374000C08810B9FFF771FE01E0FFF7F0FE8F4867
:1037500090F82C10002000F013FA2068017A082954
:1037600006D18F494FF480520A80102289490A807D
:10377000007A09280CBF0120002001B030BD10B52F
:103780007C4C2068017A022918BF042904D1FFF774
:10379000F6FD2068007A14E0062911D14178052948
:1037A00002BF01787F22114206D1C07800F097F85D
:1037B00071480068006A80477148006880688047E7
:1037C000082021680872714890F82C10002000F041
:1037D000D7F92068017A082906D171494FF480523F
:1037E0000A8010226B490A80007A092801D1012041
:1037F00010BD002010BDF0B55E4C206881B0017A8C
:10380000022918BF04294FD0032918BF052945D123
:1038100000F11005A9682E88080018BF002E14D0EA
:10382000A888864288BF06463046884707462888CB
:10383000801B2880688830186880002000F08DF98F
:1038400001463246384600F029FA288850B15448DB
:103850004FF4405101800020002100F088F94D48CC
:10386000302101802888AA882168904228BF03203F
:1038700001D220B1052008722068007A15E00620E8
:103880000872002244484549006880B241F810207F
:103890003021404801802068007A06E0072903D1E2
:1038A00037480068C0688047082021680872374898
:1038B00090F82C10002000F063F92068017A0829A4
:1038C00006D137494FF480520A80102231490A80CC
:1038D000007A09280CBF0120002001B0F0BDF0B42F
:1038E00026490D780024002D3DD015F0030648F23E
:1038F000800148F68F72244B0DD0E7B253F827C0F1
:1039000002EA0C0C47EA0C0C41EA0C0C43F827C005
:10391000641C761EF1D1AD0825D0E6B253F82670AE
:10392000174037430F4343F82670641CE6B253F840
:103930002670174037430F4343F82670641CE6B2E5
:1039400053F82670174037430F4343F82670641C22
:10395000E6B253F82670174037430F4343F82670FA
:10396000641C6D1ED9D1134940F080000860F0BC82
:1039700070470000800D0020880D00208801002085
:10398000840D0020BC0D0020005C0040940000204D
:10399000D30D0020C60D0020505C004004600040A4
:1039A000C40D002081310008F530000817310008EF
:1039B000086000404C5C0040704710B450F8041B95
:1039C00081B102681218001D50F8043BDC0744BFA7
:1039D000A9F10104E31852F8044B43F8044B091F02
:1039E000F9D1EBE710BC70474FF6F8710840DFF8EB
:1039F000E01108607047DFF8DC2152F8203048F60B
:103A00008F1C0CEA0303194342F820107047DFF8BB
:103A1000C42152F8203048F6BF7C0CEA03035FEA69
:103A2000C16C48BF83F01003890648BF83F02003B0
:103A300043F4004141F0800142F820107047DFF864
:103A4000942152F820304BF68F7C0CEA03035FEA96
:103A5000C14C48BF83F48053890448BF83F40053AA
:103A600043F4004141F0800142F820107047DFF834
:103A7000641151F8202048F6BF731A4082F03002DA
:103A800042F4004242F0800241F820207047DFF803
:103A9000441151F820204BF68F731A4082F44052A3
:103AA00042F4004242F0800241F820207047DFF8E3
:103AB000241151F8202048F68F631A4042F4004246
:103AC00042F0800241F820207047DFF8081151F8D9
:103AD000202052040AD551F8202048F68F731A404E
:103AE00042F4404242F0800241F820207047DFF863
:103AF000E41051F8202052060AD551F8202048F64B
:103B00008F731A4042F4004242F0C00241F8202074
:103B10007047DFF8BC20126892B202EBC000DFF8F9
:103B2000B8204908490042F810107047DFF8A0207B
:103B3000126892B202EBC000DFF8A02049084900E9
:103B400042F8101070472249096889B201EBC000A1
:103B5000214951F8100080B270471D49096889B2A7
:103B600001EBC0001D4951F8100080B27047184A9F
:103B7000126892B202EBC000194A42F81010704766
:103B8000134A126892B202EBC000164A02EB4000E0
:103B90003F290ADB4A091F23194208BF521E12049B
:103BA000910941F40041016070474A08C90748BFC4
:103BB000521C12049109016070470549096889B2D5
:103BC00001EBC000074951F810008005800D7047D7
:103BD000505C0040005C0040006000400860004015
:103BE000046000400C6000400106090C41EA10200E
:103BF000704750F8041B61B150F8042BD30744BF41
:103C0000A9F101039A18002342F8043B091FFAD1D5
:103C1000EFE77047490001F18043511C03F5C043B1
:103C2000491000D1704730B411F0030200F00B804E
:103C300010F8014B10F8015B44EA052423F8024B0D
:103C40009B1C521EF4D1890800F0268010F8012B2D
:103C500010F8014B42EA042223F8022B9A1C10F8B8
:103C6000013B10F8014B43EA042322F8023B921C6B
:103C700010F8013B10F8014B43EA042322F8023B01
:103C8000921C10F8013B10F8014B43EA042322F880
:103C9000023B931C491ED9D130BC7047490001F149
:103CA0008041521C01F5C04152101DD012F0030397
:103CB00005D05B1E51F804CB20F802CBF9D1920855
:103CC00000F0128051F8043B20F8023B521E51F8DC
:103CD000043B20F8023B51F8043B20F8023B51F82A
:103CE000043B20F8023BEDD170470268531C03608F
:103CF0001170704700B581B000F078FB00A800F0AB
:103D000007FC9DF800100FF2544000F09FFE0520C4
:103D100000F015FC022000F052FC002000F022FD13
:103D2000072000F0DFFC402000F05CFD012000F0E7
:103D300077FD102000F0C2FD052000F0CDFD95209C
:103D400000F09FFD00F0F8FE00F088FD01B000BD1E
:103D50002DE9F04F8BB04FF440514FF0006001F06F
:103D600044F801F057F800F083FE00F096FE0020C2
:103D700001F0B7F8012001F0C5F8012001F0B7F813
:103D8000002001F0B1F84FF4C06000F0FBFF01F03B
:103D9000CCF84FF4FA7001F0DEF8DFF83C0301F0E4
:103DA000E3F86424A8A5284600F050FE282001F07E
:103DB000D2F8641EF7D101F0E7F8002001F084FC8E
:103DC00043F2F22188421BD00FF2AC3000F03EFEED
:103DD00001F0A2FCDFF80413DFF804030968416076
:103DE000DFF80013096881600021016001F098FA92
:103DF00018B90FF2B03000F029FE01F003FD26E003
:103E00005B2001F001FE10B10FF2D83005E05A201E
:103E100001F0FAFD18B10FF2F03000F017FE0FF2CA
:103E20000C4000F013FE01214FF0805001F0E3FD43
:103E3000012001F053F801F0ACFA4FF4807001F06A
:103E400050FC4FF4003001F030FE01F08DFC0120F9
:103E500001F0F4FE01F0B7FF0FF2F4310CC900A835
:103E600006210CC000AA002002F0D2FA18B10FF20D
:103E7000E83000F0EBFD02F044F918B10FF2F43035
:103E800000F0E4FD00AB0DF1020201A9012002F0F7
:103E900054F918B10FF2F03000F0D8FD0120039072
:103EA0000723DFF844020290002200200190002145
:103EB00010200090012002F0FEFA0FF2E03000F036
:103EC000C5FDFFF717FF0FF2EC3000F0BFFD00F06B
:103ED000FEFF01460FF2F83000F0B8FD02F024FBBF
:103EE0000421012002F0C4FADFF80042DFF800529A
:103EF0000FF2A04B0FF288470FF204490FF21C4A51
:103F0000DFF8F0610FF2CC1801F0C4F87068800798
:103F100025D5BAE80E1007A8AAF1100AA0E80E10DD
:103F20000021002001F0C8F9484600F08FFD002074
:103F3000069005900490039007A802900D20019030
:103F40000020009003460246014602F02BF901468C
:103F5000404600F07BFD706820F00200706005A80C
:103F6000B7E80E50A0E80E50143F01A800F0C2FCC4
:103F70000028C9D001A800F02DFDBDF90800BDF949
:103F80000630BDF904200090594605A802F09AFBBE
:103F90005948006800EB8001490003A802F0ACFB1F
:103FA00005A80090142329882088002202F0F3F944
:103FB000642804D103A802F0A6FB0028F0D0C82092
:103FC00000F0C9FFA0E730B5044681B02078AA28E8
:103FD0000BD148480180C168491CC160416841F06B
:103FE00001014160012101610AE0CC2808D141486A
:103FF0004180C168491CC160816841F00101816054
:104000000FF2283000F022FD0FF238356179284692
:1040100000F01CFD2179284600F018FDE1782846C3
:1040200000F014FDA178284600F010FD61782846C4
:1040300000F00CFD22782F48C1680FF2103001B05B
:10404000BDE8304000F002BD2E00000010B5294C44
:10405000E068401EE06000202061606820F0010000
:104060006060A06820F00100A0600FF2043000F052
:10407000EDFC606840F002006060A06840F0020063
:10408000A060606820F004006060A06820F0040078
:10409000A060606820F480706060606820F4007048
:1040A0006060606820F480606060606820F4006098
:1040B0006060A06820F48070A060A06820F40070A8
:1040C000A060A06820F48060A060A06820F4006078
:1040D000A06010BD25640A0031700008AC0D0020FE
:1040E0008C0D0020B00D002040E20100980D002052
:1040F0009A0D00205C010020547C0008411C0078CF
:1041000004282AD10878052804D03E2803D0FF28A7
:104110000AD070479AE7881C017801291DD1401CFC
:10412000B0F80110401D4EE7881C0188B1F5006F02
:1041300009D040F6014291420FD1801C421D017905
:10414000408802F041BAB0F80900002814BF0FF20D
:1041500054200FF2742000F079BC70474C49535F33
:1041600057484F5F414D5F495F414444523A2025D3
:104170003032580A000000004E6F206261636B7598
:104180007020726567697374657220666F756E64FE
:104190002C2072652D636F6E66696720525443212F
:1041A0000A0000000A0D20202020202020202F219E
:1041B0005C2A2A2A2A2A20525443205072657363AB
:1041C000616C657220436F6E666967206661696C19
:1041D0006564202A2A2A2A2A2A2A2A2F215C200AD0
:1041E0000D0000000D0A20506F776572204F6E2081
:1041F0005265736574206F636375727265642E2EE9
:104200002E2E0A0D000000000D0A204578746572FC
:104210006E616C205265736574206F636375727292
:1042200065642E2E2E2E0A0D000000000A0D204E71
:104230006F206E65656420746F20636F6E666967BA
:10424000757265205254432E2E2E2E0A0D0000004A
:10425000AA0000E18002000053657474696E672053
:1042600042445F41444452206661696C65642E0A91
:1042700000000000474154545F496E697420666134
:10428000696C65642E0A00004741505F496E69748D
:10429000206661696C65642E0A000000424C45206E
:1042A000537461636B20496E697469616C697A65E6
:1042B000642E0A00416363656C65726F6D65746599
:1042C0007220496E697469616C697A65642E0A00AE
:1042D0005345525645523A20424C4520537461632F
:1042E0006B20496E697469616C697A656420287015
:1042F0006C6174666F726D3A202564290A000000B3
:1043000047656E6572616C20446973636F76657290
:1043100061626C65204D6F646520000009426C7518
:10432000654E52475F43686174000000436F6E6ED4
:10433000656374656420746F206465766963653AAB
:1043400000000000253032582D0000000A746F7400
:104350006F616C20636F6E6E656374696F6E20258C
:10436000642C20616464723A20253032580A0000BF
:10437000446973636F6E6E65637465640A00000060
:10438000000000000000000000000000000000002D
:1043900000000000312025356420253564202535B6
:1043A000640A00003E20436F6E6E656374696F6E31
:1043B00020706172616D65746572732072656A65E3
:1043C000637465642E0A00003E20436F6E6E656361
:1043D00074696F6E20706172616D657465727320AF
:1043E00061636365707465642E0A000030B587B040
:1043F0000121012001F0EDFA01214FF4805001F07C
:10440000F1FADFF8144405221146204602F0C8F9FB
:1044100005220621204602F0C3F905220721204685
:1044200002F0BEF9E020009000A902208DF80400FF
:104430000020ADF8060003208DF80500204602F0AC
:104440006FF90020ADF808004FF48270ADF80A0053
:1044500000200390ADF810004FF40070ADF812008A
:104460000820ADF814000020ADF816000720ADF8C4
:10447000180002A9DFF8A453284602F0A5F901218B
:10448000284602F0BDF91020009000A901208DF807
:1044900004000020ADF8060003208DF8050020463A
:1044A00002F03EF91021204602F071F907B030BD4C
:1044B00030B581B00446DFF864530221284602F08B
:1044C000ADF90028F9D02146284602F0A5F90121CE
:1044D000284602F0A3F90028F9D0284602F09AF9FC
:1044E000C0B201B030BD70B504460D46DFF8286398
:1044F0001021304602F04DF92046FFF7D9FF28463B
:10450000FFF7D6FF1021304602F041F9012070BDBF
:1045100030B50446DFF8005381B01021284602F080
:1045200038F98F20FFF7C4FF0020FFF7C1FF20708C
:104530001021284602F02BF9012001B030BD70B5E2
:104540000446DFF8D4521021284602F022F9DFF8A1
:10455000CC620221304602F061F90028F9D0A02196
:10456000304602F059F90121304602F057F900288F
:10457000F9D0304602F04EF90221304602F04EF9F1
:104580000028F9D00021304602F046F901213046DA
:1045900002F044F90028F9D0304602F03BF9064613
:1045A0001021284602F0F3F806F00F0040EA04114B
:1045B000C9B22020FFF797FF00B1012070BDF0B510
:1045C0000446DFF8547281B01021384602F0E1F859
:1045D000DFF848620221304602F020F90028F9D0C5
:1045E000A021304602F018F90121304602F016F9F8
:1045F0000028F9D0304602F00DF90221304602F0D1
:104600000DF90028F9D00021304602F005F901210A
:10461000304602F003F90028F9D0304602F0FAF8EB
:1046200005461021384602F0B2F81021384602F053
:10463000B0F80221304602F0F1F80028F9D0A321A9
:10464000304602F0E9F80121304602F0E7F8002890
:10465000F9D0304602F0DEF80221304602F0DEF8F2
:104660000028F9D00021304602F0D6F8012130466A
:1046700002F0D4F80028F9D0304602F0CBF8064614
:104680001021384602F083F8F020054205D1DFF80A
:10469000B403007800F0F00005432CB1022C0FD0D9
:1046A00013D3002001B0F0BDDFF89803057005F0CA
:1046B0000F05E9B22020FFF716FF58B901B0F0BD91
:1046C00005F0F70546F00806F3E745F0080506F0A3
:1046D000F706EEE7F1B22320FFF705FF00B1012056
:1046E00001B0F0BD70B50446DFF82C51102128460A
:1046F00002F04FF8DFF848630221304602F08EF8EE
:104700000028F9D0A021304602F086F80121304679
:1047100002F084F80028F9D0304602F07BF802213C
:10472000304602F07BF80028F9D00021304602F034
:1047300073F80121304602F071F80028F9D03046B4
:1047400002F068F806461021284602F020F806F02C
:10475000F80004F0070101432020FFF7C4FE00B178
:10476000012070BD70B50446DFF8AC50102128461A
:1047700002F00FF8DFF8C8620221304602F04EF86E
:104780000028F9D0A321304602F046F80121304636
:1047900002F044F80028F9D0304602F03BF802213C
:1047A000304602F03BF80028F9D00021304602F0F4
:1047B00033F80121304602F031F80028F9D03046B4
:1047C00002F028F806461021284601F0E0FF06F026
:1047D000CF0040EA0411C9B22320FFF784FE00B1E4
:1047E000012070BD30B504460B4D81B01021284624
:1047F00001F0CFFFA520FFF75BFE0020FFF758FE7A
:104800001021284601F0C3FF21462520FFF76BFE4B
:1048100000B1012001B030BD000002400030014075
:1048200070B50446DFF820521021284601F0B1FF90
:10483000A420FFF73DFE0020FFF73AFE06461021B8
:10484000284601F0A4FF06F0F70040EAC401C9B20F
:104850002420FFF748FE00B1012070BD10B5DFF83D
:10486000E8411021204601F094FFB120FFF720FE1F
:104870000020FFF71DFE1021204601F088FF0120D7
:1048800010BD70B50446DFF8C0511021284601F074
:1048900080FFB020FFF70CFE0020FFF709FE064660
:1048A0001021284601F073FF06F0400044EA0001A1
:1048B0003020FFF718FE00B1012070BD00B581B0B7
:1048C0008028A8BF002005DA01463220FFF70BFE42
:1048D00000B1012001B000BD00B581B08028A8BFA3
:1048E000002005DA01463320FFF7FDFD00B101206D
:1048F00001B000BD30B50446534D81B010212846AB
:1049000001F047FFA820FFF7D3FD0020FFF7D0FDFF
:104910008DF800001021284601F039FF10212846AB
:1049200001F037FFA920FFF7C3FD0020FFF7C0FD0E
:104930008DF801001021284601F029FFBDF8000084
:1049400020801021284601F024FFAA20FFF7B0FDA7
:104950000020FFF7ADFD8DF800001021284601F082
:1049600016FF1021284601F014FFAB20FFF7A0FD31
:104970000020FFF79DFD8DF801001021284601F071
:1049800006FFBDF8000060801021284601F001FFFD
:10499000AC20FFF78DFD0020FFF78AFD8DF80000A9
:1049A0001021284601F0F3FE1021284601F0F1FE07
:1049B000AD20FFF77DFD0020FFF77AFD8DF80100A7
:1049C0001021284601F0E3FEBDF80000A08001B0F0
:1049D000012030BDF0B504461B4E81B01021304699
:1049E00001F0D7FEA320FFF763FD0020FFF760FD75
:1049F00007461021304601F0CAFE17F0300007D0FC
:104A0000102807D0202807D0302808BF0C2504E044
:104A1000012502E0022500E00425B4F90000EDB212
:104A2000001168432080B4F90200001168436080DF
:104A3000B4F9040000116843A08001B00120F0BD6A
:104A400000300140D10D0020000002400EB400B53E
:104A500082B003A90091024600AB012103487844CB
:104A60000A3001F0E3FE06BC5DF810FBB531000032
:104A700000B581B001213F2000F0ABFF01210120F2
:104A800000F0B0FFDFF8C40203210160DFF8C012BC
:104A900081600021416001B000BD70B582B003208B
:104AA0008DF804004FF6FF7400208DF80700009485
:104AB0004FF0FF30DFF89C62DFF89C52C6F800042C
:104AC000C5F80004C5F8000800A940F2FF70009086
:104AD000DFF8880201F024FE4FF6E770009000A98D
:104AE000DFF87C0201F01CFE009400A9304601F0C2
:104AF00017FE009400A9284601F012FE02B070BD16
:104B000001214FF4000000F076BF00B581B04FF4F2
:104B1000C06000F037F914208DF8000001208DF8F6
:104B2000010000208DF8020001208DF8030000A88C
:104B300000F02DF901B000BD10B586B000208DF851
:104B400010008DF813004FF40064039403A9DFF8FC
:104B5000100201F0E5FD0B21012002F0C1F8002058
:104B60008DF80800019408208DF8090001208DF8C7
:104B70000A0001A800F062FF204600F093FF282001
:104B80008DF8000001208DF8010000208DF8020052
:104B900001208DF8030000A800F0F9F806B010BD60
:104BA00000B1012002F092B800B581B001216D483A
:104BB00002F0ACF86C480121017001B000BD6B48F7
:104BC0000178012900D1704710B5D0F8D817B1F598
:104BD000FA6F04BF0021C0F8D817D0F8D417D0F866
:104BE000D8278A4202D10021017010BDD0F8D82701
:104BF000914239BFD0F8D817C1F5FA61D0F8D8275B
:104C0000891AD0F8D837412907D3D0F8D8274032AD
:104C10004024C0F8D827403906E0D0F8D8270C4601
:104C20008918C0F8D8170021C0F8DC179BB2012101
:104C300001701818A2B2C021001DFEF7EBFFA1B24F
:104C40000120FEF794FFBDE810400120FEF70FBFE2
:104C50004748416802684069821800D1704730B403
:104C600044480023841C150F0A2D34BF30353735D6
:104C700025701201002565705B1C150F0A2D34BFCD
:104C800030353735A57012010025E5705B1C241DF9
:104C9000082BE8DB0A0F0A2A34BF3032373282741D
:104CA00009010A0FC5740A2A34BF3032373202753F
:104CB00009010A0F45750A2A34BF3032373209011B
:104CC000090F8275C5750A2934BF303137314576F1
:104CD000017630BC7047000030B42449D1F8D43795
:104CE0004FF6FF72D1F8D847641EA34206D0B3F541
:104CF000FA6F04BFD1F8D847002C03D11446621EC6
:104D0000012CEFDA9AB90FF270020DE0D1F8D43726
:104D10005D185B1C2C71C1F8D437B3F5FA6F04BF72
:104D20000023C1F8D437521C1478002CEED1D1F8EE
:104D3000D4275318521C1871C1F8D427B2F5FA6F52
:104D400004BF0022C1F8D42730BC70472838024085
:104D50000100001000080240000C02400000024068
:104D60000004024000040040D00D0020900100200B
:104D70005000F81F080100200A4F564552464C4F7C
:104D8000570A00001C4908431C490860704770B46A
:104D90000378C4781A460121F4B1184B1B68447893
:104DA00003F4E063C3F5E0631B0AC3F10405AC4000
:104DB00085780F2626FA03F32B402343104C1B0162
:104DC000135500780F4B420900F01F0001FA00F064
:104DD00043F8220070BC704750090B4A03F01F03D0
:104DE000994042F8201070BC7047084A11400843AF
:104DF00007490860704700000000FA050CED00E06C
:104E000000E400E000E100E080E100E080FFFF1F3F
:104E100008ED00E010B584B00121082000F0D9FDB4
:104E200001208DF8080000208DF80B0003208DF87C
:104E3000090000208DF80A000420019001A9254CEA
:104E4000204601F06DFCA08A40F00400A0825FF0D3
:104E500000008DF800009DF8000008BB9DF80000E0
:104E6000401C8DF800009DF80000C8B99DF80000B6
:104E7000401C8DF800009DF8000088B99DF80000E6
:104E8000401C8DF800009DF80000002808D19DF816
:104E90000000401C8DF800009DF800000028DDD0C7
:104EA000208A0D490006800E00F0010080F001000C
:104EB000087001A900208DF80800204601F030FCA0
:104EC000A08A4FF6FB710840A08204B010BD0248D2
:104ED00000787047000C0240D20D002005490860A0
:104EE00070470549086070470449086070470449E5
:104EF0000860704720000E4210000E4228000E424B
:104F000024000E42DFF814100028086814BF40F097
:104F1000080020F00800086070470000003C0240D4
:104F200010480168491C0160704700B581B072B635
:104F3000042001F0EFFE47F6FF4001F0F5FE0120EE
:104F400001F008FF012001F0F2FE62B601B000BDE1
:104F500004480068704703490A680B689B1A83423B
:104F6000FBD37047B40D002010B50446FFF7C8FD11
:104F7000FFF7CBFD01F0FCFE0248046010BD014AC2
:104F800012681047B80D002010B5C84C04F110008D
:104F900001F0FEFE04F1180001F0FAFE04F1200118
:104FA00004F1100001F005FF04F1700104F110009C
:104FB00001F0FFFE04F1C00104F1100001F0F9FE60
:104FC00004F5887104F1100001F0F3FE04F5B071EE
:104FD00004F11000BDE8104001F0EBBE70B5B34C19
:104FE00000F10803A360002163782BB9A38003E0DC
:104FF000042B4ED103236370A388472B49DAA3887F
:105000005D1CA580A56866785B5D002EF0D0032E40
:1050100008BF0623EFD0042E08BF0523EBD0052ED2
:1050200008BF0723E7D0072E08BF0823E3D0082EC8
:1050300004D1B5F8032000210923DCE7062E03D1B3
:105040001A4600210923D6E7092ED5D1491C89B279
:1050500092B29142D0D30021617000F108014A1C44
:105060000978042908D111780E2918BF0F2903D017
:10507000014604F1180002E0014604F1100001F0BD
:1050800098FEE06828B1A188A068E268BDE8704099
:10509000104770BD10B594B00020009000F0B9FE2C
:1050A000824C04F1180001F076FEB8B900A904F1B1
:1050B000180001F085FE00F0B9FE00980830FFF7F7
:1050C0001DF800F0A6FE009904F1100001F071FE39
:1050D00004F1180001F05FFE0028E7D0207848B9FD
:1050E0000DE0472101A800F0B3FEC0B210B101A845
:1050F000FFF704F800F07EFE0028F2D1207000F0E7
:1051000095FE14B010BD10B582B00020009000F0E4
:105110009AFE664C06E0009904F1100001F042FE90
:1051200000F091FE00F081FDC8B104F1100001F023
:1051300032FE80B900A904F1100001F041FE009890
:105140004721083000F084FEC0B20028E3D0009868
:10515000FFF744FFE4E70120207000F074FE02B086
:1051600010BD00B581B000F054FE5048012181709F
:1051700001B000BD2DE9F043044685B06088218868
:105180004A4F8005800D40EA8128494800680A217D
:10519000B0FBF1F60020B87003224648F860608842
:1051A0002188A568D4F80C908DF806908005800DB4
:1051B00040EA8120ADF8040001A901208DF800002B
:1051C0000DF1010001F00BFE5FFA89F3042229467C
:1051D00000A801F015FE0A256D1E0EB9012601E09A
:1051E000012E0ADB314602A801F086FA02A801F07E
:1051F0008AFA20BBB8780028F8D0B868024611783F
:10520000042916D1C11CB8885278C01E0E2A26D097
:105210000F2A04D0102A12D03E2A2FD009E04A8843
:105220001FFA88F8424504D162680F2A10D0087826
:1052300028B90020B87000F0F9FD002DCCD1002075
:10524000F86000F0F3FD4FF0FF3005B0BDE8F083EB
:1052500062699042C8BF1046606102461AE01FFAB8
:1052600088F8B1F801204245E3D16269C91CC01E2B
:105270009042C8BF1046606102460BE00A7863683E
:105280009A42D6D16269401E9042C8BF1046606102
:105290000246491C206901F0A2FD0020F86000F0E0
:1052A000C5FD002005B0BDE8F0830000740B0020B0
:1052B000547C00086351000830B58FB004460D4699
:1052C0002022002107A801F090FD8DF81C40202C21
:1052D000A8BF1F24224629460DF11D0001F07FFDC5
:1052E0001822002101A801F080FD0820ADF804007B
:1052F0000920ADF8060007A803902020049000A81C
:1053000005900120069001A8FFF734FF002802D481
:105310009DF8000008B14FF0FF300FB030BD000025
:10532000DFF8DC2382B0CA23D36100215323D36189
:10533000009153685B0613D44FF0FF3353605368FA
:10534000DDF800C00CF1010CCDF800C0DDF800C0A4
:10535000BCF5005F01D05B06F1D553685B0613D541
:10536000116821F040011160116803681943116050
:10537000816891609168406841EA00409060012135
:10538000506820F080005060FF20D06102B00846D5
:10539000704781B000200090CA21DFF86803816166
:1053A00053218161016821F0A00101600168009A28
:1053B000521C0092009AB2F5004F01D08906F5D533
:1053C000FF2201688261480900F0010001B07047C6
:1053D000F0B402460020DFF8243381B0002A9A6836
:1053E0006FD1520658BFC8700A78002514460A2AA1
:1053F00005DB0A2592FBF5F5F62202FB054444EA9B
:1054000005124C78002625460A2C05DB0A2694FB5B
:10541000F6F6F62404FB065545EA06148D780027B7
:105420002E460A2D05DB0A2795FBF7F7F62505FB27
:1054300007662406D2B2240C44EA024246EA071464
:10544000E4B2C978224342EA0141CA225A62532295
:105450005A620090DA6852060FD44FF0FF32DA60D9
:10546000DA68009C641C0094009CB4F5005F01D0D5
:105470005206F5D5DA6852062ED5DFF88C22114097
:105480001960D96821F08001D9609968890622D411
:105490000090CA21596253215962D96821F0A001B4
:1054A000D960D968009A521C0092009AB2F5004F58
:1054B00001D08906F5D5FF22D9685A6289060BD535
:1054C00009E0520658BFC8704C780A78240244EAB2
:1054D00002428C78B5E70120FF21596201B0F0BC8F
:1054E0007047DFF81822DFF8203212681A40130CD8
:1054F00003F03F0C81F800C04FEA122C81F801C084
:105500008A7003F04002CA70D0B90878020902EB31
:10551000820300F00F0000EB430008704878020996
:1055200002EB820300F00F0000EB43004870887824
:10553000020902EB820300F00F0000EB43008870C9
:10554000704770B481B0024600204B78002A74D1B5
:10555000DA0603D503F0EF020A324A700024CA7853
:1055600013460A2A05DB0A2492FBF4F4F62202FB16
:10557000043343EA04124B7800251C460A2B05DB52
:105580000A2593FBF5F5F62303FB054444EA0513CE
:105590008C78002625460A2C05DB0A2694FBF6F6B5
:1055A000F62404FB06551B06D2B21B0C43EA02424A
:1055B00045EA0613DBB209781A4342EA4132DFF8C2
:1055C0004C11CA230B6253230B6200908B685B065D
:1055D0000FD44FF0FF338B608B68009C641C0094E9
:1055E000009CB4F5005F01D05B06F5D58B685B06C7
:1055F0002AD5DFF81C311A400A608A6822F080023E
:105600008A604A6892061ED40090CA220A62532217
:105610000A628A6822F0A0028A608A68009B5B1C8A
:105620000093009BB3F5004F01D09206F5D5FF2300
:105630008A680B62920607D505E0CA781B0243EA26
:1056400002428B78B7E70120FF220A6201B070BCEA
:105650007047DFF8B820DFF8B83012681A40130C32
:10566000CB70130A03F01F034B708A70520B02F0C9
:1056700007020A70D0B9C878020902EB820300F071
:105680000F0000EB4300C8704878020902EB820368
:1056900000F00F0000EB430048708878020902EB2D
:1056A000820300F00F0000EB43008870704781B068
:1056B00000220092174A0092009A02EB80000090AC
:1056C0000098016001B0704781B00021009111493C
:1056D0000091009901EB800000900098006801B0F3
:1056E000704708490A68C003C00B40F0800002F010
:1056F000800262EA00000860704700000028004055
:10570000082800400C2800407F7F7F0004280040CC
:105710003FFFFF005028004000B581B001214FF04D
:10572000805000F068F90120FFF7D8FB0FF250100D
:10573000FFF78CF9012000F02FF9412000F064F907
:105740000028FAD04FF4003000F029F94A4840F21E
:10575000271141607C210160012000F037F901B080
:105760005DF804EBFFF715BE10B5444C211D002079
:10577000FFF7B7FEA379627921790FF21C10FFF7CA
:1057800065F921460020FFF764FFA3786278E1788D
:105790000FF23410BDE81040FFF758B900B5374B91
:1057A000D870597081B09A7019460020FFF7C9FE71
:1057B00030B901B05DF804EB0FF23C10FFF746B9C9
:1057C0000FF25C10FFF742F901B05DF804EBCBE794
:1057D00000B52A4B1871597181B09A71191D0020BA
:1057E000FFF7F6FD30B901B05DF804EB0FF2581089
:1057F000FFF72CB90FF27810FFF728F901B05DF828
:1058000004EBB1E730B51D4CFF2581B02571657102
:10581000A571211D0020FFF7DBFD30B901B0BDE807
:1058200030400FF22410FFF711B90FF24410FFF7C8
:105830000DF9E5706570A570214643F2F225002050
:10584000FFF77FFE20B90FF2B000FFF7FFF809E085
:105850000FF2CC00FFF7FAF8FFF786FF2946002089
:10586000FFF725FFFFF780FF294601B0BDE8304074
:105870000020FFF71CBF0000AC0D0020A40D00208D
:105880004C5349204F53432069732073656C656303
:10589000746564210A0000000A0D20205468652008
:1058A00063757272656E742074696D65206973200A
:1058B0003A202025302E32643A25302E32643A25A3
:1058C000302E3264200A0D000A0D20205468652015
:1058D00063757272656E74206461746520697320EB
:1058E0003A202025302E32643A25302E32643A2573
:1058F000302E3264200A0D000A0D3E3E2021212068
:105900005254432053657420446174652066616974
:105910006C65642E202121203C3C0A0D0000000013
:105920000A0D3E3E2021212052544320536574200D
:105930004461746520737563636573732E20212140
:10594000203C3C0A0D0000000A0D3E3E2021212093
:10595000525443205365742054696D652066616913
:105960006C65642E202121203C3C0A0D00000000C3
:105970000A0D3E3E202121205254432053657420BD
:1059800054696D6520737563636573732E202121DF
:10599000203C3C0A0D00000023490860704700F4D9
:1059A00040322049B2F5403F06D10A6822F0C04299
:1059B00000F0C0431A430A6000F440304A6B22F4FE
:1059C00040324A634A6B1043486370471749086086
:1059D0007047174A0029116814BF084321EA0000E4
:1059E00010607047134A0029116814BF084321EA68
:1059F000000010607047104A0029116814BF084366
:105A000021EA00001060704742090649012A0CBFD4
:105A10000968496B00F01F0021FA00F000F0010056
:105A2000704700000038024080064742D8064742CF
:105A30001C380240203802402438024030B401684B
:105A40008279CB431B4932B30A4614682340136062
:105A500053680468A34353600379CC18236805682E
:105A60002B43236093680468A3439360D36804685E
:105A7000A343D36043790568102B08D1916829436B
:105A80009160D16800680843D06030BC7047CC1882
:105A90002068284303E000790C1820681840206033
:105AA00030BC70470449086070470349086070477C
:105AB00000000000000401401404014010B5FFF78D
:105AC00006FADFF8D04504EB80004069A065FFF7D7
:105AD000FEF904EB8000C069E065FFF7F8F90FF20A
:105AE000D85151F820002066FFF7F1F904EB80004F
:105AF000406A6066FFF7EBF90FF2C45151F82000DD
:105B0000A066FFF7E4F904EB8000C06AE066FFF7E7
:105B1000DEF90FF2B45151F820002067FFF7D7F9F2
:105B200004EB4000808EA081FFF7D1F90019807945
:105B30002070FFF7CCF904EB8000806B6067FFF703
:105B4000C6F90FF28C5151F82000A067FFF7BFF99A
:105B500004EB4000B0F84000E081FFF7B8F900190D
:105B6000007A6070FFF7B3F904EB8000406CE067E7
:105B7000FFF7ADF90FF2605151F82000C4F8800032
:105B8000FFF7A5F904EB4000B0F84C002082FFF7C6
:105B90009EF90019807AA070FFF799F90FF2485129
:105BA00051F82000C4F88400FFF791F904EB80005D
:105BB000006DC4F88800FFF78AF90FF2245151F8FC
:105BC0002000C4F88C00FFF782F90FF2245151F83D
:105BD0002000C4F89000FFF77AF90FF21C51405CE6
:105BE000E070FFF774F90FF21451405C2071FFF779
:105BF0006EF90FF20C51405C6071FFF768F918B153
:105C0000FFF765F901280DD101214FF48040FFF71E
:105C1000F2FED4F88400012140F00600FFF7D9FE1F
:105C2000002010BD4FF0FF3010BDDFF86804D0F841
:105C30008C10D0F8880089B200F0A2BD30B58BB0CE
:105C40000446FFF73BFF10F1010F00F0BA80DFF8C8
:105C500044542A78A989E86E00F0A2FD6A78E9899F
:105C6000686F00F09DFDAA78298AE86F00F098FD22
:105C7000A96E686E012289B200F08DFDA86E0090B9
:105C800000A901208DF8040000208DF80500ADF872
:105C90000600686E00F044FDA96E686E002289B2AD
:105CA00000F079FDD5F88000009000A902208DF861
:105CB000040003208DF8050000208DF80600012067
:105CC0008DF80700E86F00F02BFD02208DF807002B
:105CD00000A9A86F0090686F00F022FD01208DF8E8
:105CE000070000A9286F0090E86E00F019FD296EEA
:105CF000009101208DF8040001220020ADF806007B
:105D000089B203208DF80500E86D00F044FDE86DD0
:105D100000A900F005FDD5F88C00009000A9002036
:105D20008DF8040002208DF80700D5F8880000F0F7
:105D3000F7FC0020ADF8140005A94FF48270ADF80F
:105D4000160000200690ADF81C004FF40070ADF86E
:105D50001E000820ADF820000020ADF8220007202A
:105D6000ADF82400A86D00F02FFDA86D012100F012
:105D700047FD012C24D12979E87800F0B1FFD5F84E
:105D80009000039000208DF8100008208DF811007D
:105D900001208DF8120003A8FFF750FED5F89000FF
:105DA000FFF780FE68798DF8080000208DF8090063
:105DB0008DF80A0001208DF80B0002A8FEF7E7FF1E
:105DC00000200BB030BD10B5DFF8C842A16E606E88
:105DD000002289B200F0DFFC0520FFF7BCF8A16EBD
:105DE000606E012289B200F0D6FCBDE810400520AB
:105DF000FFF7B1B800B5A748D0F88C10D0F88800EC
:105E000081B089B200F0BCFC012818BF002001B0AD
:105E100000BDA048A04A90F905004109012300F007
:105E20001F0003FA00F042F82100704799489B4A8E
:105E300090F905004109012300F01F0003FA00F06A
:105E400042F8210070479348D0F89000FFF72ABE2F
:105E50002DE9F0478A4684B00FF2442180460CC9F0
:105E600002A88C4F0CC0396EF86D0026002289B252
:105E700000F091FC02AC0DF1000905252178B86D08
:105E800000F0CAFCB86D022100F0C8FC0028F9D06F
:105E9000B86D012100F0C2FC0028F9D0B86D00F007
:105EA000B9FC09F8010B641C6D1EE7D19DF80000D8
:105EB000022824D19DF804009DF8031051EA002423
:105EC0001DD0A245B8BF5446012C18DBB86DFF2188
:105ED00000F0A2FCB86D022100F0A0FC0028F9D06F
:105EE000B86D012100F09AFC0028F9D0B86D00F0DF
:105EF00091FC06F80800761CF6B2A642E6DB396E85
:105F0000F86D012289B200F046FC304604B0BDE8CD
:105F1000F0872DE9F34F87B014461D460FF2881124
:105F20005C4F0CC905A80FF288110CC00CC903A85E
:105F30004FF001080CC097F90500574A410900F0DD
:105F40001F0008FA00F042F821004FF00009D7F8CE
:105F50008C0000908DF8048003208DF805008DF8EA
:105F6000069002208DF8070000A9D7F8880000F0FD
:105F7000D7FBD7F88C10D7F88800012289B200F03F
:105F80000AFCCDF8089003E000BF0298401C029084
:105F90000298B0F5D27FF7DB396EF86D002289B236
:105FA00000F0F9FB05AE0DF10C0A4FF0050B31784E
:105FB000B86D00F031FCB86D022100F02FFC002814
:105FC000F9D0B86D012100F029FC0028F9D0B86D96
:105FD00000F020FC0AF8010B761CBBF1010BE6D1A6
:105FE000D7F888008DF8049000A900F099FB9DF87F
:105FF0000C00022838D19DF80D002919884230DBA9
:10600000B4B1079E3178B86D00F006FCB86D02217E
:1060100000F004FC0028F9D0B86D012100F0FEFB6F
:106020000028F9D0B86D00F0F5FB761C641EE9D1AC
:10603000E5B1089C2178B86D00F0EEFBB86D022147
:1060400000F0ECFB0028F9D0B86D012100F0E6FB70
:106050000028F9D0B86D00F0DDFB641C6D1E05D082
:10606000E8E76FF0010901E04FF0FF39396EF86D94
:10607000012289B200F08FFB97F90500074A410918
:1060800000F01F0008FA00F042F8210009B048466D
:10609000BDE8F08F0000002080E100E000E100E0BA
:1060A0000B000000000000000A00000000000000DB
:1060B000AA00000000000000001000000010000016
:1060C0000020000000200000008000000080000090
:1060D0000040000000400000002000000020000000
:1060E00000040000000400000400000002000000A2
:1060F0000004000000040000020100000A0A000081
:10610000282800B587B01822002101A800F06DFEF4
:106110003F20ADF8040040F20110ADF8060000A8E1
:1061200005900120069001A8FFF724F800284CBF35
:10613000FF209DF8000007B000BD70B58AB00C4686
:106140008DF8080015461E460722002100A800F021
:106150004CFE1822002103A800F047FE3F20ADF8B6
:106160000C008A20ADF80E0002A8059001200690D0
:1061700000A807900720089003A8FEF7FBFF00285F
:1061800048BFFF200CD49DF8000048B9BDF80100BD
:106190002080BDF803002880BDF805003080002075
:1061A0000AB070BD76B592B0199D1B9C61190E3175
:1061B0001E46292928BF422052D28DF81C000222F7
:1061C00012A90DF11D0000F00AFE022213A90DF123
:1061D0001F0000F004FE18981A998DF822008DF81F
:1061E00021608DF823502A4609A800F0F8FD05F13A
:1061F0000800C0B207AA451C8454EDB21C9907A838
:106200002246281800F0EBFD6419E4B207AB022225
:106210001DA9E01800F0E3FDA41CE4B207A80222C7
:106220001EA9201800F0DBFD1822002101A800F0B3
:10623000DCFD3F20ADF804008320ADF8060007A880
:106240000390A01CC0B2049000A805900120069005
:1062500001A8FEF78FFF00284CBFFF209DF800002B
:1062600014B070BD70B58CB014461D468DF81C007E
:1062700001280CBF0226102632460DF11D0000F049
:10628000AEFD701C07A9C0B203224454441CE4B202
:1062900000A86554002100F0A8FD1822002101A8E3
:1062A00000F0A3FD3F20ADF804004FF48170ADF87D
:1062B000060007A80390601CC0B2049000A80590D7
:1062C0000320069001A8FEF755FF002848BFFF20D5
:1062D00007D49DF8000020B91098BDF80110018086
:1062E00000200CB070BDF1B58EB00D4616461F46AD
:1062F00002220EA907A800F072FD07AC012DA570BF
:106300000CBF022510252A4631460DF11F0000F072
:1063100066FDE81CC0B2411C0755C9B21498085567
:10632000491CC9B215980855491CC9B21698085598
:10633000491CC9B2179808554D1CEDB2189828553C
:106340000322002100A800F050FD1822002101A81E
:1063500000F04BFD3F20ADF804004FF48270ADF823
:10636000060007A80390681CC0B2049000A805901E
:106370000320069001A8FEF7FDFE002848BFFF207D
:1063800007D49DF8000020B91998BDF801100180CC
:1063900000200FB0F0BD33B51C46A01DA7B01546B8
:1063A0008128A8BF422031DA022227A907A800F0DD
:1063B00016FD022228A90DF11E0000F010FD2C99F7
:1063C0008DF820508DF8214022460DF1220000F07A
:1063D00006FD1822002101A800F007FD3F20ADF8BE
:1063E00004004FF48370ADF8060007A80390A01DC9
:1063F000C0B2049000A805900120069001A8FEF705
:10640000B9FE00284CBFFF209DF8000029B030BD28
:1064100010B50C461146A21CA8B0812AA8BF422084
:1064200024DA8DF81C008DF81D4022460DF11E0067
:1064300000F0D5FC1822002101A800F0D6FC3F2076
:10644000ADF804000C20ADF8060007A80390A01CCE
:10645000C0B2049000A805900120069001A8FEF7A4
:1064600089FE00284CBFFF209DF8000028B010BD19
:1064700000B589B08DF804008DF8051018220021B0
:1064800002A800F0B2FC3F20ADF808000F20ADF8E4
:106490000A0001A804900220059000A8069001209F
:1064A000079002A8FEF766FE00284CBFFF209DF86B
:1064B000000009B000BD30B58FB08DF81C008DF81C
:1064C0001D1014461D46102221460DF11E0000F03D
:1064D00086FC12988DF82F008DF82E5018221398F4
:1064E0008DF8300000211498CDF8310015988DF802
:1064F000350001A800F079FC3F20ADF804008620AB
:10650000ADF8060007A803901A20049000A8059093
:106510000120069001A8FEF72DFE00284CBFFF20A9
:106520009DF800000FB030BD30B593B00FF20011F0
:106530003CC90EA80FF208113CC03CC90AA80FF2D2
:1065400010113CC03CC906A80EA93CC0354C0094B3
:10655000072301220220FFF785FE68BBA01C0590DF
:106560001423012004900AAA102003900221002085
:1065700002900190102000902088FFF7B4FED8B957
:10658000201D059014230120049006AA10200390DA
:10659000022101200290002001900C200090208810
:1065A000FFF7A1FE40B9A28861880FF2B400FEF7A0
:1065B0004DFA002013B030BD0FF2E400FEF746FAAA
:1065C000472013B030BD000070B50D461549144684
:1065D0008A88521C90421EBF0A89521C904209D1DF
:1065E000EDB10FA614F8011B3046FEF72FFA6D1E11
:1065F000F8D170BD4A88921C904204D120780128BD
:106600000DD1094807E0C988891C884204BF207859
:10661000012804D10548016841F00401016070BD02
:1066200025630000980D0020600100206401002017
:10663000669A0C200008969EE2119EB1E0F273D992
:10664000669A0C200008969EE2119EB1E1F273D981
:10665000669A0C200008969EE2119EB1E2F273D970
:106660004368617420536572766963652061646470
:1066700065642E0A545820436861722048616E6434
:106680006C6520253034582C2052582043686172A4
:106690002048616E646C6520253034580A00000083
:1066A0004572726F72207768696C652061646469F5
:1066B0006E67204368617420736572766963652E26
:1066C0000A0000000CB41CB5044604A801900A4658
:1066D000009401AB00A907487844183000F0A6F8F0
:1066E000009900220A7000285CBF0098001B16BCAD
:1066F0005DF80CFBF7D5FFFF10B504466160FEF7AF
:1067000027FC206010BD10B50446FEF721FC21686F
:10671000401A6168401C81428041C00F10BD0000DA
:10672000F0B40022002301240D6894402540A542C6
:1067300020D106680F7903259D40ED432E409F40F0
:106740003E4306600E79012E18BF022E0CD18668DA
:106750004F792E409F403E438660868826EA040497
:106760008E79964034438480C4682C40CD799D4016
:106770002C43C460521C9B1C102AD4D3F0BC70471D
:10678000008A0022084218BF012210467047018388
:106790007047418370470AB1018370474183704756
:1067A000CB0800EB830001F007018900036A4FF07A
:1067B0000F0C0CFA01FC23EA0C03036202FA01F14C
:1067C000036A19430162704702880B8802F4415240
:1067D0001A434B881A438B881A43CB881A430B8978
:1067E0001A434B891A438B891A43CB891A43028077
:1067F0004FF2FF73828B1A408283098A01827047AD
:106800000029018812BF41F040014FF6BF721140CC
:10681000018070478089704781817047008900221C
:10682000084218BF01221046704700002DE9F04FC2
:1068300093B0804602AE002014461D460291B0611E
:106840000DF1300A0AE014F8011B0298C0470290CB
:10685000002800F0B481B069401CB061207808B90C
:10686000B069AEE12528EED10020F06030617061A2
:1068700001E040F0010014F8011F2029F9D023297C
:106880000DD02B2904D02D2906D030290AD00CE0B8
:1068900040F0020080B2EEE740F00400FAE740F07A
:1068A0000800F7E740F01000F4E72A290DD1296825
:1068B0000A1D2A6009683162002904D5494240F066
:1068C0000400316280B2641C13E0002131620BE0ED
:1068D000316A6FF00043994205D001EB810302EB6E
:1068E000430130393162641C2278A2F130010A2957
:1068F000EED321782E2903D04FF0FF31F1611EE055
:1069000014F8011F2A2906D129680A1D2A60641C6F
:106910000968F16113E00021F1610BE0F1696FF0AA
:106920000043994205D001EB810302EB430130396A
:10693000F161641C2278A2F130010A29EED3B084FF
:106940000FF28030217800F07BFA08B114F8010BC7
:106950008DF82E009DF82E00682804BF2078682846
:1069600003D162208DF82E00641C0CA8B060227840
:10697000252A13D0582A34D0632A00F0A580642A2F
:1069800018BF692A68D06F2A2BD0702A20D0732AAA
:1069900009D0752A18BF782A23D09FE0F068411CDF
:1069A000F160252197E02868011D29600068F269DF
:1069B0007060002A02D500F04FFA07E0002100F0D5
:1069C00067FA00281ABF7168401AF069306191E0D7
:1069D0002868011D29607821006801900CA870606A
:1069E0006EE09DF82E306C2B08BF286811D0712BFB
:1069F00008BF286802D028686A2B0AD1C01D20F081
:106A000007002860014601F108002860D1E9000173
:106A100002E0011D296000680190682B02D101A8E5
:106A2000008803E0622B02D101A80078019096F85B
:106A3000240000073FD5019800283CD042F02000F8
:106A4000782838D1F068302100F80A10401C411C29
:106A5000F16000F80A202EE09DF82E00622802D096
:106A6000682806D00BE02868011D296090F9000015
:106A700009E02868011D2960B0F9000003E02868DA
:106A8000011D296000680190002804D5F068411CB0
:106A9000F1602D210DE0B08C810704D5F068411C18
:106AA000F1602B2105E0C00705D5F068411CF160BD
:106AB000202100F80A10F0680CA9401870601146F7
:106AC00001A800F081F815E0F068411CF160296828
:106AD0000A1D2A60096800F80A100BE0F068411CE2
:106AE000F160252100F80A1022B1F068411CF16024
:106AF00000F80A20306AF168401A7169401A316959
:106B0000A0EB010996F82400641C40070FD4202054
:106B10008DF80000002708E0012300AA01A94046E3
:106B200000F0B9F800284AD17F1C4F45F4DBF76824
:106B30000DF1300B0AE01BF8011B0298C0470290D0
:106B400000283CD0B069401CB0617F1E002FF2D1FC
:106B500030208DF800004FF0000B776908E001232A
:106B600000AA01A9404600F096F840BB0BF1010BCA
:106B7000BB45F4DB3769D6F804B009E01BF8011B0C
:106B80000298C0470290D0B1B069401CB0617F1E2E
:106B9000002FF3D196F8240040077FF55FAE202048
:106BA0008DF8000000E07F1C4F45BFF657AE012373
:106BB00000AA01A9404600F06EF80028F3D04FF07B
:106BC000FF3013B0BDE8F08FF0B4C2686F2908BF82
:106BD000082405D041F02003782B14BF0A24102488
:106BE000066818233746642918BF692902D1002E88
:106BF00048BF7F425FB9056A4DB9082C27D190F88C
:106C00002810090723D530211723D1751FE0B7FBC2
:106C1000F4F604FB167730375D1EFFB22B463A2F91
:106C2000A4BFA1F1510C6744AF54370003D085686D
:106C30009E18B542EBD3082C09D190F8281009070B
:106C400005D5995C302902D05B1E30219954C3F1DF
:106C5000180141619A188260026A914208DA511A59
:106C600081614FF6EF72018D11400185F0BC7047D4
:106C7000002A0ED590F8282002F01402102A08D11C
:106C8000426A0369D21A8369D21A531A012BA8BF28
:106C90008361F0BC7047F8B504460D4616461F46A2
:106CA000002004E0E869401CE8617F1E002047B135
:106CB00016F8011B6868A04768600028F2D14FF001
:106CC000FF30F2BD686C747A4C0000000D4900285A
:106CD000086812BF40F0010040084000086070479B
:106CE00030B401F0030221F00301074B9200CC58AD
:106CF0000F259540AC43CC509040CC582043C85011
:106D000030BC70470400014008000140C9430182C3
:106D1000704700001449042808680CBF40F00400C4
:106D200020F00400086070471049086070470E4961
:106D3000012804D1086840F001000860704710F194
:106D4000020F04D108684008400008607047002026
:106D50008860704704490028086814BF40F00200AA
:106D600020F002000860704710E000E014E000E04E
:106D70000448054AC061022101724262034901626E
:106D800008680047640D0020C40000209400002023
:106D90000060406070470168814201D10120704766
:106DA0000020704702680A6048600160086841601E
:106DB0007047086042684A604160486801607047F7
:106DC00002680A60006842680368136002684068ED
:106DD000506000220868026008684260704710B581
:106DE000044600F081F8204610BD10B50446104658
:106DF0000A460146204600F0B3F8204610BD0000C8
:106E0000F0B504460D4800680D460A2183B0B0FB7A
:106E1000F1F116461F4600A8FFF76EFCFBB2F2B276
:106E200029462046FFF775F820B100A8FFF76BFC54
:106E30000028F3D003B0F0BD00000000547C00082F
:106E40000278C9B28A421AB11CBF10F8012FF9E7C3
:106E500018BF00207047000000F10103810704D033
:106E600010F8011B89B18107FAD10268B2F1013132
:106E7000914311F0803F04BF50F8042FF6E710F85B
:106E8000011B11B110F8011BFBE7C01A704700008D
:106E9000C9B2830706D0521E22D310F8013B994293
:106EA000F7D11FE0083A13D302F1040241EA0121AD
:106EB00041EA014150F8043B121F21BF4B40A3F1AE
:106EC000013C2CEA030C1CF0803FF3D0C9B2001F38
:106ED000083210F8013B521E28BF91EA030FF8D880
:106EE00018BF0120401E704762B38B0708D0521EA6
:106EF00011F8013B00F8013B00F024808B07F6D12C
:106F0000830740F0208000BF103A07D330B4B1E8C7
:106F10003810103AA0E83810F9D230BC530724BF1B
:106F2000B1E80810A0E8081044BF51F8043B40F84D
:106F3000043BD20724BF31F8022B20F8022B44BFB8
:106F40000B7803707047083A07D3B1E80810083A85
:106F500040F8043B40F804CBF7D25307E4E70000C5
:106F600062F30F2262F31F42401810F0030308D0AF
:106F7000C91A1FD3DB0748BF00F8012D28BF20F82E
:106F8000022D130030B414461546103928BF20E9ED
:106F90003C00FAD8490728BF20E90C0048BF40F858
:106FA000042D890028BF20F8022D48BF00F8012DCC
:106FB00030BC7047C91818BF00F8012DCB0728BF97
:106FC00000F8012D7047000030B404780D780023DC
:106FD000AC421BD110F8014F11F8015F5B1CAC42B1
:106FE00001BF5B1C10F8014F11F8015FAC420DD1DD
:106FF00010F8014F11F8015F5B1CAC4201BF5B1C34
:1070000010F8014F11F8015FAC42E3D0934205D074
:107010000078202802DB09787F2902DB30BC0020C1
:107020007047884234BF4FF0FF30012030BC7047BA
:107030002DE9F04F0D468BB00FF2F4114CC9044608
:1070400008A80FF2F8114CC00CC906A80FF2F411F1
:107050000CC00CC904A80CC008A8FFF7FDFEC2B202
:1070600008A92046FFF7B0FF28B90FF2E010FDF79E
:10707000EDFCFEF779FB06A8FFF7EEFEC2B206A90B
:107080002046FFF7A1FF78BB0FF2D410FDF7DEFC1E
:107090000FF298100088ADF8000001AA00200190BE
:1070A00000A9204600F00AF90026E8B114E0012EFC
:1070B00003D100F022F907460EE0022E03D100F0C2
:1070C0001CF9804608E0032E06D100F016F90246AE
:1070D00041463846FEF77CFB01AA00A9002000F0DB
:1070E000EDF8761C0028E2D104A8FFF7B5FEC2B285
:1070F00004A92046FFF768FF78BB0FF27810FDF770
:10710000A5FC0FF228100088ADF8000001AA0020AD
:10711000019000A9204600F0D1F80026E8B114E063
:10712000012E03D100F0E9F807460EE0022E03D14C
:1071300000F0E3F8804608E0032E06D100F0DDF809
:10714000024641463846FEF729FB01AA00A9002065
:1071500000F0B4F8761C0028E2D1002D5BD02F4857
:107160000FF2241600682E4FDFF8B880DFF8B890D1
:1071700000EB800148000190B9F80000B0F5FF7FF6
:10718000C4BF0020A9F80000B9F80000227800EB85
:107190000901401C0A71A9F8000080B200EB090146
:1071A000CA780A2A34D101281EBF4FF0000A81F89C
:1071B00004A0002800F02980B9F80000A0EB0A0B19
:1071C000BBF1150FA8BF4FF0140B019902A8FFF7F0
:1071D00093FA00BF09F10400504400905FFA8BF36A
:1071E000B8F8001038880022FFF7D5F8642807D1D6
:1071F00002A8FFF788FA0028ECD03046FDF726FCFD
:10720000B9F80000DA448245D6DB0020A9F8000076
:10721000641C6D1EB0D10BB0BDE8F08F547C00082B
:10722000980D00209A0D0020700900202000000019
:1072300073686F7774696D6500000000736574741E
:10724000696D650073657464617465006C657427AD
:10725000732073686F772074696D6521210A0000BF
:107260006C65742773207365742074696D652121C2
:107270000A0000006C6574277320736574206461D4
:10728000746521210A00000074696D65206F7574B2
:1072900020666F72207761697469746E6720667208
:1072A0006F6D20636C69656E7420666F7220736504
:1072B000727665722031200A0000000070B505006A
:1072C0000E46144608BF2568284600F01AF84519EE
:1072D000287820B90FF220002060002070BD3146D0
:1072E000284600F01FF84019017811B1002100F87C
:1072F000011B2060284670BD00000A22002100F01A
:10730000B2B830B4024604E014F8015BAB4203D1DA
:10731000521C13781BB10C462578002DF4D130BCDB
:10732000101A704730B4024600E0521C13783BB18B
:107330000C462578002DF8D014F8015BAB42F8D14B
:1073400030BC101A704700002DE9F04F85B0804620
:107350000D4616461F001CBF00203860444600E062
:10736000641C2078A0F109010529F9D32028F7D061
:107370002D2816BF2B2814F8019B4FF02B09002E47
:1073800046D4012E44D0252E42DA012E0ADB102EDF
:1073900004BF2078302802BF607840F020007828B1
:1073A0000ED10AE02078302818BF0A2608D160786C
:1073B00040F02000782802D11026A41C00E0082606
:1073C000039400E0641C20783028FBD002940FF274
:1073D0009C004FF0000A8DF8040009E09DF80410AD
:1073E000CDF800A0401A5FFA80FB06FB0ABA641CC5
:1073F0002178A1F141001A2838BF203132460FF21E
:107400006C00FFF745FD0028E8D10398A04204D1A5
:107410000DB1C5F80080002022E00FF2780102983B
:10742000715C201A401A13D4012807DABAEB0B005A
:1074300004D30099B0FBF6F0884209D000F03EF882
:10744000222101600FB1012038604FF0FF3A04E0C3
:10745000B9F12D0F08BFCAF1000A05B12C605046E2
:1074600005B0BDE8F08F00236EE700003031323305
:107470003435363738396162636465666768696ACE
:107480006B6C6D6E6F707172737475767778797AD4
:107490000000000000002115110E0D0C0B0B0A0A54
:1074A000090909090908080808080808070707075B
:1074B000070707070707070707000000014800F054
:1074C00003B800008C0100207047000000B581B0B7
:1074D000FDF7BEFB794800680021817200F002F9D7
:1074E00000F018F900217648016001B000BD00B538
:1074F0007248016881B000228A72724A0168D279AA
:107500004A7200210068C1720020FCF76DFA4FF446
:1075100000710020FCF76FFA10210020FCF777FAC9
:1075200040210020FCF702FB80210020FCF7F1FA4B
:107530000020FCF7BCFA644890F82C100020FCF7FF
:107540001FFB0020FCF7A3FA00210120FCF753FAEF
:10755000C0210120FCF7DDFA20210120FCF757FAB9
:1075600000210120FCF76BFA4FF4C0610220FCF708
:1075700042FA4FF480710220FCF7CBFA002102207E
:10758000FCF75DFA20210220FCF741FA00210320DC
:10759000FCF731FA4FF488710320FCF7C7FA402159
:1075A0000320FCF7EDFA4FF440510320FCF747FAB3
:1075B00000210320FCF72BFA0020FCF790F940484B
:1075C0000121016001B000BD4048807A10B13C4803
:1075D0000521016070473A480421016070477047F7
:1075E000704700B581B0212809D13448006800787F
:1075F00000F07F00212817D10FF2990112E0202816
:1076000012D12E4932480968097801F07F012129F9
:1076100004D020210170022001B000BD20220FF211
:1076200089010270080002D1022001B000BD234888
:10763000006881610022428200208847002001B05A
:1076400000BD1E490968097801F07F01212905D193
:10765000022818BF222801D100207047022070475D
:107660001C49FBF77FBE1C49FBF77CBE1349096828
:10767000C978052901DB00207047184A02EBC101D7
:10768000FBF770BE09B9022801DB02207047002019
:107690007047000028B909480068082101820020CD
:1076A00070470F487047000028B904480068082157
:1076B0000182002070470A4870470000800D0020BA
:1076C000CC0D0020C079000894000020640D00203B
:1076D000D50D00207801002080010020E800002066
:1076E0007001002000B581B00120FDF759FA07486C
:1076F000074A012101600021016041604FF4E0511F
:1077000011800160002001B000BD0000405C00401D
:10771000A20D00200448054A002141604FF40641B3
:107720001180016000207047405C0040A20D0020E5
:1077300070B500F07F050C462846FCF73EFA064679
:107740002846FCF70AFA014632462046FCF7A6FA1C
:10775000304670BD2DE9F04F81B00020ADF800003B
:1077600048F28004474DDFF82081484EDFF8209131
:10777000DFF820A140F68F7B4BF6BF7726E000BFF5
:1077800056F82010ADF80010BDF8001009040AD515
:1077900056F820100BEA010146F8201008EB800093
:1077A00050F8040C8047BDF8000000060ED599F88B
:1077B000000056F8201048F60F72114046F82010CD
:1077C000354901EB800050F8040C8047706CAAF832
:1077D0000000000453D5BAF8000010F00F0089F83B
:1077E0000000CDD130682880288800F03000688003
:1077F000288800F4405028803068384080F40050D9
:1078000080F0200020433060BAF80000C0063068E5
:1078100006D448F60F7108403060FBF7B0FF16E061
:10782000ADF80000BDF80000000506D530680BEA91
:1078300000003060FBF759FF09E0BDF800000004CC
:10784000C4D530680BEA00003060FBF7D4FF306825
:1078500029883840C90448BF80F4805029888904A9
:1078600048BF80F400506988C90648BF80F0100006
:107870006988890648BF80F020002043306001B04D
:10788000BDE8F08FC40D002040010020005C0040E6
:10789000D40D0020CA0D0020240100203E483F4A9C
:1078A00083B0016841F4807101608168114081609A
:1078B0003B4A016811400160016821F480210160A8
:1078C000816821F47D0181600021C16001910091F6
:1078D0000291016841F001010160016801F00201BB
:1078E0000091009919B90199B1F5A04FF5D101683E
:1078F000490801F0010100910099012907D181682F
:1079000021F47D018160816841F4880181604FF438
:107910000062D0F8001441F00401C0F80014D0F85F
:10792000001441F00201C0F80014D0F8001441F036
:107930000101C0F80014416A41F0805141621949C7
:107940000A604A68D206FCD48168816081688160DF
:1079500081688160816821F47D018160816841F4E2
:1079600008018160016841F080710160016889014E
:10797000FCD58168890889008160816841F0030134
:107980008160816801F00C010C29FAD14FF000618F
:107990000548016003B07047003802400CC0FF8802
:1079A000FEFFFEEE0070004008ED00E01201000254
:1079B000020000408304405700020102030100005E
:1079C00009024300020100C0320904000001020262
:1079D0000100052400100105240100010424020215
:1079E0000524060001070582030800FF09040100C1
:1079F000020A00000007050302400000070581029B
:107A000040000000040309042603530054004D0005
:107A10006900630072006F0065006C006500630020
:107A2000740072006F006E00690063007300000054
:107A30003203530054004D00330032002000560042
:107A4000690072007400750061006C002000430042
:107A50004F004D00200050006F00720074002000A5
:107A60002000000030B52548017881B0012925D1DA
:107A700023490A681AB900210170002414E0214842
:107A80000368412A1D4603D340244033403A02E0B4
:107A90001446D318002203600A60ADB21A48A2B29D
:107AA000C0212818FCF7B6F8A1B20120FCF75FF856
:107AB00001B0BDE830400120FBF7D9BF01B030BDB7
:107AC00010B5124C21460320FFF732FE81B220464A
:107AD000FDF755FABDE810400320FBF7D8BF0C486E
:107AE0000068052809D10B4801684A1C0260012979
:107AF00003D100210160FDF762B8704790010020BA
:107B00006C0900206809002094010020240D002049
:107B1000CC0D0020C00D002070B5134D134C28680B
:107B2000134E6080608831880840800507D54FF685
:107B3000FF5028602078401C2070FFF7D0FF60883D
:107B400031880840000448BFFFF704FE6088318890
:107B50000840400507D54FF6FF302860BDE870406B
:107B600004484068004770BD445C0040C80D0020D8
:107B7000A20D00209400002010B507497944183167
:107B8000064C7C44163404E00A68081D51188847E6
:107B90000146A142F8D110BD0800000028000000F5
:107BA00053C0FFFF480C00009001002000000000BF
:107BB0000BBEFFFF90010000480100000000002004
:107BC0000000000000F00BF8002801D0FFF7D4FF00
:107BD0000020C046C046FCF7BBF800F002F80120C8
:107BE000704700F001B800000746384600F002F880
:107BF000FBE7000080B5C046C046024A11001820CD
:107C0000ABBEFBE7260002007047FEE7FEE7FEE79B
:107C1000FEE7704770477047FFF77EBFFDF773BA06
:107C200038B504460D462846FDF756F8A84218BF59
:107C30000024204632BD000001488047014800472B
:107C40009D780008497C0008C046C046C046C04632
:107C5000FFF7B8FFE8030000FFF7FEBFFFF7FEBF26
:107C6000FFF7FEBFFFF7FEBFFFF7FEBFFFF7FEBF48
:107C7000FFF7FEBFFFF7FEBFFFF7FEBFFFF7FEBF38
:107C8000FFF7FEBFFFF7FEBFFFF7FEBFFFF7FEBF28
:107C9000FFF7FEBFFFF7FEBFFFF7FEBFFFF7FEBF18
:107CA000FFF7FEBFFFF7FEBFFFF7FEBFFFF7FEBF08
:107CB000FFF7FEBFFFF7FEBFFFF7FEBFFFF7FEBFF8
:107CC000FFF7FEBFFFF7FEBFFFF7FEBFFFF7FEBFE8
:107CD000FFF7FEBFFFF7FEBFFFF7FEBFFFF7FEBFD8
:107CE000FFF7FEBFFFF7FEBFFFF7FEBFFFF7FEBFC8
:107CF000FFF7FEBFFFF7FEBFFFF7FEBFFFF7FEBFB8
:107D00000000000000000505050505050000000055
:107D1000000000000038004000380040000402402D
:107D20000004024000080240000802400004024033
:107D3000000402400F000F00000402400004024053
:107D40000E000E0000040240000402400D000D0071
:107D50000008024000040240000000000000000093
:107D60000000000000000000000000000000000013
:107D70000000000000000000000000000000000003
:107D800000000000000000000000000000000000F3
:107D900000000000CD740008EF740008DF750008D3
:107DA000E1750008E3750008437600088576000851
:107DB00061760008677600086D7600080000000014
:107DC00040000000B9390008C9750008B939000839
:107DD000B9390008B9390008B9390008B9390008BB
:107DE000B9390008D7750008047A000804000000BB
:107DF000087A000826000000307A000832000000EF
:107E0000080100201A0000001A03530054004D001E
:107E1000330032003100300000000000000000009C
:107E200000000000657A0008B9390008B939000877
:107E3000B9390008B9390008B9390008B93900085A
:107E4000B9390008B9390008C17A0008B939000801
:107E5000B9390008B9390008B93900080000000034
:107E6000020000000200000000000000000000000E
:107E700000C2010000000800AC79000812000000F8
:107E8000C079000843000000040100000000000069
:0400000508007C492A
:00000001FF
