:020000040800F2
:10380000701B002011760008E1750008E3750008C0
:10381000E5750008E7750008E9750008000000007C
:10382000000000000000000000000000EB75000830
:10383000ED75000800000000EF75000855690008EC
:103840003176000835760008397600083D760008A4
:103850004176000845760008497600084D76000854
:103860005176000855760008597600085D76000804
:103870006176000865760008697600086D760008B4
:103880007176000875760008797600087D76000864
:10389000F1750008817600088576000889760008B1
:1038A0008D760008917600089576000899760008D4
:1038B0009D760008656A0008A1760008A5760008D4
:1038C000A9760008AD760008B1760008B576000844
:1038D000B9760008BD760008C1760008C5760008F4
:1038E000F5750008C9760008CD760008D176000885
:1038F000D576000810B5DFF8884700B92BE000F056
:1039000099F80068804720680A3010BD80B5DFF85C
:103910007007DFF8702700685278C1788A420CD3AC
:103920008278002A04BF8288002A06D1817200F0C2
:1039300081F840688047002002BD022002BD10B51A
:10394000DFF83C4700B906E000F074F88068804773
:1039500020680C3010BD206801210182002010BDBC
:1039600010B5DFF81C47DFF8202720681268C178FF
:1039700040799269904721688A7A92B1002804BF01
:10398000087900280DD1887858B900F053F8C0683C
:10399000804720684179C1722068C1780173002096
:1039A00010BD022010BD1CB5DFF8D416096810B98F
:1039B000022008823CE0DFF8D4460020208000226C
:1039C00008787F23184215D1487A81064CBF42F00F
:1039D000020102F0FD0121704006217854BF01F080
:1039E000FE0041F00100207000F024F800698047DB
:1039F000204616BD00F07F03012BF9D000F07F00B8
:103A0000022815D14879DFF8883600F00F0100064A
:103A100053F8210042F0010205D500F030001028D3
:103A2000E2D12270E0E700F44050B0F5805FF7E7A4
:103A3000002016BDDFF85C0600687047F8B5DFF8B7
:103A400040060068017811F07F0104D1417A01F04D
:103A5000DF0141724FE0022901BF4188002901794D
:103A600000294AD14179DFF8284621F080050A066D
:103A700054F825204CBF02F0300202F44052DFF827
:103A800004361B789D4238D2002A1CBF807A002859
:103A900033D0080654F825000BD500F0300010286C
:103AA00025D1284600F098FB3021284600F033FB52
:103AB0001DE000F44050B0F5805F18D148F2800658
:103AC0004BF68F7745B900F0B4FA2068384080F49F
:103AD0004050304320600AE0284600F06BFB54F869
:103AE0002500384080F44050304344F82500FFF76B
:103AF000A1FF406980470020F2BD0220F2BD38B529
:103B0000DFF87C05DFF888150268537923F0800020
:103B10001C0651F820404CBF04F0300404F440541B
:103B2000DFF860552D78A84206D2558825B9002CBB
:103B30001CBF927A002A01D1022032BD1B0651F827
:103B4000203048F2800205D548F6BF74234083F048
:103B5000100304E04BF68F74234083F480531A4320
:103B600041F82020FFF766FF80698047002032BDC2
:103B700080B5DFF80C050068417A41F02001417200
:103B8000FFF758FFC0698047002002BDDFF8F0242E
:103B90001268538A20B98888C01A108200207047A2
:103BA0000868181870472DE9F843DFF8D444DFF8A7
:103BB000E854206800F110063188002904BF007A1B
:103BC000042816D1DFF8D404017801290DD1DFF8DB
:103BD000D014DFF8D024096889B2002342F81130EC
:103BE00030212980042703702CE01020072728802B
:103BF00028E0B6F80480884505D30427414588BFEE
:103C00004146884600E00227B16840468847814621
:103C1000002000F0FAFA01464246484600F053FB05
:103C20004146002000F0F9FA3088A0EB080030800F
:103C30004FF4405170884044708030202880DFF875
:103C40006804018020680772BDE8F18338B5DFF8A9
:103C500030442068457801787F22114238D1092DFF
:103C600002D1FFF753FE47E0052D1BD1C178802913
:103C700050DA8178002901BF81880029807A0028E4
:103C800048D1DFF81C14DFF81C24096889B200232E
:103C900042F811300620DFF8001430220A80216833
:103CA000087231BD032D08D1C178012904BF808875
:103CB000002823D1FFF75CFF1EE0012D04BFC1786F
:103CC00001291BD18188C9B9407A80060DD415E03D
:103CD00001F07F00012804D10B2D0FD1FFF740FE2A
:103CE0000AE002280AD1012D02D1FFF7A7FE03E066
:103CF000032D03D1FFF703FF0028C2D0DFF888139C
:103D00000968496928468847032808BF0920C6D0A2
:103D10000028B6D00820C2E730B5DFF86453DFF8DA
:103D20006843286883B04178062913D101787F223F
:103D300011422AD18078012802D12068C1696AE045
:103D4000022802D12068016A65E003281DD120689D
:103D5000416A60E000293FD14188002904BFC18841
:103D6000022912D1017981B901787F22114204BF61
:103D70008288002A2ED001F07F02012A10D100F0A3
:103D80008CF810B92868807A20BB286821684078B0
:103D900009698847032847D128680921017237BD7E
:103DA00001F07F010229F0D14079B94B00F00F01F9
:103DB00000F07002000653F821004CBF00F0300004
:103DC00000F44050AF4B1B789942DED2002ADCD180
:103DD0000028DAD0B5491EE0082905D100787F21F6
:103DE0000842D2D1B24916E00A2902BF017801F097
:103DF0007F010129C9D1817A0029C6D041880029D3
:103E000001BF01790029C1880129BED100F045F820
:103E10000028BAD1A7490800B7D0286800224282FA
:103E2000816100208847002029680B8A1A464FF6D6
:103E3000FF75AA4208BF092004D0022818BF002B32
:103E400002D10820087237BD087800061ED5C88840
:103E500000902468009D9D4202D2009808820FE0E5
:103E600083420DD294F82C008C4D834238BF002041
:103E700005D392FBF0F300FB132008B90120287052
:103E800094F82C008882BDE837408CE60320087245
:103E90004FF440518448018037BD226840799269CF
:103EA0000021104738B57E4883490068744C80B2C1
:103EB00031F8100021680A7A400000F1804000F5D6
:103EC000C040092A14D010F8012B0A70216810F89C
:103ED000012B4A70851C35F8040B00F0EFF92168BE
:103EE0004880288800F0EAF921688880A888C8807E
:103EF0000121206801722068C08810B9FFF7A6FE72
:103F000001E0FFF709FFBDE831407CE010B500F0AB
:103F100096F818BF042904D1FFF745FE2068007AFF
:103F200014E0062911D14178052902BF01787F22CA
:103F3000114206D1C07800F087F8FFF77BFD006AD8
:103F400080475148006880688047082021680872CF
:103F5000BDE8104057E0F8B500F071F818BF04292B
:103F60004CD0032918BF052942D100F11005A968DA
:103F70002E88080018BF002E14D0A888864288BF5B
:103F800006463046884707462888801B2880688870
:103F900030186880002000F039F901463246384672
:103FA00000F0A6F928883C4E48B13F484FF44051F4
:103FB00001800020002100F030F930203080288876
:103FC000AA882168904228BF032001D210B10520A1
:103FD00008720AE006200872002231483149006860
:103FE00080B241F81020302030802068007A06E04E
:103FF000072903D124480068C06880470820216849
:104000000872BDE8F14080B500F013F81C48006864
:10401000017A082906D124494FF480520A801022DF
:104020001D490A80007A092801D1012002BD002023
:1040300002BD224890F82C10002000F0F5B8104C7A
:104040002068017A0229704770B50E49104B097833
:10405000002248F68F760BE0D4B253F82450354056
:10406000254345F4004545F0800543F82450521C93
:104070008A42F1D3124940F08000086070BD000010
:10408000300F002068020020340F0020540F002061
:10409000005C0040380F00205E0F00206C0F0020F5
:1040A000505C0040046000405C0F0020A73900080D
:1040B000F53800083F39000808600040540100202E
:1040C0004C5C0040704710B450F8041B81B102688A
:1040D0001218001D50F8043BDC0744BFA9F101048D
:1040E000E31852F8044B43F8044B091FF9D1EBE7EE
:1040F00010BC70474FF6F8710840DFF8A81108604F
:10410000704710B5DFF8A02152F8203048F68F1420
:104110002340194324E010B5DFF88C2152F82030F9
:1041200048F6BF742340CC0648BF83F010038906CD
:1041300048BF83F020030FE010B5DFF86C2152F880
:1041400020304BF68F742340CC0448BF83F4805357
:10415000890448BF83F4005343F4004141F08001D7
:1041600042F8201010BDDFF8401151F8202048F629
:10417000BF731A4082F0300242F4004215E0DFF8CB
:10418000281151F820204BF68F731A4082F44052C8
:1041900042F4004209E0DFF8101151F8202048F6FF
:1041A0008F631A4042F40042FFE742F0800241F878
:1041B00020207047DFF8F01051F8202052040AD573
:1041C00051F8202048F68F731A4042F4404242F0E2
:1041D000800241F820207047334951F820205206D0
:1041E0000AD551F8202048F68F731A4042F4004255
:1041F00042F0C00241F82020704738E0294A126896
:1042000092B202EBC000294A37E03BE02549096839
:1042100089B201EBC00025493AE0224A126892B205
:1042200002EBC000224A2AE01E4A126892B202EB58
:10423000C000204A02EB40003F2909DB4A091F2346
:10424000194208BF521E1204910941F4004105E0D1
:104250004A08C90748BF521C1204910901607047FF
:104260001049096889B201EBC000124914E00D4AF7
:10427000126892B202EBC0000F4A4908490042F8A6
:10428000101070470749096889B201EBC0000A495C
:1042900051F8100080B2704751F810008005800D71
:1042A00070470000505C0040005C00400860004027
:1042B000046000400C600040006000400106090CF2
:1042C00041EA1020704710B5490001F18041521CAD
:1042D00001F5C041521009E010F8013B10F8014B04
:1042E00043EA042321F8023B891C521EF4D110BD7D
:1042F000490001F18041521C01F5C041521004E017
:1043000051F8043B20F8023B521EF9D1704750F897
:10431000041B61B150F8042BD30744BFA9F101037A
:104320009A18002342F8043B091FFAD1EFE77047BF
:10433000DFF800F001000020BFF34F8FDFF8C80462
:10434000DFF8C824016801F4E06111430160BFF3A4
:104350004F8FFEE780B500F07EFBBDE8024041F6DE
:10436000027000F0D8BB10B500E0521ED2B23AB1D4
:1043700010F8013B11F8014BA342F6D0032010BD09
:10438000042010BD30B58BB000F08DF806AC9A203B
:1043900060700C20A0702020E070002020710820A8
:1043A0006071A720A071BA20E071E3202072112073
:1043B00060720620A0728520E072C0202073F72072
:1043C00060739720A0738A20E0730A23DFF84854B3
:1043D0000095012206A9022000F07AFC00285FD196
:1043E00000F061F8082300F07AF8C02020738C20D8
:1043F00060732E20A0731220E073A81C00F057F801
:1044000002200090288800F09EFC002848D100F08F
:104410004AF8092300F063F8F020207399206073B4
:104420000F20A0732120E073281D00F04AF8002817
:1044300036D100F038F8142300F051F880202073B2
:10444000AA2060739120A0732620E073A81D00F0BD
:1044500038F8002824D100F026F8042300F03FF8B3
:104460006020207357206073DC20A0732B20E07342
:1044700005F1080000F01BF812200090288800F0D9
:1044800062FC68B9698805F10C000090082328884F
:10449000002200F0ABFC20B10FF2A43000F09CFD34
:1044A00047200BB030BD66208DF81800704705908E
:1044B000002004901020039004200290002001901E
:1044C0007047059000200490102003900520029072
:1044D000002001900E200090288800F034BC9A2023
:1044E000607006AA0C20A07002212020E07000203D
:1044F000207108206071A720A071BA20E071E3202C
:104500002072112060720820A0728520E07270472E
:104510002DE9F04FDFF80483BF4E08F1800700213A
:1045200083B07960B2884188521C914222D1027ACC
:10453000417A120402EB0161C27901EB0221827916
:1045400052183A61037B417B1B0403EB0161C37A80
:10455000807A01EB03214118100AB88179610020AB
:10456000B961B860F88103B0BDE8F04F0FF2F820F0
:1045700000F032BD3B690FF2503908F1840201921C
:104580003289921C914234D1180602D0B889401C5D
:10459000B8810020F881FFF7DDFE0125002401E04D
:1045A000641CA4B2B889844207DA786900EB04205D
:1045B00000F067FA0546042DF2D000F05BFA042DF6
:1045C00011D10FF2D42000F007FD0020786000F038
:1045D0002EF908B1484608E0012000F061FD0120F5
:1045E00088F880000DE10FF20C30BDE8FE4F00F0BE
:1045F000F3BCF288521C9142F4D13C8921468029B7
:10460000F0DA7A7807E004F808C014F808C0641CEF
:104610008CEA0202A4B290F804C00CEB010EAEF1D9
:10462000040E744509DA9C423DBFA4EB010C84449E
:104630009CF806C04FF0000CE5E70CEB000191F888
:1046400002C08CEA020291F803C009793C818CEA2D
:10465000020251407970C9B24279914240F0B9806A
:10466000017EC07D00EB0122F98992B2914240F0B7
:10467000A280481CF881B88000203A897989F880A6
:104680007F24224204D0581A80285ED282425CD312
:1046900078690818B86100244FF0040BFFF75AFE40
:1046A00004E0B86954445044A4B2B86138898442E3
:1046B0002DDA001B4FF0800A04EB080B802807DB83
:1046C00072B6B8695946FFF733FE054662B613E085
:1046D0009BF802109BF80300090401EB00609BF8B3
:1046E000011000EB012014F808100918B8694FF008
:1046F000040A00F0E3F90546B86952465946FFF747
:1047000032FE8346042D08BFBBF1040FC9D000F070
:10471000B1F9EDB2042D10D1BBF1040F07D17889A6
:104720003989081878810020F88038810BE00FF271
:10473000DC1000F051FC3C2004E00FF2E81000F027
:104740004BFCFF20F88000F06DF8019800900423E6
:1047500031893088002200F049FB10B1484600F052
:104760003BFC78893969884249D3002000F0ABFCD2
:1047700079690FF2FC1000F02FFC78692849006875
:104780000840B0F1005F3AD100F0A0F97969204803
:1047900000F0AFF939690546786909181D4800F03D
:1047A000A8F9044600F09EF944EA0500042826D141
:1047B000FFF7C2FD23E00FF2EC1000F00DFC00F05B
:1047C00031F8F020F880388910383881F889B880BD
:1047D0000FE00FF2242000F0FFFB79890FF2342064
:1047E00000F0FAFBF889B8800F20F880388910387B
:1047F000388100F01CF810B1484600F0EDFB0020B5
:104800007870BDE8F78F00000CED00E00400FA05B9
:10481000F80F0808FC0F08081C020020F40D002007
:104820000000FE2F79890FF21C1000F0D5BB042385
:104830000198009000223189308800F0D7BA00003A
:104840004572726F72207768696C6520757064615B
:1048500074696E67206368617261637465726973FD
:104860007469632E0A000000496D6167652062610A
:104870007365203D20307825303858203B20496D25
:104880006167652073697A65203D2030782530386E
:1048900058200D0A000000005061676520657261B4
:1048A0007365207375636365737366756C2C207311
:1048B000656E64696E67206E6F74696669636174A2
:1048C000696F6E0D0A0000004572726F7220776882
:1048D000696C65207570646174696E67204143433B
:1048E0002063686172616374657269737469632EB1
:1048F0000A0000005061676520657261736520667B
:1049000061696C757265200D0A000000466C617368
:104910006820766572696679206661696C75726572
:10492000200D0A00466C61736820777269746520F7
:104930006D656D6F7279206661696C6564200D0A22
:10494000000000002A2A20546F74616C2062797480
:104950006573207772697474656E20696E20666C69
:10496000617368203D202564202A2A0D0A0000007A
:104970002A2A2A2A2A2A2A2A2A2A2A2A2A4A554D29
:1049800050494E4720544F20307825303858202A3F
:104990002A2A2A2A2A2A2A2A2A2A2A2A2A2A2A2A77
:1049A0000D0A000053657175656E6365206E756D47
:1049B00062657220636865636B206661696C65641B
:1049C0002C206578706563746564206672616D651E
:1049D00020232030782530325820627574203078BA
:1049E000253032582077617320726563656976657A
:1049F00064200D0A00000000496E746567726974D6
:104A00007920636865636B206661696C65640D0A73
:104A1000000000002A2A546F74616C20627974656A
:104A200073207772697474656E20696E20666C619C
:104A30007368203D202564202A2A0D0A000000000A
:104A4000DFF8FC100028086814BF40F0080020F0D0
:104A500008000860704710B5DFF8E840206880075C
:104A600007D500F033F8DFF8E000E060DFF8DC00A5
:104A7000E06010BDDFF8CC00016841F00201016088
:104A8000704738B5054600F043F8042815D1DFF823
:104A9000B440206840F400702060206840F00800B6
:104AA00020600020286000F033F8216821F0080120
:104AB0002160216821F40071216032BD38B500F019
:104AC00025F8042801D125601BE032BDDFF8740011
:104AD0000168C90705D5DFF878108160DFF8741028
:104AE00081607047DFF85C00016841F001010160FE
:104AF000704738B500F00AF8042801D1256000E0BD
:104B000032BD4FF40040BDE8324027E004460D4678
:104B10004FF4004022E01049086070470E490A68CF
:104B20000420D20701D5012070470A68D20501D5BB
:104B300002207047096811F4F05F18BF0320704726
:104B4000003C0240043C0240BFAE9D8C161514137D
:104B5000EFCDAB8905040302183C024010B582B0CA
:104B6000044604208DF80000FFF7D8FF8DF8000000
:104B700005E04CB1FFF7D2FF8DF80000641E9DF8F0
:104B800000000128F5D014B905208DF800009DF82B
:104B9000000016BD00B587B000F0AAF900F0A1F939
:104BA00040F20110ADF8060000F00FFA00284CBFEB
:104BB000FF209DF8000007B000BD70B58AB00C461C
:104BC0008DF8080015461E46072200F052F900F045
:104BD000E7F900F059F98A20ADF80E0002A8059017
:104BE0000120069000A807900720089003A800F075
:104BF000A3FB002848BFFF200CD49DF8000048B953
:104C0000BDF801002080BDF803002880BDF8050034
:104C1000308000200AB070BD76B592B0199D1B9C03
:104C200061190E311E46292928BF422017D200F0F3
:104C300047F800F03FF800F014F800F01EF800F01C
:104C400031F800F027F800F053F900F04AF983201A
:104C500000F0B4F900284CBFFF209DF8000014B00C
:104C600070BD18981A998DF822008DF821608DF882
:104C700023502A4609A800F025BC05F10800C0B25F
:104C800007AA451C8454EDB21C9907A8224628188F
:104C900000F018BCA41CE4B207A802221EA9201828
:104CA00000F010BC6419E4B207AB02221DA9E018A1
:104CB00000F008BC022213A90DF11F0000F002BC95
:104CC0008DF81C00022212A90DF11D0000F0FABBA4
:104CD00070B58CB014461D468DF81C0001280CBF21
:104CE0000226102632460DF11D0000F0EBFB701C71
:104CF00007A9C0B203224454441CE4B200A865547E
:104D0000002100F0E5FB00F0F3F800F0EAF84FF4C2
:104D1000817000F012F800F063F800F059F90028F3
:104D200048BFFF2007D49DF8000020B91098BDF8B7
:104D30000110018000200CB070BDADF8060007A87E
:104D40000390601C7047F1B58EB00D4616461F46A5
:104D500000F041F807AC012DA5700CBF022510250D
:104D60002A4631460DF11F0000F0ACFBE81CC0B232
:104D7000411C0755C9B214980855491CC9B2159869
:104D80000855491CC9B216980855491CC9B217984C
:104D900008554D1CEDB218982855032200F069F80B
:104DA00000F0A6F800F09DF84FF4827000F05AF879
:104DB000681C00F015F800F00BF9002848BFFF2030
:104DC00007D49DF8000020B91998BDF801100180A2
:104DD00000200FB0F0BD02220EA907A800F072BBA0
:104DE000C0B2049000A805900320704733B51C465C
:104DF000A01DA7B015468128A8BF42201BDA00F0ED
:104E000047F800F04AF82C998DF820508DF8214091
:104E1000224600F023F800F06BF800F062F84FF43F
:104E2000837000F01FF8A01D00F0CDF800284CBFE3
:104E3000FF209DF8000029B030BD00B589B000F01A
:104E40001CF800F0B2F840F2271000F06AF80028D1
:104E50004CBFFF209DF8000009B000BD0DF12200FD
:104E600000F030BBADF8060007A803907047044679
:104E70000222002100A800F02BBB1822ADF804008C
:104E8000002102A800F024BB3F20ADF80C007047C1
:104E9000022227A907A800F015BB022228A90DF1BC
:104EA0001E0000F00FBB10B50C461146A21CA8B0A6
:104EB000812AA8BF422012DA8DF81C008DF81D400F
:104EC000224600F069F800F013F800F00AF80C2010
:104ED00000F074F800284CBFFF209DF8000028B0B7
:104EE00010BD3F20ADF80400704700208DF8010090
:104EF0001822002101A800F0EBBA00B589B08DF8A6
:104F000004008DF8051000F054F800F04EF80F2062
:104F100000F007F800284CBFFF209DF8000009B002
:104F200000BDADF80A0001A804900220059000A879
:104F300006900120079002A800F0FEB930B58FB0AE
:104F40008DF81C008DF81D1014461D4610222146B8
:104F500000F022F812988DF82F008DF82E501822AC
:104F600013988DF8300000211498CDF83100159871
:104F70008DF8350001A800F0ABFAFFF7B2FF8620EC
:104F8000FFF770FF1A2000F01FF800284CBFFF2029
:104F90009DF800000FB030BD0DF11E0000F092BA78
:104FA0001822002103A800F093BA3F20ADF80800B2
:104FB00070471822002102A800F08ABAADF8060056
:104FC00007A80390A01CC0B2049000A8059001207F
:104FD000069001A800F0B0B90EB400B582B003A9E4
:104FE0000091024600AB0121034878440A3000F0EA
:104FF00079FA06BC5DF810FB012600002749096814
:1050000051F8200070472549496831F81000704771
:105010007CB504461425214E00F0F2FC05FB00602F
:105020000830306000F0ECFC0A210FF2DC0201FBDA
:105030000020706000F0E4FC01210FF2E00205FBAB
:10504000002050F8240000F0E3FC2046FFF7DBFFCF
:10505000009001208DF804000020ADF80600032028
:105060008DF805002046FFF7C9FF00A900F0F2FC0B
:1050700000F0C6FC08B920460AE000F0C1FC012897
:10508000204605D1FFF7BAFF00F030F8688373BD02
:10509000FFF7B4FF00F02AF8288373BD2401002035
:1050A00038B5044600F0ACFC08B9204605E000F035
:1050B000A7FC0128204600D112E0FFF79FFF00F077
:1050C00015F8688331BD38B5044600F099FC08B97D
:1050D000204605E000F094FC0128204600D1ECE7D2
:1050E000FFF78CFF00F002F8288331BD054620460B
:1050F00089E738B50446FFF781FFFFF7F7FFA98A74
:105100004840A88231BD00000100020004001000E8
:105110002000010002000100010002000400000064
:10512000040000000800000004000000040000006B
:105130000200000002000000020000000200000067
:105140000200000038B5BD4C04F1100000F0CFFCA7
:1051500004F1180000F0CBFC0025502000FB0540B6
:1051600000F1200104F1100000F0D2FC6D1C052DAF
:10517000F3DB31BD70B5B14C00F10803A360002131
:1051800063782BB9A38003E0042B4CD10323637015
:10519000A388472B47DAA3885D1CA580A56866789D
:1051A0005B5D002EF0D0032E08BF0623EFD0042E47
:1051B00008BF0523EBD0052E08BF0723E7D0072E35
:1051C00008BF0823E3D0082E04D1B5F8032000213E
:1051D0000923DCE7062E01D11A46F8E7092ED7D1BC
:1051E000491C89B292B29142D2D30021617000F180
:1051F00008014A1C0978042908D111780E2918BF22
:105200000F2903D0014604F1180002E0014604F121
:10521000100000F07DFCE06828B1A188A068E26879
:10522000BDE87040104770BD10B594B000200090EC
:1052300000F017FE814C11E000A904F1180000F005
:1052400075FC00F011FE0098083001F081F800F0C4
:1052500008FE009904F1100000F05AFC04F1180057
:1052600000F048FC0028E7D0207848B90DE047213D
:1052700001A800F01EFEC0B210B101A801F068F84C
:1052800000F0E4FD0028F2D1207000F0EDFD14B034
:1052900010BD10B582B00020009000F0F2FD674C08
:1052A00006E0009904F1100000F02BFC00F0E9FD8D
:1052B00000F0FAFCC8B104F1100000F01BFC80B94A
:1052C00000A904F1100000F031FC009847210830DB
:1052D00000F0EFFDC0B20028E3D00098FFF74AFFCE
:1052E000E4E70120207000F0CCFD13BD01F06AB9A5
:1052F00030B5890583B0890D41EA8020ADF80400FE
:10530000144601208DF800001D468DF8064003224A
:1053100001A90DF1010000F0D5F823460422294629
:1053200000A8FFF7E3FF00203EBD80B500F099FD27
:1053300042480121817001BD2DE9FC4104463F4FE7
:10534000608821888005800D40EA81253C480068FE
:105350000A21B0FBF1F60020B8703A48F860E26824
:10536000A36861882088D2B2FFF7C2FF00285DD40D
:105370004FF00A082CE0012E0BDB314600A801F0AB
:105380003FF900A801F044F900284FD1B87800286F
:10539000F7D0B86802461178042915D1C11CB88825
:1053A0005278C01E0E2A2CD00F2A04D0102A3DD0CD
:1053B0003E2A2ED008E04A88ADB2AA4204D16268E3
:1053C0000F2A0ED0087888BB0020B87000F04CFD82
:1053D0005FEA0800A8F1010828D0002ECBD10126F1
:1053E000CBE762699042C8BF1046606102462069FF
:1053F00000F068F80020F86000F036FD0020BDE8FD
:10540000F681B1F80120ADB2AA42DDD1C91CC01E9F
:10541000E7E70A7863689A42D6D16269401E9042F3
:10542000C8BF104660610246491CE0E70020F860F2
:1054300000F01AFD4FF0FF30E1E70000440C0020BF
:105440002C7600082B5300081822002101A800F038
:105450003FB830B58FB000F01DF88DF81C40202CFF
:10546000A8BF1F2400F01DF8FFF7EEFF00F01FF8A3
:105470000920ADF8060007A803902020049000F052
:105480001AF8002802D49DF8000008B14FF0FF3050
:105490000FB030BD04460D462022002107A800F0C1
:1054A00017B8224629460DF11D0000F00BB8082060
:1054B000ADF80400704700A805900120069001A8EF
:1054C000FFF73ABF10B5044601F0AEF8204610BD14
:1054D00010B5044610460A460146204601F0E0F8A1
:1054E000204610BD2DE9F04F93B0804602AE00205B
:1054F00014461D460291B0610DF1300A0AE014F81D
:10550000011B0298C0470290002800F0B481B069E6
:10551000401CB061207808B9B069AEE12528EED111
:105520000020F0603061706101E040F0010014F88B
:10553000011F2029F9D023290DD02B2904D02D2992
:1055400006D030290AD00CE040F0020080B2EEE72D
:1055500040F00400FAE740F00800F7E740F01000E0
:10556000F4E72A290DD129680A1D2A6009683162E9
:10557000002904D5494240F00400316280B2641C25
:1055800013E0002131620BE0316A6FF00043994271
:1055900005D001EB810302EB430130393162641C19
:1055A0002278A2F130010A29EED321782E2903D0E6
:1055B0004FF0FF31F1611EE014F8011F2A2906D1D6
:1055C00029680A1D2A60641C0968F16113E0002142
:1055D000F1610BE0F1696FF00043994205D001EBF6
:1055E000810302EB43013039F161641C2278A2F19E
:1055F00030010A29EED3B0840FF28030217801F017
:1056000083F808B114F8010B8DF82E009DF82E00D8
:10561000682804BF2078682803D162208DF82E0006
:10562000641C0CA8B0602278252A13D0582A34D0E4
:10563000632A00F0A580642A18BF692A68D06F2AFF
:105640002BD0702A20D0732A09D0752A18BF782A47
:1056500023D09FE0F068411CF160252197E0286885
:10566000011D29600068F2697060002A02D501F00E
:1056700057F807E0002101F06FF800281ABF7168A1
:10568000401AF069306191E02868011D2960782195
:10569000006801900CA870606EE09DF82E306C2BB5
:1056A00008BF286811D0712B08BF286802D028686D
:1056B0006A2B0AD1C01D20F007002860014601F1C5
:1056C00008002860D1E9000102E0011D296000689E
:1056D0000190682B02D101A8008803E0622B02D15F
:1056E00001A80078019096F8240000073FD50198A2
:1056F00000283CD042F02000782838D1F0683021D2
:1057000000F80A10401C411CF16000F80A202EE04D
:105710009DF82E00622802D0682806D00BE0286889
:10572000011D296090F9000009E02868011D296029
:10573000B0F9000003E02868011D296000680190AD
:10574000002804D5F068411CF1602D210DE0B08CDB
:10575000810704D5F068411CF1602B2105E0C007EA
:1057600005D5F068411CF160202100F80A10F068AE
:105770000CA940187060114601A800F081F815E0EE
:10578000F068411CF16029680A1D2A60096800F868
:105790000A100BE0F068411CF160252100F80A10A6
:1057A00022B1F068411CF16000F80A20306AF1680B
:1057B000401A7169401A3169A0EB010996F824007A
:1057C000641C40070FD420208DF80000002708E05B
:1057D000012300AA01A9404600F0B9F800284AD1E7
:1057E0007F1C4F45F4DBF7680DF1300B0AE01BF826
:1057F000011B0298C047029000283CD0B069401CB1
:10580000B0617F1E002FF2D130208DF800004FF0E4
:10581000000B776908E0012300AA01A9404600F0C7
:1058200096F840BB0BF1010BBB45F4DB3769D6F8AA
:1058300004B009E01BF8011B0298C0470290D0B1E8
:10584000B069401CB0617F1E002FF3D196F8240090
:1058500040077FF55FAE20208DF8000000E07F1C40
:105860004F45BFF657AE012300AA01A9404600F0FC
:105870006EF80028F3D04FF0FF3013B0BDE8F08F82
:10588000F0B4C2686F2908BF082405D041F0200396
:10589000782B14BF0A24102406681823374664297D
:1058A00018BF692902D1002E48BF7F425FB9056A3F
:1058B0004DB9082C27D190F82810090723D530219D
:1058C0001723D1751FE0B7FBF4F604FB16773037CA
:1058D0005D1EFFB22B463A2FA4BFA1F1510C6744C5
:1058E000AF54370003D085689E18B542EBD3082C1F
:1058F00009D190F82810090705D5995C302902D004
:105900005B1E30219954C3F1180141619A188260DD
:10591000026A914208DA511A81614FF6EF72018DE5
:1059200011400185F0BC7047002A0ED590F8282060
:1059300002F01402102A08D1426A0369D21A83695C
:10594000D21A531A012BA8BF8361F0BC7047F8B577
:1059500004460D4616461F46002004E0E869401C38
:10596000E8617F1E002047B116F8011B6868A04758
:1059700068600028F2D14FF0FF30F2BD686C747A95
:105980004C00000010B584B00121082000F040F860
:1059900001208DF8040000208DF8070003208DF809
:1059A000050000208DF806000420009000A9164C88
:1059B000204600F04FF8A08A40F00400A0820020AA
:1059C00002E09DF80800401C8DF808009DF80800D2
:1059D0000028F6D0208A0D490006800E00F0010054
:1059E00080F00100087000A900208DF80400204616
:1059F00000F030F8A08A4FF6FB710840A0821FBD6E
:105A00000248007870470000000C02406B0F002035
:105A10000D4A0029116814BF084321EA00001060F4
:105A200070470A4A0029116814BF084321EA0000A0
:105A300010607047064A0029116814BF084321EA24
:105A400000001060704700001C38024020380240FF
:105A500024380240F0B5002201230C6893401C401A
:105A60009C4222D1066854000325A5400F79ED43DE
:105A70002E40A7403E4306600E79012E18BF022E2D
:105A80000CD186684F792E40A7403E4386608688B9
:105A900026EA03038E79964033438380C3682B4004
:105AA000CD7905FA04F42343C360521C102AD3D3E2
:105AB000F0BD008A0022084218BF0122104670473C
:105AC0000AB1018370474183704710B5CB0800EBE2
:105AD000830001F007018900036A0F248C40A3436F
:105AE000036202FA01F1036A1943016210BD00600A
:105AF000406070470168814201D101207047002059
:105B0000704702680A604860016008684160704739
:105B1000086042684A6041604868016070474168B7
:105B200002680A60016840684860704710B50C461A
:105B3000016821600068FFE7FFF7F1FF206800219E
:105B400001602068416010BD38B5FFF759FFDFF8EC
:105B50004855DFF8484505EB80004069E060FFF7F5
:105B60004FFF05EB8000C0692061FFF749FF0FF28E
:105B7000605151F820006061FFF742FF05EB8000A3
:105B8000406AA061FFF73CFF0FF24C5151F8200032
:105B9000E061FFF735FF05EB8000C06A2062FFF788
:105BA0002FFF0FF23C5151F820006062FFF728FFF1
:105BB00005EB40000089E080FFF722FF405D207088
:105BC000FFF71EFF05EB8000406BA062FFF718FF98
:105BD0000FF2145151F82000E062FFF711FF05EBBE
:105BE000400080892081FFF70BFF401980786070AA
:105BF000FFF706FF05EB8000C06B2063FFF700FF97
:105C00000FF2EC4151F820006063FFF7F9FE05EB5D
:105C10004000008A6081FFF7F3FE40190079A07010
:105C2000FFF7EEFE0FF2D84151F82000E864FFF7CD
:105C3000E7FE05EB8000406CA063FFF7E1FE0FF28A
:105C4000B84151F82000E063FFF7DAFE0FF2B841E7
:105C500051F820002064FFF7D3FE0FF2B441405CFE
:105C6000E070FFF7CDFE0FF2AC41405C2071FFF712
:105C7000C7FE0FF2A441405C6071FFF7C1FE18B18E
:105C8000FFF7BEFE01280CD101214FF48040FFF741
:105C9000D1FEE86C012140F00600FFF7B9FE0020BC
:105CA00032BD4FF0FF3032BDDFF8F003C16B806BC7
:105CB00089B2FFF7FEBE30B58BB00446FFF744FF54
:105CC00010F1010F00F09E80DFF8D0532A78E988A8
:105CD000286AFFF7FAFE6A782989A86AFFF7F5FEB5
:105CE000AA786989286BFFF7F0FEE969A86900F0D6
:105CF00038F9E86900F0D2F8A869FFF7ABFE00F0C8
:105D00009BF8686B009000A902208DF80400032026
:105D100000F07AF801208DF80700286BFFF79AFE53
:105D200002208DF8070000A9E86A0090A86AFFF732
:105D300091FE01208DF8070000A9686A0090286A8A
:105D4000FFF788FE6969009101208DF804000122A7
:105D50000020ADF8060089B203208DF805002869FF
:105D6000FFF7AEFE286900A9FFF774FEE86B00F0AC
:105D70008CF8A86BFFF76EFE0020ADF8140005A9A3
:105D80004FF48270ADF8160000200690ADF81C00AC
:105D90004FF40070ADF81E000820ADF82000002080
:105DA000ADF822000720ADF82400E86800F000FDFF
:105DB000E868012100F018FD012C22D12979E8784A
:105DC00000F032FD286C039000208DF810000820B0
:105DD0008DF8110001208DF8120003A800F03AFDA3
:105DE000286C00F069FD68798DF8080000208DF8B6
:105DF00009008DF80A0001208DF80B0002A800F0C0
:105E000068FD00200BB030BD8DF8050000208DF836
:105E10000600704710B5A14C00F008F8052000F00E
:105E2000B2FD00F09CF8BDE810400CE0E169A0690B
:105E3000002289B2FFF744BE9848C16980690022F8
:105E400089B2FFF73DBE052000F09DBD80B59348A7
:105E5000C16B806B89B2FFF72CFE012818BF0020B0
:105E600002BD8E488E4A01E08C488E4A90F90500AA
:105E70004109012300F01F0003FA00F042F821005D
:105E800070478648006C00F017BD009000A9002004
:105E90008DF8040002208DF807007047009000A9DB
:105EA00001208DF8040000208DF80500ADF80600F3
:105EB00070472DE9FF4188460FF2FC1104460CC9DA
:105EC00002A8764F0CC0796938690025FFF7B0FF4A
:105ED0002E4602A8315CF86800F092FCF8680221B6
:105EE00000F090FC0028F9D0F86800F0E2F80028F3
:105EF000FAD0F86800F082FC00A97054761C052ED8
:105F0000E7DB9DF80000022821D19DF804009DF8F0
:105F1000031051EA00261AD0B04515DA464613E0C0
:105F2000F868FF2100F06CFCF868022100F06AFCC0
:105F30000028F9D0F86800F0BCF80028FAD0F8681A
:105F400000F05CFC28556D1CEDB2B542E8DB7969C8
:105F5000386900F006F8284604B0BDE8F081E16930
:105F6000A069012289B2FFF7ABBD2DE9F04F894648
:105F700087B092469B460FF2481180460CC905A88F
:105F80000FF244110CC00CC903A800240CC0FFF789
:105F900068FF424DE86B00908DF8064001208DF8B7
:105FA000040000A903208DF8050002208DF80700E9
:105FB000A86BFFF74FFDE96BA86BFFF7D2FF0294C8
:105FC00003E000BF0298401C02900298B0F5D27F17
:105FD000F7DB69692869FFF72BFF274603AE05A8A1
:105FE000395CE86800F00CFC00F05EF80028FBD09B
:105FF00000F05EF80028FBD0E86800F0FFFBB85521
:106000007F1C052FEBD38DF8044000A9A86BFFF788
:1060100021FD9DF80C00022831D170780BEB0A01AC
:10602000884229DB002610E016F80810E86800F026
:10603000E7FB00F039F80028FBD000F039F8002821
:10604000FBD0E86800F0DAFB761C5645ECD300275D
:106050005F4516D217F80910E86800F0D1FB00F090
:1060600023F80028FBD000F023F80028FBD0E868D4
:1060700000F0C4FB7F1CEBE76FF0010401E04FF080
:10608000FF3469692869FFF76CFFFFF7EDFE2046D2
:1060900007B0BDE8F08F0000D4000020900E002073
:1060A00080E100E000E100E0E868022100F0AABB26
:1060B000E868012100F0A6BB0B0000000000000012
:1060C0000A00000000000000AA000000000000001C
:1060D0000010000000100000002000000020000060
:1060E0000080000000800000004000000040000030
:1060F0000020000000200000000400000004000058
:106100000400000002000000000400000004000081
:10611000020100000A0A00002828000030B585B0FE
:106120004FF460514FF0006000F0FFFBFFF72AFCD6
:1061300000F032FC00F043FC002000F051FD012093
:10614000FEF77EFC012000F051FD002000F04BFD29
:106150004FF4C06000F0B8FB00F001FC4FF4FA709F
:1061600000F011FCA14800F04BFD64249DA52846D9
:10617000FEF732FF282000F006FC641EF7D1FEF780
:10618000E1FF0120FFF797FDFFF744FE0020FEF737
:106190003FFF0120FEF73CFF0FF260210CC900A871
:1061A00006210CC000AA0020FEF77DFE18B10FF2F8
:1061B0005420FEF711FFFEF7EDFC18B10FF260203E
:1061C000FEF70AFF00AB0DF1020201A90120FEF764
:1061D000F4FC18B10FF25C20FEF7FEFE01200390E4
:1061E0000723834802900022002001900021102004
:1061F00000900120FEF7A2FE0FF24C20FEF7ECFE0D
:10620000FFF7FEFB01460FF25820FEF7E5FE00F017
:1062100007FD00280CBF0FF278200FF29420FEF744
:10622000DBFEFEF7AFF800280CBF0FF2A4200FF240
:10623000C420FEF7D1FE04210120FEF75EFE6D4C66
:1062400000F09EFBA2686188801A814205D200207E
:10625000FEF74FFF00F094FBA060FEF7E5FF00F0B3
:106260006BF8EDE700B58BB007A80FF2AC21102258
:1062700000F0EAF960491220FFF7EBF80FF2A820CE
:10628000FEF7AAFE002006900590049003900023DC
:1062900007A802900D2001900020009002460146C0
:1062A000FEF7BAFC014650A0FEF796FE0BB000BD0B
:1062B000F8B5504D0446686840F0010068602980D8
:1062C0000FF28020FEF788FE0FF290270526315D41
:1062D0003846FEF781FE761E012EF8DA21780FF29D
:1062E0008420FEF779FE7D206880F1BD10B5414C19
:1062F000606820F0010060600FF27020FEF76CFE15
:10630000606840F002006060606820F00400606037
:10631000606820F480706060606820F400706060E5
:10632000606820F480606060606820F400606060F5
:106330004FF4FA70608010BD10B52E4C6068800775
:1063400005D5FFF78FFF606820F00200606010BD88
:10635000411C0078042800D0704710B50878052843
:1063600004D03E2805D0FF280ED010BDBDE8104057
:10637000BCE7881C0178012932D1401CBDE81040DF
:10638000B0F80110401D93E7881C4FF400620188AB
:10639000891A19D040F20142891A02D013390BD060
:1063A00010BD841C2046FEF7B3F821796088621D79
:1063B000BDE8104000F085BC0E48018881B100881E
:1063C000BDE81040FEF739BDB0F80900002814BF41
:1063D0000FF2A8100FF2C810BDE81040FEF7FCBD88
:1063E00010BD00002E00000025640A008D73000817
:1063F00040E201004402002030020020AA0000E137
:106400008002000053657474696E672042445F41E6
:10641000444452206661696C65642E0A00000000E5
:10642000474154545F496E6974206661696C6564C4
:106430002E0A00004741505F496E69742066616909
:106440006C65642E0A000000424C45205374616361
:106450006B20496E697469616C697A65642E0A0003
:106460005345525645523A20424C4520537461637D
:106470006B20496E697469616C697A656420287063
:106480006C6174666F726D3A202564290A00000001
:106490005365727669636520616464656420737511
:1064A000636365737366756C6C792E0A0000000077
:1064B0004572726F72207768696C652061646469E7
:1064C0006E6720736572766963652E0A00000000AE
:1064D00042746C20736572766963652061646465DB
:1064E00064207375636365737366756C6C792E0ACB
:1064F000000000004572726F72207768696C652039
:10650000616464696E672042746C20736572766999
:1065100063652E0A0000000009426C75654E524703
:106520005F4368617400000047656E6572616C20AE
:10653000446973636F76657261626C65204D6F6448
:1065400065200000436F6E6E656374656420746F30
:10655000206465766963653A000000002530325892
:106560002D000000253032580A0000004469736392
:106570006F6E6E65637465640A0000003E20436FB1
:106580006E6E656374696F6E20706172616D6574A3
:106590006572732072656A65637465642E0A000013
:1065A0003E20436F6E6E656374696F6E207061721A
:1065B000616D657465727320616363657074656491
:1065C0002E0A0000F0B504460C4800680D460A216A
:1065D00083B0B0FBF1F116461F4600A800F010F89A
:1065E000FBB2F2B229462046FFF7BFFC20B100A85B
:1065F00000F00EF80028F3D0F7BD00002C7600085C
:1066000010B504466160FFE700F0BAF9206010BDE4
:1066100010B5044600F0B4F92168401A6168401CC6
:1066200081428041C00F10BD62B38B0708D0521E5B
:1066300011F8013B00F8013B00F024808B07F6D1F4
:10664000830740F0208000BF103A07D330B4B1E890
:106650003810103AA0E83810F9D230BC530724BFE4
:10666000B1E80810A0E8081044BF51F8043B40F816
:10667000043BD20724BF31F8022B20F8022B44BF81
:106680000B7803707047083A07D3B1E80810083A4E
:1066900040F8043B40F804CBF7D25307E4E700008E
:1066A00062F30F2262F31F42401810F0030308D078
:1066B000C91A1FD3DB0748BF00F8012D28BF20F8F7
:1066C000022D130030B414461546103928BF20E9B6
:1066D0003C00FAD8490728BF20E90C0048BF40F821
:1066E000042D890028BF20F8022D48BF00F8012D95
:1066F00030BC7047C91818BF00F8012DCB0728BF60
:1067000000F8012D704700000278C9B28A421AB120
:106710001CBF10F8012FF9E718BF002070470000D8
:1067200000F10103810704D010F8011B89B1810732
:10673000FAD10268B2F10131914311F0803F04BFF8
:1067400050F8042FF6E710F8011B11B110F8011BE7
:10675000FBE7C01A70470000C9B2830706D0521E7B
:1067600022D310F8013B9942F7D11FE0083A13D326
:1067700002F1040241EA012141EA014150F8043BDF
:10678000121F21BF4B40A3F1013C2CEA030C1CF06B
:10679000803FF3D0C9B2001F083210F8013B521EEF
:1067A00028BF91EA030FF8D818BF0120401E704798
:1067B00002880B8802F441521A434B881A438B8893
:1067C0001A43CB881A430B891A434B891A438B8986
:1067D0001A43CB891A4302804FF2FF73828B1A400F
:1067E0008283098A018270470029018812BF41F023
:1067F00040014FF6BF721140018070478089704799
:106800008181704700890022084218BF012210468A
:10681000704700000D490028086812BF40F00100D1
:10682000400840000860704730B501F0030221F0D5
:106830000301074B9200CC580F259540AC43CC5038
:106840009040CC582043C85030BD000004000140A7
:106850000800014030B501688279CB4318492AB35A
:106860000A4614682340136053680468A3435360C6
:106870000379CC18236805682B4323609368046868
:10688000A3439360D3680468A343D3604379056846
:10689000102B07D1916829439160D16800680843A3
:1068A000D06030BDCC182068284303E000790C1874
:1068B00020681840206030BDFFE70249086070473B
:1068C00000040140140401401B4908431B490860AF
:1068D000704770B50378C4781A460121ECB1174BA4
:1068E0001B68447803F4E063C3F5E0631B0AC3F15B
:1068F0000405AC4085780F2626FA03F32B4023438A
:106900000F4C1B01135500780E4B420900F01F007D
:1069100001FA00F043F8220070BD50090A4A03F062
:106920001F03994042F8201070BD084A11400843E7
:1069300007490860704700000000FA050CED00E010
:1069400000E400E000E100E080E100E080FFFF1FE4
:1069500008ED00E00F480168491C0160704780B5F0
:1069600072B6042000F01CFA47F6FF4000F022FA4D
:10697000012000F034FA012000F01FFA62B601BDD8
:1069800004480068704703490A680B689B1A8342F1
:10699000FBD370474C0F002080B501213F20FFF74B
:1069A00037F801210120FFF73CF8DFF8F00103215F
:1069B0000160DFF8EC1181600021416001BD30B55C
:1069C00083B003208DF804004FF6FF7400208DF88B
:1069D000070000944FF0FF30DFF8C851DFF8C8110E
:1069E00028600860DFF8C411086000A940F2FF7059
:1069F0000090DFF8BC01FFF72DF84FF6E77000902C
:106A000000A900F028F8DFF8AC01009400A9FFF716
:106A100021F8009400A92846FFF71CF837BD012192
:106A20004FF40000FFF706B880B54FF4C060FFF7E1
:106A30004BFF142000F001F801BD8DF8000001208B
:106A40008DF8010000208DF8020001208DF8030070
:106A500000A8FFF73EBF5848FEF7FCBF00B1012079
:106A6000FFF7D8BE80B50121544800F0C7F954485B
:106A70000121017001BD53480178012900D17047FF
:106A800010B58168B1F5FA6F04BF002181604168DB
:106A900082688A4202D10021017010BD8268914251
:106AA00039BF8168C1F5FA618268891A8368412912
:106AB00005D38268403240248260403904E0826815
:106AC0000C46891881600021C1609BB201210170D0
:106AD000A2B23D48C0211818FDF7F5FBA1B2012074
:106AE000FDF79BFBBDE810400120FDF73CBB35499D
:106AF000354B4A68D054501CB0F5FA6F08BF0020DF
:106B00004860704738B531484468016840694018AA
:106B10000BD02F4D0822A91C00F008F805F1120136
:106B20002046BDE83840042200E031BD30B50023E6
:106B3000002506E001F81340000101EB43045B1C53
:106B40006570934205DA040F0A2C34BF30343734B1
:106B5000F0E730BD38B51B494A6804464FF6FF7070
:106B60008B685B1E9A4205D0B2F5FA6F04BF8B6842
:106B7000002B03D10346581E012BF1DA48B90FF25E
:106B8000540503E015F8010BFFF7B1FF2878002842
:106B9000F8D1E0B2FFF7ABFF204632BD2838024003
:106BA00001000010000C02400010024000140240DE
:106BB00000000240000802400004024000040040BF
:106BC0006A0F00203C0F00206C0200205000F81FCC
:106BD000C80100200A4F564552464C4F570A000044
:106BE0000449086070470449086070470349086019
:106BF0007047000010000E4228000E4224000E4292
:106C000010B50446FFF70BFFFFF70EFF00F0FAF890
:106C10000248046010BD014A12681047500F00205E
:106C200010B592B00EA80FF2E4011022FFF70CFD90
:106C30000AA80FF2E8011022FFF706FD06A80FF2DE
:106C4000EC011022FFF700FD2E4C009407230122D7
:106C50000EA90220FEF73CF860BBA01C059014238F
:106C6000012004900AAA1020039002210020029023
:106C70000190102000902088FEF765F8D0B9201D03
:106C8000059014230120049006AA102003900221ED
:106C900001200290002001900C2000902088FEF737
:106CA00052F838B9A28861880FF29000FEF794F983
:106CB000002004E00FF2C400FEF78EF9472012B066
:106CC00010BDF8B50D460F4914468A88521C9042F3
:106CD00009D100260AA7AE4211DA315D3846FEF727
:106CE0007BF9761CF7E74988891C884204BF207825
:106CF000012804D10448016841F004010160F1BD9C
:106D0000256300003E0C002048020020669A0C20FB
:106D10000008969EE2119EB1E0F273D9669A0C20AB
:106D20000008969EE2119EB1E1F273D9669A0C209A
:106D30000008969EE2119EB1E2F273D94368617435
:106D400020536572766963652061646465642E0A08
:106D5000545820436861722048616E646C65202538
:106D60003034582C20525820436861722048616E9C
:106D7000646C6520253034580A0000004572726F3B
:106D800072207768696C6520616464696E6720436E
:106D900068617420736572766963652E0A0000006D
:106DA0001449042808680CBF40F0040020F00400D7
:106DB000086070471049086070470E49012803D1E8
:106DC000086840F0010005E010F1020F04D10868E6
:106DD00040084000086070470020886070470549FF
:106DE0000028086814BF40F0020020F0020008608C
:106DF0007047000010E000E014E000E0FFE7C94346
:106E0000018270470448054AC06102210172426252
:106E10000349016208680047140F00208401002024
:106E20005401002080B5FFF76DFE72480068002114
:106E3000817200F0F3F800F007F900216E4801605C
:106E400001BD80B56B48016800228A726B4A0168F7
:106E5000D2794A7200210068C1720020FDF74AF918
:106E60004FF400710020FDF74CF910210020FDF7D0
:106E700052F940210020FDF7C1F980210020FDF7E3
:106E8000BCF90020FDF787F95D4890F82C10002030
:106E9000FDF7CAF90020FDF772F900210120FDF786
:106EA00030F9C0210120FDF7A8F920210120FDF7CC
:106EB00032F900210120FDF73FF94FF4C0610220B3
:106EC000FDF71FF94FF480710220FDF796F90021BC
:106ED0000220FDF731F920210220FDF71CF90021E5
:106EE0000320FDF70EF94FF488710320FDF786F9B2
:106EF00040210320FDF798F94FF440510320FDF79E
:106F00001BF900210320FDF706F90020FDF79CF88E
:106F100039480121016001BD3A48807A10B13648F4
:106F200005210160704734480421016070477047B3
:106F3000704780B5212809D12E480068007800F0FC
:106F40007F00212815D10FF2910110E0202810D1E7
:106F500028492D480968097801F07F01212902D0CC
:106F60002021017005E020220FF275010270080057
:106F700001D1022002BD00221E48006881614282C8
:106F800000208847002002BD1A490968097801F0ED
:106F90007F01212905D1022818BF222801D1002014
:106FA0007047022070471949FCF7F0BD1849FCF7FB
:106FB000EDBD10490968C978052901DB002070473B
:106FC000144A02EBC101FCF7E1BD09B9022801DB5B
:106FD000022070470020704700B905E002E0000081
:106FE00000B901E00C48704702480068082101829E
:106FF00000207047300F0020640F0020E872000866
:1070000054010020140F00206E0F002058020020B1
:1070100060020020A80100205002002080B501205D
:10702000FFF71CFD0648074A0121016000210160AD
:1070300041604FF4E05111800160002002BD00006A
:10704000405C0040680F00200448054A0021416070
:107050004FF406411180016000207047405C004001
:10706000680F002070B500F07F050C462846FDF73C
:10707000F7F806462846FDF7C9F80146324620468D
:10708000FDF736F9304670BD2DE9F84F0020ADF818
:10709000000048F28004464D464EDFF81C91DFF8B0
:1070A0001CA148F60F7840F68F7B4BF6BF7725E0A2
:1070B00056F82010ADF80010BDF8001009040BD5EB
:1070C00056F820100BEA010146F820103C4901EB6C
:1070D000800050F8040C8047BDF8000000060DD574
:1070E00099F8000056F8201008EA010146F820102F
:1070F000344901EB800050F8040C8047706CAAF80A
:107100000000000452D5BAF8000010F00F0089F812
:107110000000CDD130682880288800F030006880D9
:10712000288800F4405028803068384080F40050AF
:1071300080F0200020433060BAF80000C0063068BC
:1071400005D408EA00003060FCF7E0FE16E0ADF878
:107150000000BDF80000000506D530680BEA00000D
:107160003060FCF79FFE09E0BDF800000004C5D5C3
:1071700030680BEA00003060FCF7EDFE30682988CB
:107180003840C90448BF80F480502988890448BF2A
:1071900080F400506988C90648BF80F010006988F3
:1071A000890648BF80F0200020433060BDE8F18FA1
:1071B0005C0F0020005C00406D0F0020620F00207B
:1071C00000020020E40100203C483D4A83B00168F1
:1071D00041F480710160816811408160394A016821
:1071E00011400160016821F480210160816821F46F
:1071F0007D0181600021C1600191009102910168CF
:1072000041F001010160016801F002010091009963
:1072100019B90199B1F5A04FF5D10168490801F0FC
:10722000010100910099012907D1816821F47D01B4
:107230008160816841F48801816023490A6842F0D5
:1072400004020A600A6842F002020A600A6842F018
:1072500001020A604FF40062416A41F080514162CC
:107260001A490A604A68D206FCD481688160816844
:10727000816081688160816821F47D01816081681D
:1072800041F408018160016841F08071016001688A
:107290008901FCD58168890889008160816841F095
:1072A00003018160816801F00C010C29FAD14FF0D3
:1072B00000610748016003B07047000000380240D9
:1072C0000CC0FF88FEFFFEEE003C02400070004054
:1072D00008ED00E012010002020000408304405764
:1072E000000201020301000009024300020100C084
:1072F000320904000001020201000524001001050A
:10730000240100010424020205240600010705826D
:10731000030800FF09040100020A0000000705033A
:107320000240000007058102400000000403090438
:107330002603530054004D006900630072006F0083
:1073400065006C0065006300740072006F006E00E1
:1073500069006300730000003203530054004D00C5
:10736000330032002000560069007200740075007E
:1073700061006C00200043004F004D0020005000D1
:107380006F00720074002000200000002DE9FE4F05
:10739000804689460025DFF898A0DFF898B0264C93
:1073A00003E00020A4F800026D1CE8B248453DD27D
:1073B000B4F80002B0F5FF7FC4BF0020A4F80002BB
:1073C000EDB2B4F8000215F808100155401CA4F8FD
:1073D000000280B2011911F8011C0A29E4D1012828
:1073E000DFD00026065518E0144800680A21414302
:1073F00001A8FFF705F930190090FBB2BBF80010A7
:10740000BAF800000022FDF7F1FC642804D101A8BD
:10741000FFF7FEF80028EED0BE19B4F8000286424D
:10742000BFDA871B152FDFDB1427DDE7BDE8F78FF9
:107430003E0C0020400C00203C0A00202C76000866
:1074400038B524480178012924D123490A681AB99A
:1074500000210170002414E020480368412A1D46E1
:1074600003D340244033403A02E01446D3180022AC
:1074700003600A60ADB21A48A2B2C0212818FCF716
:1074800022FFA1B20120FCF7C8FEBDE83240012076
:10749000FCF769BE31BD10B5124C21460320FFF741
:1074A000E1FD81B22046FFF7B6FBBDE810400320A6
:1074B000FCF765BE0C480068052809D10B48016837
:1074C0004A1C0260012903D100210160FFF7D3BAF1
:1074D000704700003C0F0020480F0020440F0020A0
:1074E0006C020020D40E0020640F0020580F0020F2
:1074F00070B5134D134C2868134E60806088318836
:107500000840800507D54FF6FF5028602078401CC2
:107510002070FFF7CFFF608831880840000448BF23
:10752000FFF7B2FD608831880840400507D54FF667
:10753000FF302860BDE8704004484068004770BDD7
:10754000445C0040600F0020680F002054010020C0
:1075500010B5074979441831064C7C44163404E0D0
:107560000A68081D511888470146A142F8D110BD8C
:10757000080000002800000097CDFFFF040D000068
:107580006C020020000000003FCBFFFF6C020000F7
:1075900048010000000000200000000000F00BF88F
:1075A000002801D0FFF7D4FF0020C046C046FEF7F8
:1075B000B5FD00F002F80120704700F001B80000AE
:1075C0000746384600F002F8FBE7000080B5C046E9
:1075D000C046024A11001820ABBEFBE7260002009D
:1075E0007047FEE7FEE7FEE7FEE77047704770472B
:1075F000FFF77EBFFDF74DBE38B504460D46284661
:10760000FFF7A8FAA84218BF0024204632BD0000A8
:107610000148804701480047C971000821760008E9
:10762000C046C046C046C046FFF7B8FFE8030000AA
:10763000FFF7FEBFFFF7FEBFFFF7FEBFFFF7FEBF7E
:10764000FFF7FEBFFFF7FEBFFFF7FEBFFFF7FEBF6E
:10765000FFF7FEBFFFF7FEBFFFF7FEBFFFF7FEBF5E
:10766000FFF7FEBFFFF7FEBFFFF7FEBFFFF7FEBF4E
:10767000FFF7FEBFFFF7FEBFFFF7FEBFFFF7FEBF3E
:10768000FFF7FEBFFFF7FEBFFFF7FEBFFFF7FEBF2E
:10769000FFF7FEBFFFF7FEBFFFF7FEBFFFF7FEBF1E
:1076A000FFF7FEBFFFF7FEBFFFF7FEBFFFF7FEBF0E
:1076B000FFF7FEBFFFF7FEBFFFF7FEBFFFF7FEBFFE
:1076C000FFF7FEBFFFF7FEBFFFF7FEBFFFF7FEBFEE
:1076D000FFF7FEBFFFF7FEBF2DE9F041234F044641
:1076E000386840F0010038608846002600F01AF83B
:1076F000042815D100F01FF840F00800286058F861
:10770000040B44F82600761C202EF8D300F00AF86B
:10771000296821F008012960296821F48061296025
:1077200003E028604FF4004024E03968490849002C
:107730003960BDE8F0810C4D286840F48060286015
:10774000286870470A490A680420D20701D5012039
:1077500070470A68D20501D502207047096811F404
:10776000F05F18BF03207047043C024008E000E0CF
:10777000183C024010B582B0044604208DF8000089
:10778000FFF7E0FF8DF8000005E04CB1FFF7DAFFEE
:107790008DF80000641E9DF800000128F5D014B992
:1077A00005208DF800009DF8000016BD05050505B3
:1077B000050500000F000F000E000E000D000D006B
:1077C000003800400038004000040240000402403D
:1077D0000008024000080240000402400004024089
:1077E0000004024000040240000402400004024081
:1077F00000080240000402400000000000000000F9
:10780000000000000008024000080240000C024096
:107810000008024000080240000402400004024048
:10782000000402400004024000040240256E0008EB
:10783000436E00082F6F0008316F0008336F000897
:10784000896F0008CB6F0008A76F0008AD6F0008B4
:10785000B36F00080000000040000000C5400008B1
:10786000196F0008C5400008C5400008C540000861
:10787000C5400008C5400008C5400008276F000843
:107880002C7300080400000030730008260000007C
:107890005873000832000000C80100201A000000E0
:1078A0001A03530054004D00330032003100300001
:1078B000000000000000000000000000417400080B
:1078C000C5400008C5400008C5400008C540000884
:1078D000C5400008C5400008C5400008C540000874
:1078E00097740008C5400008C5400008C54000085E
:1078F000C54000080000000000000000000000007B
:107900000800E0000801FFFF11068A97F7C085060E
:1079100011E3BAA70800200C9A6600000000F401E9
:10792000020000000000000000C20100000008008A
:10793000D472000812000000E87200084300000042
:04794000040100003E
:040000050800762158
:00000001FF
