:020000040800F2
:103800005014002039820008498000084B800008CD
:103810004D8000084F800008518000080000000023
:1038200000000000000000000000000053800008BD
:10383000558000080000000057800008B55F0008B0
:10384000598200085D8200086182000859800008E2
:1038500065820008698200086D8200087182000894
:1038600075820008798200087D8200088182000844
:1038700085820008898200088D82000891820008F4
:1038800095820008998200089D820008A1820008A4
:10389000A5820008A9820008AD820008B182000854
:1038A000B5820008B9820008BD820008C182000804
:1038B000C582000845660008C9820008CD8200085C
:1038C000D1820008D5820008D9820008DD82000874
:1038D000E1820008E5820008E9820008ED82000824
:1038E0006F800008F1820008F5820008F982000864
:1038F000FD820008DFF800F001000020BFF34F8FC9
:10390000DFF8C804DFF8C824016801F4E06111435E
:103910000160BFF34F8FFEE780B500F07EFBBDE88E
:10392000024041F6027000F0D8BB10B500E0521E14
:10393000D2B23AB110F8013B11F8014BA342F6D0D4
:10394000032010BD042010BD30B58BB000F08DF801
:1039500006AC9A2060700C20A0702020E07000203F
:10396000207108206071A720A071BA20E071E320C7
:103970002072112060720620A0728520E072C020A3
:103980002073F72060739720A0738A20E0730A23C6
:10399000DFF848540095012206A9022000F07AFCC5
:1039A00000285FD100F061F8082300F07AF8C02009
:1039B00020738C2060732E20A0731220E073A81C4B
:1039C00000F057F802200090288800F09EFC0028A4
:1039D00048D100F04AF8092300F063F8F020207382
:1039E000992060730F20A0732120E073281D00F040
:1039F0004AF8002836D100F038F8142300F051F8C6
:103A000080202073AA2060739120A0732620E07389
:103A1000A81D00F038F8002824D100F026F804236F
:103A200000F03FF86020207357206073DC20A07303
:103A30002B20E07305F1080000F01BF81220009025
:103A4000288800F062FC68B9698805F10C000090D4
:103A500008232888002200F004FD20B10FF2A430D2
:103A600000F008FE47200BB030BD66208DF818002E
:103A700070470590002004901020039004200290CD
:103A800000200190704705900020049010200390C2
:103A900005200290002001900E200090288800F060
:103AA00034BC9A20607006AA0C20A070022120204D
:103AB000E0700020207108206071A720A071BA205A
:103AC000E071E3202072112060720820A07285202E
:103AD000E07270472DE9F04FDFF80483BF4E08F124
:103AE0008007002183B07960B2884188521C9142DE
:103AF00022D1027A417A120402EB0161C27901EB10
:103B00000221827952183A61037B417B1B0403EB4B
:103B10000161C37A807A01EB03214118100AB88150
:103B200079610020B961B860F88103B0BDE8F04F59
:103B30000FF2F82000F09EBD3B690FF2503908F1FA
:103B4000840201923289921C914234D1180602D02B
:103B5000B889401CB8810020F881FFF7DDFE0125FF
:103B6000002401E0641CA4B2B889844207DA7869B1
:103B700000EB042000F067FA0546042DF2D000F0B7
:103B80005BFA042D11D10FF2D42000F073FD002058
:103B9000786000F02EF908B1484608E0012000F0F6
:103BA000CDFD012088F880000DE10FF20C30BDE85A
:103BB000FE4F00F05FBDF288521C9142F4D13C8967
:103BC00021468029F0DA7A7807E004F808C014F872
:103BD00008C0641C8CEA0202A4B290F804C00CEB8A
:103BE000010EAEF1040E744509DA9C423DBFA4EB10
:103BF000010C84449CF806C04FF0000CE5E70CEB88
:103C0000000191F802C08CEA020291F803C0097920
:103C10003C818CEA020251407970C9B242799142EA
:103C200040F0B980017EC07D00EB0122F98992B29B
:103C3000914240F0A280481CF881B88000203A8967
:103C40007989F8807F24224204D0581A80285ED2D5
:103C500082425CD378690818B86100244FF0040BE5
:103C6000FFF75AFE04E0B86954445044A4B2B86166
:103C7000388984422DDA001B4FF0800A04EB080BD0
:103C8000802807DB72B6B8695946FFF733FE054650
:103C900062B613E09BF802109BF80300090401EBE5
:103CA00000609BF8011000EB012014F808100918BF
:103CB000B8694FF0040A00F0E3F90546B8695246C6
:103CC0005946FFF732FE8346042D08BFBBF1040FAF
:103CD000C9D000F0B1F9EDB2042D10D1BBF1040F41
:103CE00007D178893989081878810020F8803881CF
:103CF0000BE00FF2DC1000F0BDFC3C2004E00FF202
:103D0000E81000F0B7FCFF20F88000F06DF8019893
:103D10000090042331893088002200F0A2FB10B10A
:103D2000484600F0A7FC78893969884249D30020C9
:103D300000F017FD79690FF2FC1000F09BFC786928
:103D4000284900680840B0F1005F3AD100F0A0F9BE
:103D50007969204800F0AFF9396905467869091892
:103D60001D4800F0A8F9044600F09EF944EA050059
:103D7000042826D1FFF7C2FD23E00FF2EC1000F07B
:103D800079FC00F031F8F020F8803889103838815B
:103D9000F889B8800FE00FF2242000F06BFC7989DD
:103DA0000FF2342000F066FCF889B8800F20F8800C
:103DB00038891038388100F01CF810B1484600F0FE
:103DC00059FC00207870BDE8F78F00000CED00E092
:103DD0000400FA05F80F0808FC0F0808700100201D
:103DE000580300200000FE2F79890FF21C1000F00C
:103DF00041BC04230198009000223189308800F0F2
:103E000030BB00004572726F72207768696C652064
:103E10007570646174696E67206368617261637450
:103E2000657269737469632E0A000000496D6167E9
:103E3000652062617365203D203078253038582038
:103E40003B20496D6167652073697A65203D2030AC
:103E50007825303858200D0A000000005061676551
:103E6000206572617365207375636365737366752E
:103E70006C2C2073656E64696E67206E6F74696662
:103E800069636174696F6E0D0A0000004572726F9C
:103E900072207768696C65207570646174696E67FB
:103EA0002041434320636861726163746572697382
:103EB0007469632E0A0000005061676520657261B5
:103EC0007365206661696C757265200D0A000000DB
:103ED000466C6173682076657269667920666169EF
:103EE0006C757265200D0A00466C617368207772EC
:103EF000697465206D656D6F7279206661696C65A6
:103F000064200D0A000000002A2A20546F74616C9E
:103F1000206279746573207772697474656E2069A4
:103F20006E20666C617368203D202564202A2A0D6E
:103F30000A0000002A2A2A2A2A2A2A2A2A2A2A2A7F
:103F40002A4A554D50494E4720544F20307825304D
:103F50003858202A2A2A2A2A2A2A2A2A2A2A2A2A8F
:103F60002A2A2A2A0D0A000053657175656E636559
:103F7000206E756D62657220636865636B20666193
:103F8000696C65642C20657870656374656420666F
:103F900072616D652023203078253032582062759B
:103FA0007420307825303258207761732072656331
:103FB0006569766564200D0A00000000496E74652D
:103FC000677269747920636865636B206661696CE8
:103FD00065640D0A000000002A2A546F74616C2089
:103FE0006279746573207772697474656E20696E86
:103FF00020666C617368203D202564202A2A0D0A02
:1040000000000000DFF8FC100028086814BF40F032
:10401000080020F008000860704710B5DFF8E8409D
:104020002068800707D500F033F8DFF8E000E06093
:10403000DFF8DC00E06010BDDFF8CC00016841F083
:1040400002010160704738B5054600F043F80428C6
:1040500015D1DFF8B440206840F40070206020687B
:1040600040F0080020600020286000F033F821684C
:1040700021F008012160216821F40071216032BD26
:1040800038B500F025F8042801D125601BE032BDC9
:10409000DFF874000168C90705D5DFF87810816082
:1040A000DFF8741081607047DFF85C00016841F050
:1040B00001010160704738B500F00AF8042801D109
:1040C000256000E032BD4FF40040BDE8324027E0FB
:1040D00004460D464FF4004022E010490860704746
:1040E0000E490A680420D20701D5012070470A68EA
:1040F000D20501D502207047096811F4F05F18BF9E
:1041000003207047003C0240043C0240BFAE9D8C3F
:1041100016151413EFCDAB8905040302183C0240B9
:1041200010B582B0044604208DF80000FFF7D8FFD8
:104130008DF8000005E04CB1FFF7D2FF8DF80000CC
:10414000641E9DF800000128F5D014B905208DF8F3
:1041500000009DF8000016BD00B587B000F016FA0B
:1041600000F00DFA40F20110ADF8060000F07BFA05
:1041700000284CBFFF209DF8000007B000BD70B5BF
:104180008AB00C468DF8080015461E46072200F03E
:10419000B6F900F053FA00F0BDF98A20ADF80E0030
:1041A00002A805900120069000A80790072008901B
:1041B00003A800F00FFC002848BFFF200CD49DF896
:1041C000000048B9BDF801002080BDF80300288038
:1041D000BDF80500308000200AB070BD76B592B001
:1041E000199D1B9C61190E311E46292928BF4220AA
:1041F00017D200F047F800F03FF800F014F800F094
:104200001EF800F031F800F027F800F0BFF900F0D8
:10421000B6F9832000F020FA00284CBFFF209DF85B
:10422000000014B070BD18981A998DF822008DF80E
:1042300021608DF823502A4609A800F091BC05F1B1
:104240000800C0B207AA451C8454EDB21C9907A807
:104250002246281800F084BCA41CE4B207A802225D
:104260001EA9201800F07CBC6419E4B207AB02223E
:104270001DA9E01800F074BC022213A90DF11F0063
:1042800000F06EBC8DF81C00022212A90DF11D0079
:1042900000F066BC70B58CB014461D468DF81C004D
:1042A00001280CBF0226102632460DF11D0000F039
:1042B00057FC701C07A9C0B203224454441CE4B24A
:1042C00000A86554002100F051FC00F05FF900F0F7
:1042D00056F94FF4817000F012F800F063F800F026
:1042E000C5F9002848BFFF2007D49DF8000020B979
:1042F0001098BDF80110018000200CB070BDADF821
:10430000060007A80390601C7047F1B58EB00D46FB
:1043100016461F4600F041F807AC012DA5700CBFF2
:10432000022510252A4631460DF11F0000F018FC29
:10433000E81CC0B2411C0755C9B214980855491C65
:10434000C9B215980855491CC9B216980855491C98
:10435000C9B2179808554D1CEDB21898285503227C
:1043600000F0CDF800F012F900F009F94FF4827076
:1043700000F0BEF8681C00F015F800F077F900288E
:1043800048BFFF2007D49DF8000020B91998BDF858
:104390000110018000200FB0F0BD02220EA907A875
:1043A00000F0DEBBC0B2049000A805900320704767
:1043B00073B5A8B014461D4600F08FF800F092F8CF
:1043C0008DF82040012C0CBF0224102400F0A8F826
:1043D000611D07ADC9B22E984855481CC0B22F9C2C
:1043E0004455461CF6B23119491D8129A8BF422007
:1043F00035DA309907AB2246F01800F0B1FBA1196D
:10440000C9B231984855491CC9B232984855491C1F
:10441000C9B233984855491CC9B2349848554E1C06
:10442000F6B235987055032200F069F800F0AEF846
:1044300000F0A5F840F2051000F05AF8701CFFF7E4
:10444000B1FF00F013F9002848BFFF2007D49DF802
:10445000000020B93698BDF80110018000202AB074
:1044600070BD33B51C46A01DA7B015468128A8BF56
:1044700042201BDA00F05AF800F05DF82C998DF814
:1044800020508DF82140224600F023F800F07EF8FD
:1044900000F075F84FF4837000F02AF8A01D00F0CA
:1044A000E0F800284CBFFF209DF8000029B030BD87
:1044B00000B589B000F027F800F0C5F840F22710E9
:1044C00000F07DF800284CBFFF209DF8000009B0E7
:1044D00000BD0DF1220000F043BB022228A907A86D
:1044E00000F03EBB022229A90DF11E0000F038BBEE
:1044F000ADF8060007A80390704704460222002189
:1045000000A800F033BB1822ADF80400002102A877
:1045100000F02CBB3F20ADF80C0070478DF8204018
:10452000224629460DF1210000F01ABB022227A9DC
:1045300007A800F015BB022228A90DF11E0000F00B
:104540000FBB10B50C461146A21CA8B0812AA8BF0B
:10455000422012DA8DF81C008DF81D40224600F032
:1045600069F800F013F800F00AF80C2000F074F875
:1045700000284CBFFF209DF8000028B010BD3F2050
:10458000ADF80400704700208DF8010018220021CA
:1045900001A800F0EBBA00B589B08DF804008DF8E1
:1045A000051000F054F800F04EF80F2000F007F866
:1045B00000284CBFFF209DF8000009B000BDADF8F9
:1045C0000A0001A804900220059000A8069001208E
:1045D000079002A800F0FEB930B58FB08DF81C002E
:1045E0008DF81D1014461D461022214600F022F8B9
:1045F00012988DF82F008DF82E50182213988DF8F0
:10460000300000211498CDF8310015988DF8350050
:1046100001A800F0ABFAFFF7B2FF8620FFF768FFB2
:104620001A2000F01FF800284CBFFF209DF8000062
:104630000FB030BD0DF11E0000F092BA182200211B
:1046400003A800F093BA3F20ADF808007047182285
:10465000002102A800F08ABAADF8060007A803906E
:10466000A01CC0B2049000A805900120069001A8EB
:1046700000F0B0B90EB400B582B003A900910246B3
:1046800000AB0121034878440A3000F079FA06BCF7
:104690005DF810FB8D3B00002749096851F82000A8
:1046A00070472549496831F8100070477CB50446C9
:1046B0001425214E00F0F2FC05FB0060083030604C
:1046C00000F0ECFC0A210FF2DC0201FB002070601C
:1046D00000F0E4FC01210FF2E00205FB002050F89D
:1046E000240000F02CFD2046FFF7DBFF00900120A6
:1046F0008DF804000020ADF8060003208DF80500B9
:104700002046FFF7C9FF00A900F04EFD00F0C6FCEF
:1047100008B920460AE000F0C1FC0128204605D176
:10472000FFF7BAFF00F030F8688373BDFFF7B4FFFE
:1047300000F02AF8288373BD2401002038B5044610
:1047400000F0ACFC08B9204605E000F0A7FC012809
:10475000204600D112E0FFF79FFF00F015F86883B4
:1047600031BD38B5044600F099FC08B9204605E093
:1047700000F094FC0128204600D1ECE7FFF78CFF05
:1047800000F002F8288331BD0546204689E738B598
:104790000446FFF781FFFFF7F7FFA98A4840A88288
:1047A00031BD0000010002000400100020000100E3
:1047B00002000100010002000400000004000000EB
:1047C00008000000040000000400000002000000D7
:1047D00002000000020000000200000002000000D1
:1047E00038B5BD4C04F110000060406004F11800C1
:1047F000006040600025502000FB054000F12001D2
:1048000004F1100000F02DFD6D1C052DF3DB31BD12
:1048100070B5B14C00F10803A360002163782BB997
:10482000A38003E0042B4CD103236370A388472BA0
:1048300047DAA3885D1CA580A56866785B5D002EBD
:10484000F0D0032E08BF0623EFD0042E08BF0523A7
:10485000EBD0052E08BF0723E7D0072E08BF08239B
:10486000E3D0082E04D1B5F8032000210923DCE7AA
:10487000062E01D11A46F8E7092ED7D1491C89B274
:1048800092B29142D2D30021617000F108014A1C1A
:104890000978042908D111780E2918BF0F2903D0EF
:1048A000014604F1180002E0014604F1100000F096
:1048B000D8FCE06828B1A188A068E268BDE8704033
:1048C000104770BD10B594B00020009000F085FE38
:1048D000814C11E000A904F1180000F0D0FC00F0B8
:1048E0007FFE0098083001F071F900F076FE009923
:1048F00004F1100000F0B5FC04F1180000F0A3FC76
:104900000028E7D0207848B90DE0472101A800F041
:104910008CFEC0B210B101A801F058F900F052FEAF
:104920000028F2D1207000F05BFE14B010BD10B56D
:1049300082B00020009000F060FE674C06E0009915
:1049400004F1100000F086FC00F057FE00F06CFD52
:10495000C8B104F1100000F076FC80B900A904F1A0
:10496000100000F08CFC00984721083000F05DFE3C
:10497000C0B20028E3D00098FFF74AFFE4E7012027
:10498000207000F03AFE13BD01F052B930B5890530
:1049900083B0890D41EA8020ADF80400144601205F
:1049A0008DF800001D468DF80640032201A90DF187
:1049B000010000F0D5F823460422294600A8FFF79D
:1049C000E3FF00203EBD80B500F007FE4248012114
:1049D000817001BD2DE9FC4104463F4F608821886C
:1049E0008005800D40EA81253C4800680A21B0FB23
:1049F000F1F60020B8703A48F860E268A368618870
:104A00002088D2B2FFF7C2FF00285DD44FF00A0819
:104A10002CE0012E0BDB314600A801F027F900A89D
:104A200001F02CF900284FD1B8780028F7D0B868E9
:104A300002461178042915D1C11CB8885278C01ECD
:104A40000E2A2CD00F2A04D0102A3DD03E2A2ED078
:104A500008E04A88ADB2AA4204D162680F2A0ED09B
:104A6000087888BB0020B87000F0BAFD5FEA080043
:104A7000A8F1010828D0002ECBD10126CBE762692E
:104A80009042C8BF104660610246206900F068F895
:104A90000020F86000F0A4FD0020BDE8F681B1F828
:104AA0000120ADB2AA42DDD1C91CC01EE7E70A78D9
:104AB00063689A42D6D16269401E9042C8BF1046D0
:104AC00060610246491CE0E70020F86000F088FDC4
:104AD0004FF0FF30E1E70000A801002054820008F9
:104AE000C74900081822002101A800F03FB830B5DE
:104AF0008FB000F01DF88DF81C40202CA8BF1F249B
:104B000000F01DF8FFF7EEFF00F01FF80920ADF8E8
:104B1000060007A803902020049000F01AF800284F
:104B200002D49DF8000008B14FF0FF300FB030BD47
:104B300004460D462022002107A800F017B822469F
:104B400029460DF11D0000F00BB80820ADF8040057
:104B5000704700A805900120069001A8FFF73ABF12
:104B600010B5044601F096F8204610BD10B5044675
:104B700010460A460146204601F0C8F8204610BDFE
:104B80002DE9F04F93B0804602AE002014461D463A
:104B90000291B0610DF1300A0AE014F8011B02988D
:104BA000C0470290002800F0B481B069401CB06199
:104BB000207808B9B069AEE12528EED10020F06078
:104BC0003061706101E040F0010014F8011F2029FC
:104BD000F9D023290DD02B2904D02D2906D0302936
:104BE0000AD00CE040F0020080B2EEE740F0040092
:104BF000FAE740F00800F7E740F01000F4E72A2950
:104C00000DD129680A1D2A6009683162002904D57E
:104C1000494240F00400316280B2641C13E000217C
:104C200031620BE0316A6FF00043994205D001EB2D
:104C3000810302EB430130393162641C2278A2F116
:104C400030010A29EED321782E2903D04FF0FF310D
:104C5000F1611EE014F8011F2A2906D129680A1DF6
:104C60002A60641C0968F16113E00021F1610BE026
:104C7000F1696FF00043994205D001EB810302EB2B
:104C800043013039F161641C2278A2F130010A2914
:104C9000EED3B0840FF28030217801F06BF808B1C8
:104CA00014F8010B8DF82E009DF82E00682804BF23
:104CB0002078682803D162208DF82E00641C0CA88F
:104CC000B0602278252A13D0582A34D0632A00F005
:104CD000A580642A18BF692A68D06F2A2BD0702A51
:104CE00020D0732A09D0752A18BF782A23D09FE0D4
:104CF000F068411CF160252197E02868011D2960BA
:104D00000068F2697060002A02D501F03FF807E000
:104D1000002101F057F800281ABF7168401AF069A5
:104D2000306191E02868011D2960782100680190B8
:104D30000CA870606EE09DF82E306C2B08BF2868C0
:104D400011D0712B08BF286802D028686A2B0AD1BD
:104D5000C01D20F007002860014601F1080028600E
:104D6000D1E9000102E0011D296000680190682B73
:104D700002D101A8008803E0622B02D101A80078CB
:104D8000019096F8240000073FD5019800283CD0F8
:104D900042F02000782838D1F068302100F80A105D
:104DA000401C411CF16000F80A202EE09DF82E0006
:104DB000622802D0682806D00BE02868011D29600F
:104DC00090F9000009E02868011D2960B0F9000091
:104DD00003E02868011D296000680190002804D5BF
:104DE000F068411CF1602D210DE0B08C810704D5E5
:104DF000F068411CF1602B2105E0C00705D5F06883
:104E0000411CF160202100F80A10F0680CA940183C
:104E10007060114601A800F081F815E0F068411CAF
:104E2000F16029680A1D2A60096800F80A100BE081
:104E3000F068411CF160252100F80A1022B1F068E9
:104E4000411CF16000F80A20306AF168401A71696B
:104E5000401A3169A0EB010996F82400641C400750
:104E60000FD420208DF80000002708E0012300AABD
:104E700001A9404600F0B9F800284AD17F1C4F45EF
:104E8000F4DBF7680DF1300B0AE01BF8011B029808
:104E9000C047029000283CD0B069401CB0617F1E22
:104EA000002FF2D130208DF800004FF0000B776911
:104EB00008E0012300AA01A9404600F096F840BB93
:104EC0000BF1010BBB45F4DB3769D6F804B009E000
:104ED0001BF8011B0298C0470290D0B1B069401C7A
:104EE000B0617F1E002FF3D196F8240040077FF5B4
:104EF0005FAE20208DF8000000E07F1C4F45BFF61C
:104F000057AE012300AA01A9404600F06EF8002820
:104F1000F3D04FF0FF3013B0BDE8F08FF0B4C268AB
:104F20006F2908BF082405D041F02003782B14BF57
:104F30000A241024066818233746642918BF6929F3
:104F400002D1002E48BF7F425FB9056A4DB9082CD7
:104F500027D190F82810090723D530211723D175C0
:104F60001FE0B7FBF4F604FB167730375D1EFFB287
:104F70002B463A2FA4BFA1F1510C6744AF54370020
:104F800003D085689E18B542EBD3082C09D190F860
:104F90002810090705D5995C302902D05B1E302105
:104FA0009954C3F1180141619A188260026A9142D2
:104FB00008DA511A81614FF6EF72018D11400185B7
:104FC000F0BC7047002A0ED590F8282002F0140299
:104FD000102A08D1426A0369D21A8369D21A531A75
:104FE000012BA8BF8361F0BC7047F8B504460D469D
:104FF00016461F46002004E0E869401CE8617F1E59
:10500000002047B116F8011B6868A04768600028B7
:10501000F2D14FF0FF30F2BD686C747A4C000000A2
:1050200010B584B00121082000F089F801208DF826
:10503000040000208DF8070003208DF805000020F3
:105040008DF806000420009000A9164C204600F0C0
:10505000ABF8A08A40F00400A082002002E09DF896
:105060000800401C8DF808009DF808000028F6D0C4
:10507000208A0D490006800E00F0010080F001003A
:10508000087000A900208DF80400204600F08CF87C
:10509000A08A4FF6FB710840A0821FBD024800782D
:1050A00070470000000C02404D040020F0B5364966
:1050B000364B4E68364C374A012516F00C0619D08F
:1050C000042E04D0082E1DD00C2E02D012E0234650
:1050D00018E04D684E68C5F38345C6F38156AD5C54
:1050E0004F68761CFF0354BF04FB05F36B43B3FB0F
:1050F000F6F307E00B685B0B03F007035B1C05FA94
:1051000003F3DB0303604B680468C3F303139B18CA
:105110001B7B24FA03F343604B684468C3F3022308
:105120009B181B7B24FA03F3836049684368C1F32F
:10513000C2218918097B23FA01F1C160F0BD164A2A
:105140000029116814BF084321EA0000106070476D
:10515000124A0029116814BF084321EA00001060B8
:1051600070470F4A0029116814BF084321EA000064
:10517000106070470B4A0029116814BF084321EAE8
:1051800000001060704700000438024000127A00EE
:105190000024F400540100201C3802402038024052
:1051A0002438024018380240F0B5002201230C6870
:1051B00093401C409C4222D1066854000325A54020
:1051C0000F79ED432E40A7403E4306600E79012E35
:1051D00018BF022E0CD186684F792E40A7403E435F
:1051E0008660868826EA03038E799640334383805F
:1051F000C3682B40CD7905FA04F42343C360521CE5
:10520000102AD3D3F0BD008A0022084218BF012221
:1052100010467047418370470AB10183704741834C
:10522000704710B5CB0800EB830001F0070189003F
:10523000036A0F248C40A343036202FA01F1036A5C
:105240001943016210BD0168814201D101207047FC
:105250000020704702680A60486001600868416089
:105260007047086042684A60416048680160704762
:10527000416802680A60016840684860704710B57C
:105280000C46016821600068FFE7FFF7F1FF206826
:10529000002101602068416010BD10B450F8041B6B
:1052A00081B102681218001D50F8043BDC0744BFAE
:1052B000A9F10104E31852F8044B43F8044B091F09
:1052C000F9D1EBE710BC704738B5FFF7E7FEDFF820
:1052D0004055DFF8404505EB80004069E060FFF78E
:1052E000DDFE05EB8000C0692061FFF7D7FE0FF2FD
:1052F000585151F820006061FFF7D0FE05EB8000A7
:10530000406AA061FFF7CAFE0FF2445151F8200035
:10531000E061FFF7C3FE05EB8000C06A2062FFF783
:10532000BDFE0FF2345151F820006062FFF7B6FE67
:1053300005EB40000089E080FFF7B0FE405D207083
:10534000FFF7ACFE05EB8000406BA062FFF7A6FE06
:105350000FF20C5151F82000E062FFF79FFE05EBC1
:10536000400080892081FFF799FE401980786070A5
:10537000FFF794FE05EB8000C06B2063FFF78EFE05
:105380000FF2E44151F820006063FFF787FE05EB60
:105390004000008A6081FFF781FE40190079A0700B
:1053A000FFF77CFE0FF2D04151F82000E864FFF7D0
:1053B00075FE05EB8000406CA063FFF76FFE0FF2F7
:1053C000B04151F82000E063FFF768FE0FF2B041F2
:1053D00051F820002064FFF761FE0FF2AC41405C01
:1053E000E070FFF75BFE0FF2A441405C2071FFF715
:1053F00055FE0FF29C41405C6071FFF74FFE18B103
:10540000FFF74CFE01280CD101214FF48040FFF73B
:10541000A8FEE86C012140F00600FFF790FE002096
:1054200032BD4FF0FF3032BDDFF8E803C16B806B57
:1054300089B2FFF7E8BE30B58BB00446FFF744FFF2
:1054400010F1010F00F09A80DFF8C8532A78E9883C
:10545000286AFFF7E6FE6A782989A86AFFF7E1FE65
:10546000AA786989286BFFF7DCFEE969A86900F072
:1054700034F9E86900F0CEF8A869FFF795FE00F06E
:1054800097F8686B009000A902208DF804000320B3
:1054900000F076F801208DF80700286BFFF784FEF6
:1054A00002208DF8070000A9E86A0090A86AFFF7BB
:1054B0007BFE01208DF8070000A9686A0090286A29
:1054C000FFF772FE6969009101208DF80400012246
:1054D0000020ADF8060089B203208DF80500286988
:1054E000FFF79AFE286900A9FFF75EFEE86B00F05F
:1054F00088F8A86BFFF758FE0020ADF8140005A946
:105500004FF48270ADF8160000200690ADF81C0034
:105510004FF40070ADF81E00002008900720ADF891
:105520002400E86800F07AFCE868012100F092FCB1
:10553000012C22D12979E87800F09EFC286C039098
:1055400000208DF8100008208DF8110001208DF842
:10555000120003A800F0A4FC286C00F0DBFC6879C2
:105560008DF8080000208DF809008DF80A00012050
:105570008DF80B0002A800F0DCFC00200BB030BD61
:105580008DF8050000208DF80600704710B5A14C7D
:1055900000F008F8052000F026FD00F09CF8BDE8BA
:1055A00010400CE0E169A069002289B2FFF734BE27
:1055B0009848C1698069002289B2FFF72DBE052095
:1055C00000F011BD80B59348C16B806B89B2FFF7C5
:1055D0001AFE012818BF002002BD8E488E4A01E045
:1055E0008C488E4A90F905004109012300F01F0004
:1055F00003FA00F042F8210070478648006C00F082
:1056000089BC009000A900208DF8040002208DF8CC
:1056100007007047009000A901208DF804000020C9
:105620008DF80500ADF8060070472DE9FF4188466A
:105630000FF2FC1104460CC902A8764F0CC0796920
:1056400038690025FFF7B0FF2E4602A8315CF868E4
:105650008181C046F868022100F006FC0028F9D0DC
:10566000F86800F0E2F80028FAD0F8688089C046AF
:1056700000A97054761C052EE7DB9DF80000022877
:1056800021D19DF804009DF8031051EA00261AD09C
:10569000B04515DA464613E0F868FF218181C0461F
:1056A000F868022100F0E0FB0028F9D0F86800F06B
:1056B000BCF80028FAD0F8688089C04628556D1CCF
:1056C000EDB2B542E8DB7969386900F006F82846A2
:1056D00004B0BDE8F081E169A069012289B2FFF759
:1056E0009BBD2DE9F04F894687B092469B460FF24D
:1056F000481180460CC905A80FF244110CC00CC912
:1057000003A800240CC0FFF768FF424DE86B00902F
:105710008DF8064001208DF8040000A903208DF8C3
:10572000050002208DF80700A86BFFF73DFDE96B2F
:10573000A86BFFF7D2FF029403E000BF0298401C61
:10574000029002982328F8DB69692869FFF72CFF8B
:10575000274603AE05A8395CE8688181C04600F0A1
:105760005FF80028FBD000F05FF80028FBD0E86865
:105770008089C046B8557F1C052FEBD38DF80440B7
:1057800000A9A86BFFF710FD9DF80C00022831D18D
:1057900070780BEB0A01884229DB002610E016F82E
:1057A0000810E8688181C04600F03AF80028FBD074
:1057B00000F03AF80028FBD0E8688089C046761CE3
:1057C0005645ECD300275F4516D217F80910E86854
:1057D0008181C04600F024F80028FBD000F024F8B6
:1057E0000028FBD0E8688089C0467F1CEBE76FF09B
:1057F000010401E04FF0FF3469692869FFF76DFF8C
:10580000FFF7EEFE204607B0BDE8F08F0000000075
:10581000D4000020F403002080E100E000E100E07B
:10582000E868022100F020BBE868012100F01CBB01
:105830000B000000000000000A0000000000000053
:10584000AA0000000000000000100000001000008E
:105850000020000000200000008000000080000008
:105860000040000000400000002000000020000078
:10587000000400000004000004000000020000001A
:105880000004000000040000020100000A0A0000F9
:10589000282850F8041B61B150F8042BD30744BFEB
:1058A000A9F101039A18002342F8043B091FFAD119
:1058B000EFE7704780B500F09FFB00A800F02FFCD9
:1058C000052000F035FC022000F044FC002000F030
:1058D000AFFC072000F09AFC402000F0C3FC012040
:1058E00000F0D1FC102000F00CFD052000F013FDAD
:1058F000952000F0E3FC00F0B9FD00F0DBFC01BDF9
:1059000080B500F02DFE00A800F0C8FE01BD00B576
:1059100083B000208DF8040000F0FAFE00F031FFA3
:10592000012000900F2301AABE21A04801F043F8F6
:105930009DF80400BC2801D001200EBD00200EBD42
:1059400010B586B000208DF8040040208DF80800C6
:1059500003208DF8090030208DF80A0000208DF812
:105960000B0003908DF8100000F0A6FD01200090C0
:105970000F238E4C01AAB821204601F01CF89DF897
:105980000400BD2818BF01200FD102A801F0BAF809
:1059900040208DF80400212300F009F8DF208DF865
:1059A00004002E2300F003F8002006B010BD0120F3
:1059B000009001AAB821204600F0AEBF7047F0B5B4
:1059C00085B04FF460514FF0006000F0DEFAFFF751
:1059D00027FB00F001FD00F010FD00F0F0FAFFF7EA
:1059E0005DFB50B10020FEF761FE0020FEF7CFFE08
:1059F0004FF4FA7000F0F7FAF7E701F0ABF9012085
:105A0000FEF700FB012001F0ABF9002001F0A5F941
:105A10004FF4C06000F088FA4FF4FA7000F0E3FA37
:105A20006348C046C0464FF4FA6000F0DCFAFEF767
:105A3000D7FE0120FFF7FFFCFFF7A8FD0020FEF7CF
:105A400035FE0120FEF732FE0FF2CC110CC903A87F
:105A500006210CC003AA0020FEF773FDFEF77CFBB5
:105A600002AB01AA0DF106010120FEF788FB0FF23F
:105A7000B010BDF8041000900723BDF80600002206
:105A8000FEF7EFFC00B1FEE7012003900723494831
:105A9000029000220020019000211020009001209F
:105AA000FEF79AFD00B1FEE7FFF704FF424CFFF757
:105AB00047FF10B9FFF72BFF30B10020607000F0F6
:105AC00007FEFFF71DFF01E00120607001F052F9B1
:105AD00001F0FAF9FDF738FF00F080FD00F0ACFDB1
:105AE00004210120FEF757FD344D354E354F00F0AF
:105AF00077FAE268A188801A814205D20020FEF779
:105B000046FE00F06DFAE060FEF7DCFE207818B18A
:105B100000F01EF800202070387800281FBF0020F9
:105B20003870A06800280BD000A800F0FEFB38B148
:105B300000A800F029FC307810B900A801F0A5F900
:105B400028780128D3D10020287001F092F9CEE7FF
:105B500000B589B00FF2D0010CC907A81A490CC0D2
:105B60001220FEF7C4FF00200690059004900390D9
:105B7000012307A802900022082001900020009035
:105B80000146FEF72BFB09B000BD0B480122418006
:105B900082607D218180704707480021816001215A
:105BA00001704FF4FA71818070470000005400408A
:105BB000BD59000840E20100980100204604002081
:105BC000D80300204704002084010020411C0078F5
:105BD00004281FD10878052804D03E2803D0FF28C8
:105BE0000AD07047D8E7881C0178012912D1401CDF
:105BF000B0F80110401DC8E7881C40F6014201883A
:105C0000891A04D0133905D1808801F09DBA801C0F
:105C1000FDF760BF70470000123400E18002000011
:105C2000426C75654E52470009426C75654E52478D
:105C3000F0B504460C4800680D460A2183B0B0FB5D
:105C4000F1F116461F4600A800F010F8FBB2F2B2C0
:105C500029462046FFF745FD20B100A800F00EF8C8
:105C60000028F3D0F7BD00005482000810B50446A8
:105C70006160FFE700F0B4F9206010BD10B5044684
:105C800000F0AEF92168401A6168401C81428041F1
:105C9000C00F10BD62B38B0708D0521E11F8013B34
:105CA00000F8013B00F024808B07F6D1830740F019
:105CB000208000BF103A07D330B4B1E83810103A52
:105CC000A0E83810F9D230BC530724BFB1E808105F
:105CD000A0E8081044BF51F8043B40F8043BD20749
:105CE00024BF31F8022B20F8022B44BF0B7803703D
:105CF0007047083A07D3B1E80810083A40F8043B67
:105D000040F804CBF7D25307E4E7000062F30F2218
:105D100062F31F42401810F0030308D0C91A1FD3C2
:105D2000DB0748BF00F8012D28BF20F8022D130023
:105D300030B414461546103928BF20E93C00FAD883
:105D4000490728BF20E90C0048BF40F8042D89000E
:105D500028BF20F8022D48BF00F8012D30BC704745
:105D6000C91818BF00F8012DCB0728BF00F8012D76
:105D7000704700000278C9B28A421AB11CBF10F8FD
:105D8000012FF9E718BF00207047000000F1010360
:105D9000810704D010F8011B89B18107FAD102688C
:105DA000B2F10131914311F0803F04BF50F8042F4C
:105DB000F6E710F8011B11B110F8011BFBE7C01A40
:105DC00070470000C9B2830706D0521E22D310F8D4
:105DD000013B9942F7D11FE0083A13D302F10402C4
:105DE00041EA012141EA014150F8043B121F21BF61
:105DF0004B40A3F1013C2CEA030C1CF0803FF3D094
:105E0000C9B2001F083210F8013B521E28BF91EAA8
:105E1000030FF8D818BF0120401E704702880B8876
:105E200002F441521A434B881A438B881A43CB8899
:105E30001A430B891A434B891A438B891A43CB891E
:105E40001A4302804FF2FF73828B1A408283098AC1
:105E5000018270470029018812BF41F040014FF6CE
:105E6000BF7211400180704700890022084218BFAC
:105E7000012210467047000030B501F0030221F006
:105E80000301064B9200CC580F259540AC43CC50F3
:105E90009040CC582043C85030BD0000080001405D
:105EA00030B501688279CB431D492AB30A4614688C
:105EB0002340136053680468A34353600379CC18EC
:105EC000236805682B43236093680468A3439360A9
:105ED000D3680468A343D36043790568102B07D1C6
:105EE000916829439160D16800680843D06030BD53
:105EF000CC182068284303E000790C18206818406B
:105F0000206030BD074A12680021024218BF0121FB
:105F10000846704700E000BF024908607047000073
:105F200000040140140401401B4908431B49086058
:105F3000704770B50378C4781A460121ECB1174B4D
:105F40001B68447803F4E063C3F5E0631B0AC3F104
:105F50000405AC4085780F2626FA03F32B40234333
:105F60000F4C1B01135500780E4B420900F01F0027
:105F700001FA00F043F8220070BD50090A4A03F00C
:105F80001F03994042F8201070BD084A1140084391
:105F900007490860704700000000FA050CED00E0BA
:105FA00000E400E000E100E080E100E080FFFF1F8E
:105FB00008ED00E00F480168491C0160704780B59A
:105FC00072B6042001F016F940F69F7001F01CF93A
:105FD000012001F02EF9012001F019F962B601BD8E
:105FE00004480068704703490A680B689B1A83429B
:105FF000FBD370474804002030B587B00121012051
:10600000FFF79DF801214FF48050FFF7A1F8784C7D
:10601000052211462046FFF704F9052206212046F5
:10602000FFF7FFF8052207212046FFF7FAF8E020E6
:10603000009000A9022000F02DF80020ADF8080023
:106040004FF48270ADF80A0000200390ADF8100004
:106050004FF40070ADF812000820ADF814000020D5
:10606000ADF816000720ADF8180002A9614D2846CA
:10607000FFF7D4FE01212846FFF7ECFE1020009028
:1060800000A9012000F006F8102120460183C04637
:1060900007B030BD8DF804000020ADF806000320E5
:1060A0008DF805002046FFF77FB838B50446514DFE
:1060B00002212846FFF7D8FE0028F9D021462846BD
:1060C0008181C04601212846FFF7CEFE0028F9D085
:1060D00028468089C046C0B232BD70B500F018F8BD
:1060E00044F08000FFF7E1FF0020FFF7DEFF28709B
:1060F00008E070B500F00CF82046FFF7D6FF284600
:10610000FFF7D3FF102130460183C046012070BD48
:1061100004460D46364E10213046FFF77BB880B559
:1061200001460F20FFE7FFF7D8FF00B1012002BDB5
:1061300010B582B000F066F858B19DF8000000F08C
:106140000F0040EA04108DF8000000F057F800B18D
:10615000012016BD10B582B000F054F8002845D0DB
:106160000DF101012320FFF7B8FF00283ED09DF874
:1061700000102148F022114205D1027802F0F0020D
:1061800011438DF800101CB1022C0ED01AD324E05C
:106190009DF8001001709DF8000000F00F008DF8D0
:1061A000000000F02BF8D0B916BD9DF8000000F0FB
:1061B000F7008DF800009DF8010040F008008DF810
:1061C0000100EEE79DF8000040F008008DF80000A7
:1061D0009DF8010000F0F700F1E7002016BD9DF8E2
:1061E00001102320FFF785FF00B1012016BD00003C
:1061F00000000240003001404C04002020209DF8A7
:10620000001076E7044600A9202066E710B582B0AA
:10621000FFF7F8FF58B19DF8000064F302008DF815
:10622000000001462020FFF764FF00B1012016BDE9
:1062300010B582B000F00BF840B100F00CF88DF80A
:106240000000232000F050F800B1012016BD0446E4
:1062500000A9232041E79DF8000000F0CF0040EAAC
:106260000410704710B582B0044600A92520FFF73E
:1062700034FF38B18DF8004021462520FFF739FF63
:1062800000B1012016BD10B582B0044600F033F80D
:1062900040B100F008F88DF80000242000F024F848
:1062A00000B1012016BD9DF8000000F0F70040EAA3
:1062B000C400704780B500F021F836E710B582B011
:1062C00000F015F860B19DF8000000F04000204398
:1062D0008DF8000001463020FFF70BFF00B10120D0
:1062E00016BD8DF8000021209DF8001001E704463E
:1062F00000A93020F1E600A92420EEE600A9312013
:10630000EBE680B5802801DB002002BD014632208B
:10631000FFF7EFFE09E780B5802801DB002002BD12
:1063200001463320FFF7E5FEFFE610B582B00446D4
:1063300000A92820FFF7D1FE28B30DF10101292083
:10634000FFF7CBFEF8B1BDF80000208000A92A209D
:10635000FFF7C3FEB8B10DF101012B20FFF7BDFE21
:1063600088B1BDF80000608000A92C20FFF7B5FEC1
:1063700048B10DF101012D20FFF7AFFE18B1BDF8B6
:106380000000A080012016BD38B5FFF760FF10B3F4
:106390009DF8000010F0300007D0102807D020280A
:1063A00007D0302808BF0C2504E0012502E00225B3
:1063B00000E00425B4F90000EDB20011684320802C
:1063C000B4F90200001168436080B4F904000011C0
:1063D0006843A080012032BD80B501213F20FEF737
:1063E000AEFE01210120FEF7B3FE9B480F210160A4
:1063F0009A4981600021416001BD30B583B003201E
:106400008DF804004FF6FF7400208DF8070000940B
:106410004FF0FF30924D9349286008609249086020
:1064200000A941F6FF7000909048FEF7BDFE4FF6C0
:10643000E770009000A900F084F88D48009400A94E
:10644000FEF7B2FE009400A92846FEF7ADFE37BD68
:106450008DF8000001208DF8010000208DF8020069
:1064600001208DF8030000A8FFF763BD10B586B0CA
:1064700000208DF810008DF813004FF40064039491
:1064800003A900F05EF80B210120FFF7F5FC0020C6
:106490008DF80800019408208DF8090001208DF87E
:1064A0000A0001A8FFF7FCFC2046FFF733FD282077
:1064B000FFF7CEFF06B010BD10B586B000F089F82A
:1064C00001210220FEF744FE6A4C0422082100F05C
:1064D0007DF80422092100F079F84FF4407000F0B3
:1064E00033F88DF807002046FEF75EFE00F06AF8EC
:1064F0000020ADF80C0002A94BF6FF70ADF80E00BD
:106500000020ADF810004FF48060ADF812004FF499
:106510008040ADF8140042F210700290204600F066
:10652000B0FE0121204600F00BFF06B010BD00B503
:1065300083B0C02000F008F88DF8070000F001F8E3
:1065400007BD4C48FEF730BE009000A903208DF82F
:10655000050002208DF8040001208DF80600704728
:106560001FB500F036F801210220FEF7F1FD414C85
:106570000422062100F02AF80422072100F026F860
:10658000FFF7D5FF00F01EF80020ADF8040000A9C9
:106590004BF6FF70ADF806000020ADF808004FF490
:1065A0008060ADF80A004FF48040ADF80C0042F274
:1065B00010700090204600F064FE0121204600F09B
:1065C000BFFE1FBD2C4C204600F042BE2046FEF709
:1065D00028BE01214FF40010FEF7C3BD1FB50121F5
:1065E0000220FEF7BEFD4FF6FF10ADF804001020AC
:1065F000ADF806000C2002900020ADF80C0001A9B7
:106600001E4C204600F0F6FE0121204600F034FF2B
:1066100001220121204600F027FF1D208DF80000F7
:1066200000208DF801008DF8020001208DF8030094
:1066300000A8FFF77EFC1FBD104800214162012128
:1066400000F008BF80B501210C4800F015FF0C4890
:106650000121017001BD0000283802400200001035
:10666000000C0240001002400014024000000240F2
:1066700000080240000402400054004000040040B2
:106680004704002004460020ADF804000023022047
:10669000009001AA90210D4800F08DB91CB5FFF7BC
:1066A000F1FF88B19DF804209DF805109DF80400C5
:1066B000520002EBD11100F08000C9B201EB0020C2
:1066C00000EB80002080012016BD00000054004037
:1066D00000B583B000F016F88DF8040000200BE040
:1066E00000B583B000F00EF88DF8050002208DF89B
:1066F000040001208DF806008DF807003A48FEF7E7
:1067000053FD07BD4FF44070009000A9032070476F
:106710001FB501214FF40010FEF723FD01210220D7
:10672000FEF716FD304C042208212046FEF779FDC5
:10673000042209212046FEF774FDFFF7D1FF2B4C00
:10674000204600F085FD0020ADF8040000A94BF6BE
:10675000FF70ADF806000020ADF808004FF480602F
:10676000ADF80A004FF48040ADF80C0042F2107012
:106770000090204600F085FD0121204600F0E0FD5C
:106780001FBD00B583B080208DF8040020230120B8
:10679000009001AABE21154800F0BEF807BD1CB547
:1067A00001208DF8040000902123104C01AABE2185
:1067B000204600F0B1F890B100208DF804009DF85B
:1067C000040000F0030003280BD0012000902723D1
:1067D00001AABE21204600F0EEF80028EFD10020EB
:1067E00016BD012016BD0000000402400054004008
:1067F0002DE9F04184B00446FFF7D1FF002866D0B0
:1068000001200090302300F07BF800285FD00120A9
:106810000090312301AA00F07BF8002857D0012016
:10682000009036230DF10A0200F072F800284ED0D5
:106830000120009037230DF10B0200F069F80028C9
:1068400045D0012000903A2302AA00F061F8002808
:106850003DD0012000903B230DF1090200F058F8D3
:10686000002834D00120009028230DF1060200F00A
:106870004FF800282BD00120009029230DF10702AA
:1068800000F046F818B39DF805004FF07C5500F075
:1068900001FE00F024F800F02BF800F023F8014688
:1068A000404600F007FE00F015F800F018F83146F9
:1068B00000F07EFE394600F0EFFE314600F058FF52
:1068C000104900F0E9FE00F095FF2080012004B09F
:1068D000BDE8F08107469DF8040000F0DBBD2946C5
:1068E00000F0DABE8046BDF90800C01B00F0C8BD4C
:1068F0000646BDF90A70BDF90600C01B00F0C0BD18
:10690000014D03E000002041005400400DF105025C
:10691000BE21284600F04FB82DE9FC4105467148DC
:1069200000680F460A21B0FBF1F11646984600A810
:10693000FFF79CF9089C022CA8BF48F0800800F0E3
:10694000C9F8694900F0CBF820B900F0D7F8002861
:10695000F7D027E00022394600F0B9F800F0BEF881
:1069600020B900F0CBF80028F8D01BE000F0AAF81E
:106970005E4F394600F0B3F830B900F0BFF8002898
:10698000F7D00FE0761C641EE4B26CB1317800F0F1
:106990009AF8394600F0A3F80028F3D100F0AEF8D9
:1069A0000028F6D0002004E00121284600F0DCFC9D
:1069B0000120BDE8F6812DE9F0450546494800680B
:1069C0000E460A2183B0B0FBF1F11746984600A8A5
:1069D000FFF74CF90A9C022CA8BF48F080084FF43E
:1069E0000031284600F0EBFC20B100F087F80028C9
:1069F000F5D05EE000F06EF8DFF8ECA0514600F054
:106A00006EF820B900F07AF80028F7D051E00022A3
:106A100000F05CF800F062F820B900F06FF8002890
:106A2000F8D046E00121284600F08AFC00F04AF840
:106A30002E4900F054F820B900F060F80028F7D093
:106A400037E000F047F8514600F049F820B900F06F
:106A500055F80028F7D02CE0012C0CBF00210121B3
:106A6000284600F08BFC012200F030F8204900F0AD
:106A700036F820B900F042F80028F7D019E0E4B267
:106A8000CCB1012C07D10021284600F077FC012170
:106A9000284600F069FC174900F021F828B1284683
:106AA000008AC0B207F8010B641E00F027F8002826
:106AB000E5D0002004E00121284600F05FFC012021
:106AC000BDE8FE854146284600F06ABC31462846AE
:106AD00000F05EBC0121284600F03CBC0649284677
:106AE00000F060BC5482000801000300840007002D
:106AF00002000300400003008200070000A8FFF727
:106B0000BDB800007CB50446002601AD606800F009
:106B100093FE0022DFF81C3200F0B6FE00F09CFF6E
:106B2000F100C8407055761C032EEFDB0320009067
:106B30000823DFF8046201AAB8213046FFF7ECFE13
:106B40006078A17808438DF80400102300F034F831
:106B5000022000F039F83046FFF72DFF9DF80400C1
:106B600000F07F0000F025F89DF80400217800F087
:106B70008B0008438DF80400207A00289DF804005B
:106B800014BF40F0040000F0FB008DF80400E17831
:106B90006878002914BF40F0020000F0FD00687022
:106BA0002023022000F009F800F013F800F001F8AB
:106BB00073BD8DF8040020230120009001AAB821A4
:106BC0003046FFF7A9BE01200090202301AAB8217A
:106BD00070479DF8040040F08000704730B583B0E6
:106BE0000446032000900025282300F09DF870B192
:106BF000002001A9C200415C91400D43401C0328C4
:106C0000F7DB280248BF45F07F45256001203EBDE7
:106C100010B582B004460020009000A8FFF7DEFF08
:106C200040B1009864214843C11200EB1150001399
:106C30002060012016BD1CB50446022000902B23C5
:106C400000F072F838B19DF805009DF8041001EBD2
:106C500000202080012016BD10B582B0044600A897
:106C6000FFF7E9FFA8B1BDF9000000F009FC00F052
:106C7000E3FD0022314B00F005FF314B002201F013
:106C800025F800222F4B00F0FFFD00F0CFFE208002
:106C9000012016BD10B504462B4800680A2184B0B7
:106CA000B0FBF1F101A8FEF7E1FF012100A801F01E
:106CB00081F800F016F890B19DF80000C00709D4E3
:106CC00000F02CF8009001A8FEF7D8FF0028F3D0C0
:106CD000002004E02046FFF7BFFF00B1012004B010
:106CE00010BD1CB500F011F870B19DF8040040F023
:106CF00001008DF8040021230120009001AAB82191
:106D00002046FFF709FE012016BD01200090212337
:106D1000094C01AAB8212046FFF74DBE00B583B04B
:106D200001200090272311E001AAB8210248FFF7B3
:106D300042BE00000000B0400054004000007E4011
:106D4000004045400000244054820008FFF7ECFF5B
:106D500001980EBD044908607047044908607047F7
:106D6000034908607047000010000E4228000E42E0
:106D700024000E4230B58BB01B208DF8180006ACF5
:106D8000C520607000F0B8F9B420A0719A2000F01E
:106D900063F83A2000F05AF86E2060733620A07332
:106DA0000220DFF84054E07300950723012206A972
:106DB000FDF770FA002846D11B208DF8180001233A
:106DC00000F050F800F09AF9FC20A0718F2000F03C
:106DD00043F84A20A072CF20E072A02020737820D0
:106DE00060733E20A073E220E073A81C0590002091
:106DF0000490102003900020029001901020009039
:106E00002888FDF782FAF0B91B208DF818000623B8
:106E100000F028F800F072F93620A071AC2000F0E4
:106E20001BF84B2000F012F81B2060730A20A0739F
:106E30003420E073281D00F020F9122000902888EB
:106E4000FDF763FA00B147200BB030BDA072CF2030
:106E5000E072802020737047E071E12020721120E1
:106E600060727047C520607006AAD520A07002210C
:106E7000704700B583B001208DF8040001A900F02F
:106E800059F90123418800884DE1E0B501888DF86A
:106E900004100623B0F9001009128DF8051001A99D
:106EA00042888A70B0F9022012128DF80720828879
:106EB0000A710022B0F90400009100128DF8090057
:106EC000C848818800882FE12DE9F04190B01B204F
:106ED0008DF830000CACC520607000F00DF9D020AA
:106EE000A071822000F0D3F8402020731A20607334
:106EF0008220A0734220E0730A23BA4DA81D00909F
:106F000001220CA90220FDF7C5F9002832D100F0BA
:106F1000ECF8E320A071A92000F0B9F8202020733C
:106F2000552060732E20A073A320E07305F10800A4
:106F300000F0CCF800281DD129890E208DF82800FA
:106F40004FF0FF3642F22F70ADF82A0042F60418D7
:106F500000F08DF88DF829600DF126000890ADF84D
:106F600024800020079009AB10200690012200F039
:106F70009FF8002871D19C4F387800286BD01B20D7
:106F80008DF830000323C52060700CAAD520A070B6
:106F9000022100F0B3F80B20A071842000F061F80A
:106FA0008B20A072E420E07280202073C4206073E4
:106FB0002020A073CD20E07305F10A0000F05DF8F9
:106FC00002200090E888FDF7A0F9002845D16989E2
:106FD000ADF824800F208DF8280009AB6FF0040075
:106FE0008DF8290001224FF41E50ADF82A0000F060
:106FF0003EF800F056F800282FD1387800282AD023
:1070000000F073F87320A071A02000F02AF88C2003
:10701000A072E420E072602020730B206073C52012
:10702000A0730120E07305F10C0000F04FF8A0B947
:10703000A9898DF8296006208DF82800ADF82480F4
:107040004FF41C50ADF82A0009AB00F010F80122F3
:1070500000F027F808B9002000E0472010B0BDE894
:10706000F081E071E22020721120607270470020F0
:107070008DF82C00ADF82D0070470590002004908D
:107080001020039004200290002001907047E071CE
:10709000E2202072112060727720A072E420E0725A
:1070A00070470DF1260008900020079010200690F0
:1070B0000020059001200490002003900AA802906F
:1070C000072001900090E888FDF772B90590002034
:1070D00004901020039004200290002001900220D0
:1070E00000900146E888FDF710B91B208DF83000AC
:1070F0000223C52060700CAAD520A070A520E070E6
:107100000220207100206071704701B582B000F04C
:1071100010F80223018905E001B582B000F009F8FA
:1071200003234189C0880022FDF79BF900B1472065
:107130000EBD02A92B480091704701B582B0FFF740
:10714000F8FF02238189EDE700B526498A88521CA1
:1071500087B090420BD102A8FFF7E7F8002839D09A
:1071600002A8FFF711F902A8FFF78FFE32E00A89A3
:10717000521C90420FD11C480078002800A802D071
:10718000FFF788FD01E0FFF789FA18B3BDF90000A9
:10719000FFF7BBFF1EE04A89521C90420FD11348F3
:1071A00000680A21B0FBF1F104A8FEF75FFD01A819
:1071B000FFF72EFD70B10198FFF7AEFF0AE0898955
:1071C000491C884206D100A8FFF712FBBDF8000059
:1071D000FFF7B3FF0648008808B1FDF769F907B06B
:1071E00000BD0000380400209901002054820008EE
:1071F0009A0100201449042808680CBF40F00400DC
:1072000020F00400086070471049086070470E497C
:10721000012803D1086840F0010005E010F1020FD9
:1072200004D108684008400008607047002088606A
:10723000704705490028086814BF40F0020020F09C
:10724000020008607047000010E000E014E000E079
:1072500080B53849884208D101214FF40010FDF76C
:1072600089FF00214FF4001007E001214FF4800056
:10727000FDF780FF00214FF48000BDE80440FDF7DA
:1072800079BF7FB504460D46A68800A8FDF70EFF1E
:10729000029929484FF6C072B1FBF0F03240024328
:1072A000A2804FF6FE7322881A402280234B2A6860
:1072B0009A4208D25200B1FBF2F18AB2042AB8BF56
:1072C000042189B220E0EB884BF6FF76B34204D16B
:1072D00002EB4202B1FBF2F106E019235A43B1FB83
:1072E000F2F141F4804189B20A0504BF41F0010185
:1072F00089B280B24FF49672504341F400414FF48A
:107300007A7289B290FBF2F0401C2084A1834FF680
:10731000F531208840F00100208020880840A988AD
:1073200008436989084320802989A8890843208166
:107330007FBD00000054004040420F00A1860100C4
:107340000029018812BF41F001014FF6FE72114081
:10735000018070470029018812BF41F480714FF607
:10736000FF621140018070470029018812BF41F47B
:1073700000714FF6FF5211400180704700290188CB
:1073800012BF41F480614FF6FF3211400180704717
:10739000002A14BF41F0010101F0FE010182704793
:1073A00001827047838A008B43EA00400840000254
:1073B0000022000A884208BF01221046704782B0AE
:1073C000024600200190009000920A0F01920902EB
:1073D000019A090A12B1009A143202E0009A090CCB
:1073E00018320092009A12680A4218BF012002B0B7
:1073F000704700000288B0F1804F1CBF104B9842CC
:1074000005D0104B98421CBF0F4B984204D14FF649
:107410008F731A404B881A430C4B98421CBF0C4B7D
:10742000984204D04FF6FF431A400B891A4302805A
:107430004A68C26209880185012181827047000083
:107440000004004000080040000C00400010004014
:10745000001400400029018812BF41F001014FF6DD
:10746000FE72114001807047002A828914BF1143C7
:1074700022EA010181817047FFE7C9430182704719
:10748000002840F10980F446404200F005F850F031
:1074900000406047002800BF0AD0B0FA80F1884061
:1074A000D1F19D01C905020672F1004241EB1020A5
:1074B0007047000010B5FF2313EAD0541DBF13EA34
:1074C000D1529C429A4239E0A41ADA0780EA0103B9
:1074D000134042EA012142EA0020421A3CBF641EE6
:1074E00001EB4202090AB2FBF1FE01FB1E2212026D
:1074F000B2FBF1F001FB10226EF30F201202B2FB7F
:10750000F1FE4EEA00207F3406DDFE2C24DA53EA39
:10751000500050EBC45010BDD4F1020401FB1E22F8
:1075200040F08071192C1DDC21FA04F0C4F1200414
:10753000A140114371F10042584110BD9C421ABF55
:1075400003EAD1529A420FE080EA010E0EF00043A6
:10755000400004D0490016D143F0FF4010BD49005F
:1075600008BFD343180010BD9C4205D1D21AF7D0F2
:1075700001F00041484010BD4A0212BF0846484091
:1075800000F0004010BD4AB90902B1FA81F2914001
:1075900044B1A418C00140F000409EE7C90141F089
:1075A000004152420002B0FA80F4A040141B94E75C
:1075B00090EA010F44BF81F0004100F0E1B800BF44
:1075C000431A4FF000423EBF5340C01AC91800BFD3
:1075D000D3095FEAD05C13EB400F34BFB3EB410F2C
:1075E00040E07CEBD1530CD342EA012122D8D1EB0D
:1075F000402009D3400A28BF5FEA500140EBCC503D
:107600007047401A15D04002B0FA80F2521C9040E8
:10761000400A4FEA3C23B3EB026384BF00EB7300E4
:1076200007E040F400001A16DB07C2F10102D04067
:1076300018437047182BFCDC31FA03F202FA03F30B
:10764000591A38BF42F00102D2EB40203CBF400043
:10765000ACF1010C5FEACC5CC20572F100414CEB6D
:107660005020704713EB400F0FD24B0009D0ACEB0A
:10767000D153022B03DB4902172BDDDD7047914309
:10768000401A4300D5D10020704713EB410FD0D3EF
:107690006FF0000070470000FF2212EAD05C1DBFAF
:1076A00012EAD153944593422BE09C44D30780EADD
:1076B00001021A4043EA002043EA0121A1FB003005
:1076C000410038BF40007CF17F010BDBFE294ADA24
:1076D0005B0842EAC15153EA006373F1004C51EB7D
:1076E00010207047D1F1080CDCF120012FDB5B0882
:1076F00010FA01F10B4373F1004120FA0CF05041F4
:10770000704794451CBF02EAD153934280EA0102BC
:1077100002F000421DD0400019D0490017D05BB9DB
:10772000634514D00902B1FA81F39940BCEB030C14
:10773000C00140F00040C1E70002B0FA80FC10FA3E
:107740000CF0B3EB0C0CC90141F00041B6E710009E
:10775000704740000AD0490008D010F1807F94BFE4
:1077600011F1807F02E042F0FF407047D043704744
:1077700090EA010F44BF81F00041FFF721BF00BF35
:10778000421A3CBF801A89184FF0004CC0F3C75210
:10779000FF2A24D0C1F3C75313B3D21AD2F119036D
:1077A00027DD4CEA01214CFA03F321EA0303D1401F
:1077B000C20D4CEA0020401834BF20EA0C004CEA0D
:1077C0005000D20553EA006373EB0C0C52EB10200F
:1077D000420012F1807F38BF7047C00DC00570476E
:1077E000490212BF9A4200EB5120F8E7D2F1170389
:1077F000D9D570474100090E7F3915D4D1F11F0149
:1078000014D4400007D2C00140F00040C84048BF37
:107810006FF000407047C00140F00040C8404CBFCE
:107820004FF00040404270470020704700424FF048
:10783000004058BFC04370475FF0FF0C1CEAD051B6
:1078400014BF614506E0C110400721F0E04101F19D
:107850006051704779B900F0004100020AD0B0FAD7
:1078600080FC00FA0CF001F16051A1EB0C5101EB2E
:10787000D0214005704741020CBF40F4E0016FF099
:107880000001002070470000B0B581EA030C0CF045
:10789000004C40F2FF7515EA11541DBF15EA13574D
:1078A000AC42AF4239E0E41923EA455343F4801374
:1078B000C90241F0004141EA505EC7021100A7FB36
:1078C000020200284FF00000EEFB01204FF0000103
:1078D000E3FB072118BF42F0010240180021494193
:1078E000E3FB0E01A4F580640F0302D25200404175
:1078F000494154F101046CDD470872F1004250F136
:10790000000051EB0451A1F580115CBF41EA0C016C
:10791000B0BD4CEA05510020B0BD05EA1357AC429A
:1079200014BFAF4241E050EA410E1CBF52EA430E81
:1079300002E061460020B0BD24423C441BD15FEA16
:10794000070EF6D0090302BF01460020AEF1140E67
:10795000B1FA81F7AEEB070401FA07FE0C37C7F165
:10796000200100FA07F7C8404EEA000E23EA45530B
:1079700043F48013A2E733F00043B3FA83F704BF64
:10798000B2FA82FE77440B3FE41BB7F1200E2FBF03
:1079900002FA0EF3BB40C7F1200E22FA0EFE38BFEA
:1079A00043EA0E03BA40641C82E750EA410E14BF5A
:1079B00052EA430E6FF000014FF4001717EB430F2C
:1079C0008ABF194617EB410FB5E74CEA0551002075
:1079D000B0BDD4F10104B4F120070FDAC4F12007DF
:1079E000520828BF42F0010210FA07F501FA07F722
:1079F000E1BF2A43E0403843E1400FE0352C98DCFA
:107A0000C7F1200452EA400220FA07F218BF42F000
:107A1000010231FA07F0A1400A43002172F100424D
:107A200050F1000051EB0C01B0BD0000F446400DD8
:107A300040EAC120490006D200F014F8004248BFD5
:107A40006FF00040604700F00DF84FF000418842B1
:107A50008CBF084640426047400D40EAC1204900C3
:107A600080F00D8040F00040490DA1F58061491C77
:107A700005D4D1F11F0154BFC840C01770474FF063
:107A800000007047F0B540F2FF7581EA030C0CF07E
:107A9000004C15EA11541DBF15EA1357AC42AF4212
:107AA000E5E0BC41C1F31301C3F31303801A99410C
:107AB00043F4801304D2641E4000494180185941A8
:107AC000C90241EA5051B1FBF3F603FB1611A2FBC8
:107AD0000675D7EBC020A94102D2761E8018594105
:107AE000C90241EA5051B1FBF3FE03FB1E11A2FB98
:107AF0000E75D7EBC020A94103D2AEF1010E80185C
:107B00005941890241EA9051760546EA8E2EB1FB31
:107B1000F3F603FB1611A2FB0675D7EB8020A941F3
:107B200002D2761E80185941C90241EA50514EEAEC
:107B3000060EB1FBF3F603FB1611A2FB0675D7EB9D
:107B4000C020A94102D2761E80185941C90241EADB
:107B50005051B1FBF3F703FB1711A2FB0735D3EB31
:107B6000C020A94167F100070CBF004247F00107A0
:107B700066F3D5274FEA1E31B80814F5806412DD8C
:107B8000BD0775F1004250EB0E5051EB045111F559
:107B9000801F5CBF41EA0C01F0BD4CF07F6141F0F9
:107BA000E0410020F0BDBD076D0840EA0E5041F4F1
:107BB0008011D4F10104B4F120060ADAC4F12006E0
:107BC0000200E04001FA06F3E1401843B2401543D9
:107BD0000EE0342C13DCC6F1200445EA40056D08A4
:107BE00020FA06F2154321FA06F0A1400D430021C8
:107BF00075F1004250F1000051EB0C01F0BD002086
:107C00005FEA0C01F0BDCFB992185B41B3FA83F77C
:107C100004BFB2FA82F6BF190B3FB7F120062FBF9F
:107C200002FA06F3BB40C7F1200622FA06F638BF77
:107C30003343BA401CB1E419641E33E77F4231F08C
:107C40000041B1FA81F404BFB0FA80F6A4190B3CEC
:107C5000B4F120062FBF00FA06F1A140C4F12006BE
:107C600020FA06F638BF3143A0403C1B1AE7AC426D
:107C70001ABF05EA1357AF4212E050EA41061CBF93
:107C800052EA4306BFE750EA4107304661461CBF4F
:107C900041EA0551F0BD52EA430C08BFC143F0BDB3
:107CA00000204FF4001616EB410F98BF16EB430F60
:107CB00008BF16EB410F24BFC14305E016EB430F8D
:107CC0000CBF61464CEA0551F0BD000070B44FF0A6
:107CD000004591EA030C44BF6B4000F06FB800BF51
:107CE000841A71EB030603D2001BB14112197341D0
:107CF0004FF4001C1CEB410F34BF7CEB430443E00A
:107D00000C0DA4EB1356352E50DC45EAC323DB0AD9
:107D100045EAC121C912B6F120050DDD63FA05F669
:107D2000EB4086EA0305124218BF45F00105C01872
:107D300051F100010CD213E062FA06F5F240554011
:107D4000F3415A40B340F3405A408018594107D399
:107D500049085FEA30005FEA350528BF45F00105B4
:107D600001F58011420875F1004250F1000041EB2D
:107D7000045170BC4FF4001C1CEB410F38BF70471E
:107D80000020090D090570471CEB410F10D252EA83
:107D900043060BD0BCEB410F05D80C0DAB43661E60
:107DA000342EB5DD02E0AB438018594170BC7047FA
:107DB00070BC7047002200F0B7B80000841A71EB65
:107DC000030604D26E40001BB141121973414FF4F7
:107DD000001C1CEB410F34BF7CEB430684E00C0D10
:107DE000A4EB1356362E7DDC012E43DC45EAC3237B
:107DF00043EA525312BFD20292025B08240545EABD
:107E0000C12141EA5051D2EBC020994125D407D17C
:107E1000B0FA80F610FA06F164D00020203608E0AF
:107E2000B1FA81F6B140C6F1200220FA02F2114304
:107E3000B0404FEAF474B4EB465434F001064FEA14
:107E400074040AD8D6F50016760D04F00044F0400C
:107E500061FA06F25040F1404840C00A40EA415001
:107E600021F0004128BF5FEA500550F1000044EBCB
:107E7000D12137E045EAC323DB0A45EAC121C90A1B
:107E8000B6F120050EDD42EA0242120CC5F12006D1
:107E900003FA06F6EB4042EA06056D42984161F1AD
:107EA00000010DE062FA06F5F240554063FA06FC67
:107EB00082EA0C02F3405A406D42904161EB0301AB
:107EC00011F4801F05D1641E620502D06D0040418F
:107ED000494121F48011430875F1004350F100003D
:107EE00041EB045170BC70471CEB410F15D223F0DD
:107EF000004352EA43060BD04FEA4C0CBCEB410F57
:107F000004D80C0D661E342EB7DDEBE7801A9941BC
:107F100050EA410608BF0021E4E708BF1CEB430F0D
:107F200028BF6FF00001DDE700B500BF13009646E3
:107F30009446103928BFA0E80C50FAD85FEA417C7B
:107F400028BF0CC048BF40F8042BC90728BF20F841
:107F5000022B48BF00F8012B00BD00003448354A11
:107F600082B0016841F480710160816811408160D4
:107F7000314A016811400160016821F480210160EB
:107F8000816821F47D0181600021C160019100912F
:107F9000016841F480710160016801F40071009191
:107FA0000199491C0191009919B90199B1F5A04FA6
:107FB000F2D10168490A01F00101009100990129FB
:107FC0002FD11E490A6842F004020A600A6842F092
:107FD00002020A600A6842F001020A604FF4C052CD
:107FE000416A41F08051416215490A604A68D206EF
:107FF000FCD48168816081688160816881604168AA
:1080000021F460414160416841F440414160816830
:1080100089088900816081688160816811F00C0F96
:10802000FBD14FF000610748016002B070470000CB
:10803000003802400CC0FF88FEFFFEEE003C02400C
:108040000070004008ED00E07047FEE7FEE7FEE745
:10805000FEE770477047704780B54FF4804000F0EE
:1080600027F8BDE802404FF48010FDF754BF80B5FB
:108070004FF40060FDF746FF012810D14FF4006176
:108080000948FDF7C0F870B1FEF714F9074801215F
:1080900001704FF40060BDE80240FDF73BBFBDE852
:1080A0000140FCF744BC01BD00040240460400202E
:1080B000004901E00C2800400A680003000C40F071
:1080C000800002F0800262EA000008607047000051
:1080D00038B40020104B1B68DB010ED432BC704753
:1080E0004D782D0225438C7824042C43CD782D0621
:1080F0002543091D1D60121F001D002AEED0E0233C
:108100001B061C68002CFAD00C78042AE8D21C70DC
:10811000491C401C521EF0E7FCED00E010B504467F
:1081200082B014F1010F0AD08DF80000012200A9DD
:10813000012000F007F8012801D1204616BD4FF0BC
:10814000FF3016BD80B5002802D400F003F802BD50
:10815000002002BD80B5002901D1002002BD012808
:1081600001D0022802D1FFF7B3FF02BD00F001F8F1
:1081700002BD10B584B0130000900191029301225A
:10818000040069460520ABBE181A2100C046C0464F
:1081900004B010BD10B5074979441831064C7C4431
:1081A000163404E00A68081D511888470146A142A8
:1081B000F8D110BD0800000028000000D7D6FFFF4E
:1081C000A8020000A801002000000000CFD0FFFF9F
:1081D000A80100002C0100000000002000000000A9
:1081E0000120C046002801D0FFF7D4FF0020C04680
:1081F000C046FDF7E4FB00F000F800F001B8000015
:108200000746384600F002F8FBE7000080B5C0469C
:10821000C046024A11001820ABBEFBE72600020050
:1082200038B504460D462846FFF778FFA84218BF28
:108230000024204632BD0000014880470148004725
:108240005D7F000849820008C046C046C046C0465F
:10825000FFF7C6FFE8030000FFF7FEBFFFF7FEBF12
:10826000FFF7FEBFFFF7FEBFFFF7FEBFFFF7FEBF42
:10827000FFF7FEBFFFF7FEBFFFF7FEBFFFF7FEBF32
:10828000FFF7FEBFFFF7FEBFFFF7FEBFFFF7FEBF22
:10829000FFF7FEBFFFF7FEBFFFF7FEBFFFF7FEBF12
:1082A000FFF7FEBFFFF7FEBFFFF7FEBFFFF7FEBF02
:1082B000FFF7FEBFFFF7FEBFFFF7FEBFFFF7FEBFF2
:1082C000FFF7FEBFFFF7FEBFFFF7FEBFFFF7FEBFE2
:1082D000FFF7FEBFFFF7FEBFFFF7FEBFFFF7FEBFD2
:1082E000FFF7FEBFFFF7FEBFFFF7FEBFFFF7FEBFC2
:1082F000FFF7FEBFFFF7FEBFFFF7FEBFFFF7FEBFB2
:108300002DE9F041234F0446386840F00100386001
:108310008846002600F01AF8042815D100F01FF84E
:1083200040F00800286058F8040B44F82600761C3A
:10833000202EF8D300F00AF8296821F008012960FE
:10834000296821F48061296003E028604FF400402F
:1083500024E03968490849003960BDE8F0810C4DD6
:10836000286840F480602860286870470A490A68D5
:108370000420D20701D5012070470A68D20501D533
:1083800002207047096811F4F05F18BF032070479E
:10839000043C024008E000E0183C024010B582B006
:1083A000044604208DF80000FFF7E0FF8DF8000080
:1083B00005E04CB1FFF7DAFF8DF80000641E9DF870
:1083C00000000128F5D014B905208DF800009DF8B3
:1083D000000016BD05050505050500000F000F008E
:1083E0000E000E000D000D00003800400038004067
:1083F000000402400004024000080240000802405D
:108400000004024000040240000402400004024054
:108410000004024000040240000802400004024040
:108420000000000000000000000000000008024002
:1084300000080240000C0240000802400008024010
:108440000004024000040240000402400004024014
:1084500000040240030406080C101820300000003D
:1084600000000000010203040102030406070809DA
:108470000000000000000000000000000800E00014
:108480000801FFFF11068A97F7C0850611E3BAA716
:108490000800200C9A66000001000000F4010000B2
:0884A0000000000000000000D4
:040000050800824924
:00000001FF
