:020000040800F2
:1030000090000020013600081D3600082136000817
:1030100025360008293600082D360008000000007B
:103020000000000000000000000000003136000831
:103030003536000800000000393600083D3600082B
:103040004136000845360008493600084D3600086C
:103050005136000855360008593600085D3600081C
:103060006136000865360008693600086D360008CC
:103070007136000875360008793600087D3600087C
:103080008136000885360008893600088D3600082C
:103090009136000895360008993600089D360008DC
:1030A000A1360008A5360008A9360008AD3600088C
:1030B000B1360008B5360008B9360008BD3600083C
:1030C000C1360008C5360008C9360008CD360008EC
:1030D000D1360008D5360008D9360008DD3600089C
:1030E000E1360008E5360008E9360008ED3600084C
:1030F000F136000880B501213F2000F0B9F8012128
:10310000012000F0BEF84F48032101604E49816064
:103110000021416001BD70B584B04FF440514FF0C3
:10312000006000F0BBF8FFF7E5FF00F0C1F8474C86
:10313000474D00F0FBF828B965604FF4007020801F
:10314000444807E000F0F2F8012806D1656002204B
:1031500020804148A0600120608000208DF804009C
:103160008DF8070000A920880090606800F0E6F85C
:103170003A484FF0FF31016000A9608800900120BB
:103180008DF804000020ADF8060001208DF8050040
:10319000A06800F0D3F800F0C9F810B9A068618801
:1031A00007E000F0C3F861880128A06808BF4183E8
:1031B00000D001832188606800F0EFF8002834D146
:1031C00000F0F2F8264800F002F90546254800F024
:1031D000FEF8064600F0F4F846EA0500042824D17B
:1031E00000F0A4F818B9A0686188418304E000F0F9
:1031F0009DF8A06861880183002002901A4902E0CE
:103200000298401C029002988842F9D300F08EF890
:1032100010B9A068618807E000F088F8618801288B
:10322000A06808BF418300D001830D48006800B941
:103230000E484168006880F308888847002004B081
:1032400070BD00002838024001000010000000207E
:10325000000002400008024000040240000C02404E
:10326000F80F0808FC0F0808FFFFAF00003800083F
:10327000084A0029116814BF084321EA00001060C1
:103280007047054A0029116814BF084321EA00006D
:10329000106070471C38024020380240024A11403A
:1032A000084302490860704780FFFF1F08ED00E0F7
:1032B00010B584B001210820FFF7DAFF01208DF856
:1032C000040000208DF8070003208DF80500002081
:1032D0008DF806000420009000A9164C204600F04E
:1032E0002DF8A08A40F00400A082002002E09DF8A2
:1032F0000800401C8DF808009DF808000028F6D052
:10330000208A0D490006800E00F0010080F00100C7
:10331000087000A900208DF80400204600F00EF887
:10332000A08A4FF6FB710840A0821FBD02480078BA
:1033300070470000000C02400C000020F0B5002295
:1033400001230C6893401C409C4222D10668540023
:103350000325A5400F79ED432E40A7403E4306606C
:103360000E79012E18BF022E0CD186684F792E409F
:10337000A7403E438660868826EA03038E799640FE
:1033800033438380C3682B40CD7905FA04F423438B
:10339000C360521C102AD3D3F0BD008A0022084219
:1033A00018BF012210467047DFF864000168C907A2
:1033B00005D5DFF860108160DFF85C108160704730
:1033C000DFF84C00016841F001010160704710B561
:1033D000044600F007F8042804BF0021216010BD56
:1033E00004460D464FF400401AE00C490A680420D8
:1033F000D20701D5012070470A68D20501D5022005
:103400007047096811F4F05F18BF0320704700008F
:10341000043C0240EFCDAB8905040302183C024096
:1034200010B582B0044604208DF80000FFF7DDFFE0
:103430008DF8000005E04CB1FFF7D7FF8DF80000D4
:10344000641E9DF800000128F5D014B905208DF800
:1034500000009DF8000016BD3C483D4A83B001685D
:1034600041F480710160816811408160394A0168CE
:1034700011400160016821F480210160816821F41C
:103480007D0181600021C16001910091029101687C
:1034900041F001010160016801F002010091009911
:1034A00019B90199B1F5A04FF5D10168490801F0AA
:1034B000010100910099012907D1816821F47D0162
:1034C0008160816841F48801816023490A6842F083
:1034D00004020A600A6842F002020A600A6842F0C6
:1034E00001020A604FF40062416A41F0805141627A
:1034F0001A490A604A68D206FCD4816881608168F2
:10350000816081688160816821F47D0181608168CA
:1035100041F408018160016841F080710160016837
:103520008901FCD58168890889008160816841F042
:1035300003018160816801F00C010C29FAD14FF080
:1035400000610748016003B0704700000038024086
:103550000CC0FF88FEFFFEEE003C02400070004001
:1035600008ED00E010B5074979441831064C7C4459
:10357000163404E00A68081D511888470146A14224
:10358000F8D110BD2C0000003800000050F8041BDA
:1035900061B150F8042BD30744BFA9F101039A1875
:1035A000002342F8043B091FFAD1EFE770470000FF
:1035B000DDFFFFFF10000000000000200000000001
:1035C0000120C046002801D0FFF7CCFF0020C046F4
:1035D000C046FFF7A0FD00F000F800F001B80000C1
:1035E0000746384600F002F8FBE7000080B5C04609
:1035F000C046024A11001820ABBEFBE726000200BD
:103600000148804701480047593400081136000836
:10361000C046C046C046C046FFF7D2FFFFF7FEBF18
:10362000FFF7FEBFFFF7FEBFFFF7FEBFFFF7FEBFCE
:10363000FFF7FEBFFFF7FEBFFFF7FEBFFFF7FEBFBE
:10364000FFF7FEBFFFF7FEBFFFF7FEBFFFF7FEBFAE
:10365000FFF7FEBFFFF7FEBFFFF7FEBFFFF7FEBF9E
:10366000FFF7FEBFFFF7FEBFFFF7FEBFFFF7FEBF8E
:10367000FFF7FEBFFFF7FEBFFFF7FEBFFFF7FEBF7E
:10368000FFF7FEBFFFF7FEBFFFF7FEBFFFF7FEBF6E
:10369000FFF7FEBFFFF7FEBFFFF7FEBFFFF7FEBF5E
:1036A000FFF7FEBFFFF7FEBFFFF7FEBFFFF7FEBF4E
:1036B000FFF7FEBFFFF7FEBFFFF7FEBFFFF7FEBF3E
:1036C000FFF7FEBFFFF7FEBFFFF7FEBFFFF7FEBF2E
:1036D000FFF7FEBFFFF7FEBFFFF7FEBFFFF7FEBF1E
:1036E000FFF7FEBFFFF7FEBFFFF7FEBFFFF7FEBF0E
:0436F000FFF7FEBF23
:0400000508003611A8
:00000001FF
