:020000040800F2
:1038000028100020355F0008CD5D0008CF5D00085E
:10381000D15D0008D35D0008D55D00080000000000
:10382000000000000000000000000000D75D00085C
:10383000D95D000800000000DB5D0008F55B0008B2
:10384000555F0008595F00085D5F0008DD5D0008F6
:10385000615F0008655F0008695F00086D5F000830
:10386000715F0008755F0008795F00087D5F0008E0
:10387000815F0008855F0008895F00088D5F000890
:10388000915F0008955F0008995F00089D5F000840
:10389000A15F0008A55F0008A95F0008AD5F0008F0
:1038A000B15F0008B55F0008B95F0008BD5F0008A0
:1038B000C15F0008C55F0008C95F0008CD5F000850
:1038C000D15F0008D55F0008D95F0008DD5F000800
:1038D000E15F0008E55F0008E95F0008ED5F0008B0
:1038E000F35D0008F15F0008F55F0008F95F00086C
:1038F000FD5F0008DFF800F001000020BFF34F8FEC
:10390000DFF8F004DFF8F024016801F4E06111430E
:103910000160BFF34F8FFEE780B500F087FBBDE885
:10392000024041F6027000F0E1BB10B500E0521E0B
:10393000D2B23AB110F8013B11F8014BA342F6D0D4
:10394000032010BD042010BD10B5044600F0A9FBF3
:103950002146DFF8A80400F0B7FB044600F0ADFBF9
:10396000042C04BFBDE81040FFF7C8BF10BD30B540
:103970008BB000F08DF806AC9A2060700C20A0701F
:103980002020E0700020207108206071A720A07125
:10399000BA20E071E3202072112060720620A0722C
:1039A0008520E072C0202073F72060739720A073F9
:1039B0008A20E0730A23DFF84C540095012206A9FF
:1039C000022000F06FFC00285FD100F061F80823AE
:1039D00000F07AF8C02020738C2060732E20A07332
:1039E0001220E073A81C00F057F8022000902888ED
:1039F00000F093FC002848D100F04AF8092300F0B9
:103A000063F8F0202073992060730F20A0732120A9
:103A1000E073281D00F04AF8002836D100F038F88D
:103A2000142300F051F880202073AA2060739120A5
:103A3000A0732620E073A81D00F038F8002824D1D8
:103A400000F026F8042300F03FF860202073572090
:103A50006073DC20A0732B20E07305F1080000F0F8
:103A60001BF812200090288800F057FC68B969887C
:103A700005F10C00009008232888002200F0A0FC2B
:103A800020B10FF2A83000F063FD47200BB030BD2D
:103A900066208DF8180070470590002004901020D3
:103AA00003900420029000200190704705900020B0
:103AB00004901020039005200290002001900E2019
:103AC0000090288800F029BC9A20607006AA0C207B
:103AD000A07002212020E070002020710820607179
:103AE000A720A071BA20E071E3202072112060723B
:103AF0000820A0728520E072704700002DE9F04F89
:103B0000DFF80483BF4E08F18007002183B079609D
:103B1000B2884188521C914222D1027A417A120421
:103B200002EB0161C27901EB0221827952183A61FC
:103B3000037B417B1B0403EB0161C37A807A01EBB9
:103B400003214118100AB88179610020B961B86079
:103B5000F88103B0BDE8F04F0FF2F82000F0F8BC98
:103B60003B690FF2503908F1840201923289921CAC
:103B7000914234D1180602D0B889401CB881002087
:103B8000F881FFF7C9FE0125002401E0641CA4B2FE
:103B9000B889844207DA786900EB042000F05CFA07
:103BA0000546042DF2D000F050FA042D11D10FF289
:103BB000D42000F0CDFC0020786000F02EF908B190
:103BC000484608E0012000F027FD012088F8800029
:103BD0000DE10FF20C30BDE8FE4F00F0B9BCF288E9
:103BE000521C9142F4D13C8921468029F0DA7A783E
:103BF00007E004F808C014F808C0641C8CEA02024C
:103C0000A4B290F804C00CEB010EAEF1040E7445A2
:103C100009DA9C423DBFA4EB010C84449CF806C029
:103C20004FF0000CE5E70CEB000191F802C08CEAC4
:103C3000020291F803C009793C818CEA02025140EA
:103C40007970C9B24279914240F0B980017EC07D5D
:103C500000EB0122F98992B2914240F0A280481C07
:103C6000F881B88000203A897989F8807F2422423F
:103C700004D0581A80285ED282425CD37869081832
:103C8000B86100244FF0040BFFF746FE04E0B8696A
:103C900054445044A4B2B861388984422DDA001BE0
:103CA0004FF0800A04EB080B802807DB72B6B86976
:103CB0005946FFF71FFE054662B613E09BF8021057
:103CC0009BF80300090401EB00609BF8011000EB76
:103CD000012014F808100918B8694FF0040A00F020
:103CE000D8F90546B86952465946FFF71EFE834685
:103CF000042D08BFBBF1040FC9D000F0A6F9EDB246
:103D0000042D10D1BBF1040F07D178893989081827
:103D100078810020F88038810BE00FF2DC1000F091
:103D200017FC3C2004E00FF2E81000F011FCFF202B
:103D3000F88000F06DF801980090042331893088F4
:103D4000002200F03DFB10B1484600F001FC7889EC
:103D50003969884249D3002000F071FC79690FF27B
:103D6000FC1000F0F5FB7869284900680840B0F1C4
:103D7000005F3AD100F095F97969204800F0A4F984
:103D800039690546786909181D4800F09DF904460F
:103D900000F093F944EA0500042826D1FFF7AEFDB0
:103DA00023E00FF2EC1000F0D3FB00F031F8F0202C
:103DB000F880388910383881F889B8800FE00FF220
:103DC000242000F0C5FB79890FF2342000F0C0FBFD
:103DD000F889B8800F20F88038891038388100F0D1
:103DE0001CF810B1484600F0B3FB00207870BDE825
:103DF000F78F00000CED00E00400FA05F80F08084A
:103E0000FC0F080854010020400300200000FE2F92
:103E100079890FF21C1000F09BBB042301980090DD
:103E200000223189308800F0CBBA00004572726FF1
:103E300072207768696C65207570646174696E675B
:103E40002063686172616374657269737469632E5B
:103E50000A000000496D6167652062617365203D5D
:103E600020307825303858203B20496D6167652027
:103E700073697A65203D20307825303858200D0A46
:103E800000000000506167652065726173652073F2
:103E900075636365737366756C2C2073656E6469F6
:103EA0006E67206E6F74696669636174696F6E0D09
:103EB0000A0000004572726F72207768696C652095
:103EC0007570646174696E67204143432063686163
:103ED00072616374657269737469632E0A0000000D
:103EE00050616765206572617365206661696C75F4
:103EF0007265200D0A000000466C617368207665CB
:103F000072696679206661696C757265200D0A00B8
:103F1000466C617368207772697465206D656D6F9A
:103F20007279206661696C6564200D0A00000000EA
:103F30002A2A20546F74616C20627974657320772B
:103F400072697474656E20696E20666C6173682096
:103F50003D202564202A2A0D0A0000002A2A2A2A48
:103F60002A2A2A2A2A2A2A2A2A4A554D50494E47BD
:103F700020544F20307825303858202A2A2A2A2ADF
:103F80002A2A2A2A2A2A2A2A2A2A2A2A0D0A000022
:103F900053657175656E6365206E756D626572201F
:103FA000636865636B206661696C65642C20657865
:103FB000706563746564206672616D6520232030CE
:103FC0007825303258206275742030782530325888
:103FD00020776173207265636569766564200D0AD8
:103FE00000000000496E7465677269747920636827
:103FF00065636B206661696C65640D0A00000000F2
:104000002A2A546F74616C20627974657320777208
:10401000697474656E20696E20666C617368203DFA
:10402000202564202A2A0D0A0000000010B5DFF8C0
:10403000E8402068800707D500F033F8DFF8DC009F
:10404000E060DFF8DC00E06010BDDFF8CC00016864
:1040500041F002010160704738B5054600F043F8B1
:10406000042815D1DFF8B040206840F400702060CB
:10407000206840F0080020600020286000F033F83D
:10408000216821F008012160216821F4007121607C
:1040900032BD38B500F025F8042801D125601BE0B9
:1040A00032BDDFF874000168C90705D5DFF8741068
:1040B0008160DFF8741081607047DFF85C00016890
:1040C00041F001010160704738B500F00AF804289A
:1040D00001D1256000E032BD4FF40040BDE8324020
:1040E00026E004460D464FF4004021E00F490860E9
:1040F00070470E490A680420D20701D50120704795
:104100000A68D20501D502207047096811F4F05FF2
:1041100018BF032070470000043C0240BFAE9D8CD6
:1041200016151413EFCDAB8905040302183C0240A9
:1041300010B582B0044604208DF80000FFF7D9FFC7
:104140008DF8000005E04CB1FFF7D3FF8DF80000BB
:10415000641E9DF800000128F5D014B905208DF8E3
:1041600000009DF8000016BD00B587B000F0AAF968
:1041700000F0A1F940F20110ADF8060000F0E1F9FD
:1041800000284CBFFF209DF8000007B000BD70B5AF
:104190008AB00C468DF8080015461E46072200F02E
:1041A00052F900F0B9F900F059F98A20ADF80E0083
:1041B00002A805900120069000A80790072008900B
:1041C00003A800F075FB002848BFFF200CD49DF821
:1041D000000048B9BDF801002080BDF80300288028
:1041E000BDF80500308000200AB070BD76B592B0F1
:1041F000199D1B9C61190E311E46292928BF42209A
:1042000017D200F047F800F03FF800F014F800F083
:104210001EF800F031F800F027F800F053F900F034
:104220004AF9832000F086F900284CBFFF209DF852
:10423000000014B070BD18981A998DF822008DF8FE
:1042400021608DF823502A4609A800F0F7BB05F13C
:104250000800C0B207AA451C8454EDB21C9907A8F7
:104260002246281800F0EABBA41CE4B207A80222E8
:104270001EA9201800F0E2BB6419E4B207AB0222C9
:104280001DA9E01800F0DABB022213A90DF11F00EE
:1042900000F0D4BB8DF81C00022212A90DF11D0004
:1042A00000F0CCBB70B58CB014461D468DF81C00D8
:1042B00001280CBF0226102632460DF11D0000F029
:1042C000BDFB701C07A9C0B203224454441CE4B2D5
:1042D00000A86554002100F0B7FB00F0F3F800F0EF
:1042E000EAF84FF4817000F012F800F063F800F083
:1042F0002BF9002848BFFF2007D49DF8000020B903
:104300001098BDF80110018000200CB070BDADF810
:10431000060007A80390601C7047F1B58EB00D46EB
:1043200016461F4600F041F807AC012DA5700CBFE2
:10433000022510252A4631460DF11F0000F07EFBB4
:10434000E81CC0B2411C0755C9B214980855491C55
:10435000C9B215980855491CC9B216980855491C88
:10436000C9B2179808554D1CEDB21898285503226C
:1043700000F069F800F0A6F800F09DF84FF48270A4
:1043800000F05AF8681C00F015F800F0DDF800287D
:1043900048BFFF2007D49DF8000020B91998BDF848
:1043A0000110018000200FB0F0BD02220EA907A865
:1043B00000F044BBC0B2049000A8059003207047F1
:1043C00033B51C46A01DA7B015468128A8BF4220C2
:1043D0001BDA00F047F800F04AF82C998DF82050CD
:1043E0008DF82140224600F023F800F06BF800F031
:1043F00062F84FF4837000F01FF8A01D00F09FF8E2
:1044000000284CBFFF209DF8000029B030BD00B54A
:1044100089B000F01CF800F084F840F2271000F09A
:104420006AF800284CBFFF209DF8000009B000BDCD
:104430000DF1220000F002BBADF8060007A80390C2
:10444000704704460222002100A800F0FDBA18229D
:10445000ADF80400002102A800F0F6BA3F20ADF844
:104460000C007047022227A907A800F0E7BA022231
:1044700028A90DF11E0000F0E1BA10B50C46114656
:10448000A21CA8B0812AA8BF422012DA8DF81C0015
:104490008DF81D40224600F03BF800F013F800F0C4
:1044A0000AF80C2000F046F800284CBFFF209DF8C9
:1044B000000028B010BD3F20ADF804007047002078
:1044C0008DF801001822002101A800F0BDBA00B546
:1044D00089B08DF804008DF8051000F026F800F082
:1044E00020F80F2000F007F800284CBFFF209DF8AF
:1044F000000009B000BDADF80A0001A80490022038
:10450000059000A806900120079002A800F0D0B9FD
:104510000DF11E0000F092BA1822002103A800F04D
:1045200093BA3F20ADF8080070471822002102A876
:1045300000F08ABAADF8060007A80390A01CC0B22C
:10454000049000A805900120069001A800F0B0B9E1
:104550000EB400B582B003A90091024600AB012160
:10456000034878440A3000F079FA06BC5DF810FB85
:10457000AD1900002749096851F820007047254906
:10458000496831F8100070477CB504461425214E67
:1045900000F0F2FC05FB00600830306000F0ECFC3D
:1045A0000A210FF2DC0201FB0020706000F0E4FC45
:1045B00001210FF2E00205FB002050F8240000F07A
:1045C000E3FC2046FFF7DBFF009001208DF804009C
:1045D0000020ADF8060003208DF805002046FFF707
:1045E000C9FF00A900F0E6FC00F0C6FC08B92046AF
:1045F0000AE000F0C1FC0128204605D1FFF7BAFF10
:1046000000F030F8688373BDFFF7B4FF00F02AF8BC
:10461000288373BD2401002038B5044600F0ACFCAB
:1046200008B9204605E000F0A7FC0128204600D18B
:1046300012E0FFF79FFF00F015F8688331BD38B531
:10464000044600F099FC08B9204605E000F094FC0F
:104650000128204600D1ECE7FFF78CFF00F002F8BC
:10466000288331BD0546204689E738B50446FFF763
:1046700081FFFFF7F7FFA98A4840A88231BD0000FB
:1046800001000200040010002000010002000100EF
:104690000100020004000000040000000800000007
:1046A00004000000040000000200000002000000FE
:1046B00002000000020000000200000038B5BD4CFE
:1046C00004F110000060406004F1180000604060D8
:1046D0000025502000FB054000F1200104F11000EE
:1046E00000F0C3FC6D1C052DF3DB31BD70B5B14C82
:1046F00000F10803A360002163782BB9A38003E0D5
:10470000042B4CD103236370A388472B47DAA3887B
:104710005D1CA580A56866785B5D002EF0D0032E39
:1047200008BF0623EFD0042E08BF0523EBD0052ECB
:1047300008BF0723E7D0072E08BF0823E3D0082EC1
:1047400004D1B5F8032000210923DCE7062E01D1AE
:104750001A46F8E7092ED7D1491C89B292B2914284
:10476000D2D30021617000F108014A1C09780429A4
:1047700008D111780E2918BF0F2903D0014604F182
:10478000180002E0014604F1100000F06EFCE06841
:1047900028B1A188A068E268BDE87040104770BDEC
:1047A00010B594B00020009000F01BFE814C11E089
:1047B00000A904F1180000F066FC00F015FE009856
:1047C000083001F01EF800F00CFE009904F1100012
:1047D00000F04BFC04F1180000F039FC0028E7D091
:1047E000207848B90DE0472101A800F022FEC0B2B0
:1047F00010B101A801F005F800F0E8FD0028F2D1A1
:10480000207000F0F1FD14B010BD10B582B0002092
:10481000009000F0F6FD674C06E0009904F11000EE
:1048200000F01CFC00F0EDFD00F002FDC8B104F149
:10483000100000F00CFC80B900A904F1100000F099
:1048400022FC00984721083000F0F3FDC0B2002898
:10485000E3D00098FFF74AFFE4E70120207000F062
:10486000D0FD13BD01F00CB830B5890583B0890DBA
:1048700041EA8020ADF80400144601208DF80000C4
:104880001D468DF80640032201A90DF1010000F03C
:10489000D5F823460422294600A8FFF7E3FF0020AD
:1048A0003EBD80B500F09DFD42480121817001BDF3
:1048B0002DE9FC4104463F4F608821888005800D2A
:1048C00040EA81253C4800680A21B0FBF1F600204F
:1048D000B8703A48F860E268A36861882088D2B26C
:1048E000FFF7C2FF00285DD44FF00A082CE0012E2C
:1048F0000BDB314600A800F0E1FF00A800F0E6FF66
:1049000000284FD1B8780028F7D0B868024611784F
:10491000042915D1C11CB8885278C01E0E2A2CD08B
:104920000F2A04D0102A3DD03E2A2ED008E04A8813
:10493000ADB2AA4204D162680F2A0ED0087888BBB3
:104940000020B87000F050FD5FEA0800A8F10108EF
:1049500028D0002ECBD10126CBE762699042C8BF98
:10496000104660610246206900F068F80020F86097
:1049700000F03AFD0020BDE8F681B1F80120ADB2AB
:10498000AA42DDD1C91CC01EE7E70A7863689A42D3
:10499000D6D16269401E9042C8BF1046606102468F
:1049A000491CE0E70020F86000F01EFD4FF0FF30EA
:1049B000E1E7000090010020505F0008A3480008D4
:1049C0001822002101A800F03FB830B58FB000F0E8
:1049D0001DF88DF81C40202CA8BF1F2400F01DF8E6
:1049E000FFF7EEFF00F01FF80920ADF8060007A85A
:1049F00003902020049000F01AF8002802D49DF8BB
:104A0000000008B14FF0FF300FB030BD04460D4636
:104A10002022002107A800F017B8224629460DF1F0
:104A20001D0000F00BB80820ADF80400704700A886
:104A300005900120069001A8FFF73ABF10B5044683
:104A400000F050FF204610BD10B5044610460A463F
:104A50000146204600F082FF204610BD2DE9F04FB0
:104A600093B0804602AE002014461D460291B0610C
:104A70000DF1300A0AE014F8011B0298C0470290B9
:104A8000002800F0B481B069401CB061207808B9FA
:104A9000B069AEE12528EED10020F0603061706190
:104AA00001E040F0010014F8011F2029F9D023296A
:104AB0000DD02B2904D02D2906D030290AD00CE0A6
:104AC00040F0020080B2EEE740F00400FAE740F068
:104AD0000800F7E740F01000F4E72A290DD1296813
:104AE0000A1D2A6009683162002904D5494240F054
:104AF0000400316280B2641C13E0002131620BE0DB
:104B0000316A6FF00043994205D001EB810302EB5B
:104B1000430130393162641C2278A2F130010A2944
:104B2000EED321782E2903D04FF0FF31F1611EE042
:104B300014F8011F2A2906D129680A1D2A60641C5D
:104B40000968F16113E00021F1610BE0F1696FF098
:104B50000043994205D001EB810302EB4301303958
:104B6000F161641C2278A2F130010A29EED3B084ED
:104B70000FF28030217800F025FF08B114F8010B06
:104B80008DF82E009DF82E00682804BF2078682834
:104B900003D162208DF82E00641C0CA8B06022782E
:104BA000252A13D0582A34D0632A00F0A580642A1D
:104BB00018BF692A68D06F2A2BD0702A20D0732A98
:104BC00009D0752A18BF782A23D09FE0F068411CCD
:104BD000F160252197E02868011D29600068F269CD
:104BE0007060002A02D500F0F9FE07E0002100F015
:104BF00011FF00281ABF7168401AF069306191E016
:104C00002868011D29607821006801900CA8706057
:104C10006EE09DF82E306C2B08BF286811D0712BE8
:104C200008BF286802D028686A2B0AD1C01D20F06E
:104C300007002860014601F108002860D1E9000161
:104C400002E0011D296000680190682B02D101A8D3
:104C5000008803E0622B02D101A80078019096F849
:104C6000240000073FD5019800283CD042F02000E6
:104C7000782838D1F068302100F80A10401C411C17
:104C8000F16000F80A202EE09DF82E00622802D084
:104C9000682806D00BE02868011D296090F9000003
:104CA00009E02868011D2960B0F9000003E02868C8
:104CB000011D296000680190002804D5F068411C9E
:104CC000F1602D210DE0B08C810704D5F068411C06
:104CD000F1602B2105E0C00705D5F068411CF160AB
:104CE000202100F80A10F0680CA9401870601146E5
:104CF00001A800F081F815E0F068411CF160296816
:104D00000A1D2A60096800F80A100BE0F068411CCF
:104D1000F160252100F80A1022B1F068411CF16011
:104D200000F80A20306AF168401A7169401A316946
:104D3000A0EB010996F82400641C40070FD4202042
:104D40008DF80000002708E0012300AA01A94046D1
:104D500000F0B9F800284AD17F1C4F45F4DBF76812
:104D60000DF1300B0AE01BF8011B0298C0470290BE
:104D700000283CD0B069401CB0617F1E002FF2D1EA
:104D800030208DF800004FF0000B776908E0012318
:104D900000AA01A9404600F096F840BB0BF1010BB8
:104DA000BB45F4DB3769D6F804B009E01BF8011BFA
:104DB0000298C0470290D0B1B069401CB0617F1E1C
:104DC000002FF3D196F8240040077FF55FAE202036
:104DD0008DF8000000E07F1C4F45BFF657AE012361
:104DE00000AA01A9404600F06EF80028F3D04FF069
:104DF000FF3013B0BDE8F08FF0B4C2686F2908BF70
:104E0000082405D041F02003782B14BF0A24102475
:104E1000066818233746642918BF692902D1002E75
:104E200048BF7F425FB9056A4DB9082C27D190F879
:104E30002810090723D530211723D1751FE0B7FBB0
:104E4000F4F604FB167730375D1EFFB22B463A2F7F
:104E5000A4BFA1F1510C6744AF54370003D085685B
:104E60009E18B542EBD3082C09D190F828100907F9
:104E700005D5995C302902D05B1E30219954C3F1CD
:104E8000180141619A188260026A914208DA511A47
:104E900081614FF6EF72018D11400185F0BC7047C2
:104EA000002A0ED590F8282002F01402102A08D10A
:104EB000426A0369D21A8369D21A531A012BA8BF16
:104EC0008361F0BC7047F8B504460D4616461F4690
:104ED000002004E0E869401CE8617F1E002047B123
:104EE00016F8011B6868A04768600028F2D14FF0EF
:104EF000FF30F2BD686C747A4C00000010B584B0CD
:104F00000121082000F040F801208DF80400002065
:104F10008DF8070003208DF8050000208DF80600AD
:104F20000420009000A9164C204600F043F8A08A07
:104F300040F00400A082002002E09DF80800401C20
:104F40008DF808009DF808000028F6D0208A0D4949
:104F50000006800E00F0010080F00100087000A93A
:104F600000208DF80400204600F024F8A08A4FF6B7
:104F7000FB710840A0821FBD024800787047000006
:104F8000000C024024040020084A0029116814BFC4
:104F9000084321EA000010607047054A00291168A3
:104FA00014BF084321EA0000106070471C3802401B
:104FB00024380240F0B5002201230C6893401C40C5
:104FC0009C4222D1066854000325A5400F79ED4389
:104FD0002E40A7403E4306600E79012E18BF022ED8
:104FE0000CD186684F792E40A7403E438660868864
:104FF00026EA03038E79964033438380C3682B40AF
:10500000CD7905FA04F42343C360521C102AD3D38C
:10501000F0BD008A0022084218BF012210467047E6
:105020000AB1018370474183704710B5CB0800EB8C
:10503000830001F007018900036A0F248C40A34319
:10504000036202FA01F1036A1943016210BD0168AB
:10505000814201D1012070470020704702680A6038
:1050600048600160086841607047086042684A60B3
:105070004160486801607047416802680A600168E1
:1050800040684860704710B50C46016821600068B0
:10509000FFE7FFF7F1FF2068002101602068416011
:1050A00010BD10B450F8041B81B102681218001D25
:1050B00050F8043BDC0744BFA9F10104E31852F89F
:1050C000044B43F8044B091FF9D1EBE710BC7047C0
:1050D00038B5FFF751FFDFF84055DFF8404505EBE5
:1050E00080004069E060FFF747FF05EB8000C06982
:1050F0002061FFF741FF0FF2585151F82000606125
:10510000FFF73AFF05EB8000406AA061FFF734FF2C
:105110000FF2445151F82000E061FFF72DFF05EB3D
:105120008000C06A2062FFF727FF0FF2345151F868
:1051300020006062FFF720FF05EB40000089E0805F
:10514000FFF71AFF405D2070FFF716FF05EB8000A8
:10515000406BA062FFF710FF0FF20C5151F82000D6
:10516000E062FFF709FF05EB400080892081FFF72F
:1051700003FF401980786070FFF7FEFE05EB8000AA
:10518000C06B2063FFF7F8FE0FF2E44151F82000F6
:105190006063FFF7F1FE05EB4000008A6081FFF7D6
:1051A000EBFE40190079A070FFF7E6FE0FF2D04148
:1051B00051F82000E864FFF7DFFE05EB8000406C4B
:1051C000A063FFF7D9FE0FF2B04151F82000E06371
:1051D000FFF7D2FE0FF2B04151F820002064FFF734
:1051E000CBFE0FF2AC41405CE070FFF7C5FE0FF262
:1051F000A441405C2071FFF7BFFE0FF29C41405C70
:105200006071FFF7B9FE18B1FFF7B6FE01280CD1A7
:1052100001214FF48040FFF7C0FEE86C012140F00F
:105220000600FFF7B1FE002032BD4FF0FF3032BD67
:10523000DFF8E803C16B806B89B2FFF7EABE30B5D7
:105240008BB00446FFF744FF10F1010F00F09A8085
:10525000DFF8C8532A78E988286AFFF7E6FE6A78FB
:105260002989A86AFFF7E1FEAA786989286BFFF708
:10527000DCFEE969A86900F034F9E86900F0CEF8CD
:10528000A869FFF797FE00F097F8686B009000A9F7
:1052900002208DF80400032000F076F801208DF83C
:1052A0000700286BFFF786FE02208DF8070000A993
:1052B000E86A0090A86AFFF77DFE01208DF80700DC
:1052C00000A9686A0090286AFFF774FE6969009176
:1052D00001208DF8040001220020ADF8060089B2FB
:1052E00003208DF805002869FFF79AFE286900A9B8
:1052F000FFF760FEE86B00F088F8A86BFFF75AFE36
:105300000020ADF8140005A94FF48270ADF8160026
:1053100000200690ADF81C004FF40070ADF81E00A0
:10532000002008900720ADF82400E86800F09EFBFC
:10533000E868012100F0B6FB012C22D12979E87838
:1053400000F0C2FB286C039000208DF810000820AC
:105350008DF8110001208DF8120003A800F0C8FBA1
:10536000286C00F0F7FB68798DF8080000208DF8B4
:1053700009008DF80A0001208DF80B0002A800F04A
:10538000F8FB00200BB030BD8DF8050000208DF833
:105390000600704710B5A14C00F008F8052000F099
:1053A00042FC00F09CF8BDE810400CE0E169A06907
:1053B000002289B2FFF734BE9848C1698069002293
:1053C00089B2FFF72DBE052000F02DBC80B59348B3
:1053D000C16B806B89B2FFF71CFE012818BF00204B
:1053E00002BD8E488E4A01E08C488E4A90F9050035
:1053F0004109012300F01F0003FA00F042F82100E8
:1054000070478648006C00F0A5BB009000A9002002
:105410008DF8040002208DF807007047009000A965
:1054200001208DF8040000208DF80500ADF806007D
:1054300070472DE9FF4188460FF2FC1104460CC964
:1054400002A8764F0CC0796938690025FFF7B0FFD4
:105450002E4602A8315CF8688181C046F8680221B6
:1054600000F02AFB0028F9D0F86800F0E2F80028E4
:10547000FAD0F8688089C04600A97054761C052EC1
:10548000E7DB9DF80000022821D19DF804009DF87B
:10549000031051EA00261AD0B04515DA464613E04B
:1054A000F868FF218181C046F868022100F004FB02
:1054B0000028F9D0F86800F0BCF80028FAD0F868A5
:1054C0008089C04628556D1CEDB2B542E8DB79698C
:1054D000386900F006F8284604B0BDE8F081E169BB
:1054E000A069012289B2FFF79BBD2DE9F04F8946E3
:1054F00087B092469B460FF2481180460CC905A81A
:105500000FF244110CC00CC903A800240CC0FFF713
:1055100068FF424DE86B00908DF8064001208DF841
:10552000040000A903208DF8050002208DF8070073
:10553000A86BFFF73FFDE96BA86BFFF7D2FF029462
:1055400003E000BF0298401C029002982328F8DB79
:1055500069692869FFF72CFF274603AE05A8395C67
:10556000E8688181C04600F05FF80028FBD000F0B9
:105570005FF80028FBD0E8688089C046B8557F1CDA
:10558000052FEBD38DF8044000A9A86BFFF712FD9F
:105590009DF80C00022831D170780BEB0A0188428B
:1055A00029DB002610E016F80810E8688181C04663
:1055B00000F03AF80028FBD000F03AF80028FBD0C1
:1055C000E8688089C046761C5645ECD300275F45C5
:1055D00016D217F80910E8688181C04600F024F857
:1055E0000028FBD000F024F80028FBD0E868808970
:1055F000C0467F1CEBE76FF0010401E04FF0FF3481
:1056000069692869FFF76DFFFFF7EEFE204607B0D6
:10561000BDE8F08F00000000D4000020DC03002073
:1056200080E100E000E100E0E868022100F044BA17
:10563000E868012100F040BA0B0000000000000003
:105640000A00000000000000AA00000000000000A6
:1056500000100000001000000020000000200000EA
:1056600000800000008000000040000000400000BA
:1056700000200000002000000004000000040000E2
:10568000040000000200000000040000000400000C
:10569000020100000A0A0000282850F8041B61B12A
:1056A00050F8042BD30744BFA9F101039A18002333
:1056B00042F8043B091FFAD1EFE7704710B5644C7C
:1056C000FFF75AFC18B96348A060402006E0FFF7D6
:1056D00053FC012803D16048A0600420608010BD05
:1056E0001FB54FF460514FF0006000F06EFAFFF705
:1056F00005FC01213F20FFF747FCFFF7DFFF4FF4D8
:10570000C06000F031FA00F07AFAFEF7D7FF01200E
:10571000FFF795FDFFF73EFE0020FEF735FF012065
:10572000FEF732FF0FF240110CC902A806210CC08F
:1057300002AA0020FEF7A1FEFEF716FD00AB0DF158
:10574000020201A90120FEF722FDFEF710F9042153
:105750000120FEF7BCFE3E4C00F062FA2269E188AF
:10576000801A814205D20020FEF77FFF00F058FA30
:105770002061FFF715F8207818B100F014F8002028
:1057800020706188A068FFF744FC0028E4D14FF442
:10579000FA6000F048FA314800680028DCD0304850
:1057A000FEF7D2F8D8E700B58BB007A80FF2C0011A
:1057B000102200F0A7F82B491220FFF706F900206D
:1057C0000690059004900390012307A80290002200
:1057D0000E200190002000900146FEF707FD0BB05F
:1057E00000BD1B4801228180C2607D21C1807047BD
:1057F00017480021C160012101704FF4FA71C18086
:105800007047411C0078042821D10878052804D06D
:105810003E2803D0FF280AD07047E9E7881C0178AA
:10582000012914D1401CB0F80110401DD9E7881C93
:1058300040F601420188891A06D0133907D104487D
:10584000808820B1FEF7E3BD801CFEF757B9704792
:105850007C0100200008024000040240F80F080804
:105860000062000868010020123400E1800200009C
:10587000094F5441536572766963654D6772000044
:10588000F0B504460C4800680D460A2183B0B0FB11
:10589000F1F116461F4600A800F010F8FBB2F2B274
:1058A00029462046FFF721FE20B100A800F00EF89F
:1058B0000028F3D0F7BD0000505F000810B5044683
:1058C0006160FFE700F0ACF9206010BD10B5044640
:1058D00000F0A6F92168401A6168401C81428041AD
:1058E000C00F10BD62B38B0708D0521E11F8013BE8
:1058F00000F8013B00F024808B07F6D1830740F0CD
:10590000208000BF103A07D330B4B1E83810103A05
:10591000A0E83810F9D230BC530724BFB1E8081012
:10592000A0E8081044BF51F8043B40F8043BD207FC
:1059300024BF31F8022B20F8022B44BF0B780370F0
:105940007047083A07D3B1E80810083A40F8043B1A
:1059500040F804CBF7D25307E4E7000062F30F22CC
:1059600062F31F42401810F0030308D0C91A1FD376
:10597000DB0748BF00F8012D28BF20F8022D1300D7
:1059800030B414461546103928BF20E93C00FAD837
:10599000490728BF20E90C0048BF40F8042D8900C2
:1059A00028BF20F8022D48BF00F8012D30BC7047F9
:1059B000C91818BF00F8012DCB0728BF00F8012D2A
:1059C000704700000278C9B28A421AB11CBF10F8B1
:1059D000012FF9E718BF00207047000000F1010314
:1059E000810704D010F8011B89B18107FAD1026840
:1059F000B2F10131914311F0803F04BF50F8042F00
:105A0000F6E710F8011B11B110F8011BFBE7C01AF3
:105A100070470000C9B2830706D0521E22D310F887
:105A2000013B9942F7D11FE0083A13D302F1040277
:105A300041EA012141EA014150F8043B121F21BF14
:105A40004B40A3F1013C2CEA030C1CF0803FF3D047
:105A5000C9B2001F083210F8013B521E28BF91EA5C
:105A6000030FF8D818BF0120401E704702880B882A
:105A700002F441521A434B881A438B881A43CB884D
:105A80001A430B891A434B891A438B891A43CB89D2
:105A90001A4302804FF2FF73828B1A408283098A75
:105AA000018270470029018812BF41F040014FF682
:105AB000BF7211400180704700890022084218BF60
:105AC000012210467047000030B501F0030221F0BA
:105AD0000301064B9200CC580F259540AC43CC50A7
:105AE0009040CC582043C85030BD00000800014011
:105AF00030B501688279CB4319492AB30A46146844
:105B00002340136053680468A34353600379CC189F
:105B1000236805682B43236093680468A34393605C
:105B2000D3680468A343D36043790568102B07D179
:105B3000916829439160D16800680843D06030BD06
:105B4000CC182068284303E000790C18206818401E
:105B5000206030BD00E000BF0249086070470000CF
:105B600000040140140401401B4908431B4908601C
:105B7000704770B50378C4781A460121ECB1174B11
:105B80001B68447803F4E063C3F5E0631B0AC3F1C8
:105B90000405AC4085780F2626FA03F32B402343F7
:105BA0000F4C1B01135500780E4B420900F01F00EB
:105BB00001FA00F043F8220070BD50090A4A03F0D0
:105BC0001F03994042F8201070BD084A1140084355
:105BD00007490860704700000000FA050CED00E07E
:105BE00000E400E000E100E080E100E080FFFF1F52
:105BF00008ED00E00F480168491C0160704780B55E
:105C000072B6042000F018F840F69F7000F01EF8FD
:105C1000012000F030F8012000F01BF862B601BD51
:105C200004480068704703490A680B689B1A83425E
:105C3000FBD37047200400201449042808680CBFD7
:105C400040F0040020F0040008607047104908602C
:105C500070470E49012803D1086840F0010005E0B3
:105C600010F1020F04D10868400840000860704736
:105C700000208860704705490028086814BF40F07C
:105C8000020020F0020008607047000010E000E011
:105C900014E000E03448354A82B0016841F4807174
:105CA0000160816811408160314A016811400160E2
:105CB000016821F480210160816821F47D01816007
:105CC0000021C16001910091016841F4807101607F
:105CD000016801F4007100910199491C019100993A
:105CE00019B90199B1F5A04FF2D10168490A01F043
:105CF00001010091009901292FD11E490A6842F043
:105D000004020A600A6842F002020A600A6842F06D
:105D100001020A604FF4C052416A41F08051416271
:105D200015490A604A68D206FCD48168816081689E
:105D3000816081688160416821F46041416041680F
:105D400041F440414160816889088900816081682F
:105D50008160816811F00C0FFBD14FF000610748A2
:105D6000016002B070470000003802400CC0FF889C
:105D7000FEFFFEEE003C02400070004008ED00E037
:105D800038B40020104B1B68DB010ED432BC7047C6
:105D90004D782D0225438C7824042C43CD782D0694
:105DA0002543091D1D60121F001D002AEED0E023AF
:105DB0001B061C68002CFAD00C78042AE8D21C7050
:105DC000491C401C521EF0E7FCED00E07047FEE766
:105DD000FEE7FEE7FEE770477047704780B54FF477
:105DE000804000F009F8BDE802404FF48010FFF752
:105DF000B2BEFEF70ABD0000004901E00C280040D9
:105E00000A680003000C40F0800002F0800262EAA1
:105E100000000860704710B5044682B014F1010F0D
:105E20000AD08DF80000012200A9012000F007F837
:105E3000012801D1204616BD4FF0FF3016BD80B5B8
:105E4000002802D400F003F802BD002002BD80B596
:105E5000002901D1002002BD012801D0022802D171
:105E6000FFF78EFF02BD00F001F802BD10B584B04F
:105E7000130000900191029301220400694605205D
:105E8000ABBE181A2100C046C04604B010BD0000C9
:105E900010B5074979441831064C7C44163404E0A7
:105EA0000A68081D511888470146A142F8D110BD63
:105EB0000800000028000000E3F7FFFF9802000040
:105EC0009001002000000000DBF1FFFF90010000C6
:105ED0003001000000000020000000000120C0464A
:105EE000002801D0FFF7D4FF0020C046C046FFF7CE
:105EF000F7FB00F000F800F001B800000746384654
:105F000000F002F8FBE7000080B5C046C046024A38
:105F100011001820ABBEFBE72600020038B504468E
:105F20000D462846FFF777FFA84218BF00242046F9
:105F300032BD00000148804701480047955C0008D9
:105F4000455F0008C046C046C046C046FFF7C6FFD2
:105F5000E8030000FFF7FEBFFFF7FEBFFFF7FEBF3D
:105F6000FFF7FEBFFFF7FEBFFFF7FEBFFFF7FEBF65
:105F7000FFF7FEBFFFF7FEBFFFF7FEBFFFF7FEBF55
:105F8000FFF7FEBFFFF7FEBFFFF7FEBFFFF7FEBF45
:105F9000FFF7FEBFFFF7FEBFFFF7FEBFFFF7FEBF35
:105FA000FFF7FEBFFFF7FEBFFFF7FEBFFFF7FEBF25
:105FB000FFF7FEBFFFF7FEBFFFF7FEBFFFF7FEBF15
:105FC000FFF7FEBFFFF7FEBFFFF7FEBFFFF7FEBF05
:105FD000FFF7FEBFFFF7FEBFFFF7FEBFFFF7FEBFF5
:105FE000FFF7FEBFFFF7FEBFFFF7FEBFFFF7FEBFE5
:105FF000FFF7FEBFFFF7FEBFFFF7FEBFFFF7FEBFD5
:106000002DE9F041234F0446386840F00100386024
:106010008846002600F01AF8042815D100F01FF871
:1060200040F00800286058F8040B44F82600761C5D
:10603000202EF8D300F00AF8296821F00801296021
:10604000296821F48061296003E028604FF4004052
:1060500024E03968490849003960BDE8F0810C4DF9
:10606000286840F480602860286870470A490A68F8
:106070000420D20701D5012070470A68D20501D556
:1060800002207047096811F4F05F18BF03207047C1
:10609000043C024008E000E0183C024010B582B029
:1060A000044604208DF80000FFF7E0FF8DF80000A3
:1060B00005E04CB1FFF7DAFF8DF80000641E9DF893
:1060C00000000128F5D014B905208DF800009DF8D6
:1060D000000016BD05050505050500000F000F00B1
:1060E0000E000E000D000D0000380040003800408A
:1060F0000004024000040240000802400008024080
:106100000004024000040240000402400004024077
:106110000004024000040240000802400004024063
:106120000000000000000000000000000008024025
:1061300000080240000C0240000802400008024033
:106140000004024000040240000402400004024037
:1061500000040240000000000000000000000000F9
:10616000080062000801FFFF11068A97F7C0850644
:1061700011E3BAA70800200C9A6600000100000095
:106180000000F4010000000000000000000000001A
:0400000508005F454B
:00000001FF
